:020000040800F2
:1000000000400020293200087332000879320008CD
:10001000DDCF0008E3CF0008E9CF000800000000B2
:10002000000000000000000000000000EFCF00080A
:10003000FDCF0008000000000BD0000819D0000818
:100040006D3200086D3200086D3200086D32000814
:100050006D3200086D3200086D3200086D32000804
:100060006D320008793B00086D3200086D320008DF
:100070006D3200086D3200086D3200086D320008E4
:100080006D3200086D3200086D3200086D320008D4
:100090006D3200086D3200086D320008A93B00087F
:1000A0006D3200086D3200086D3200086D320008B4
:1000B000E534000841350008793500086D32000844
:1000C0006D3200086D3200086D3200086D32000894
:1000D0006D3200086D3200086D3200086D32000884
:1000E0006D3200086D320008000000006D3200081B
:1000F0006D3200086D3200086D3200086D32000864
:100100006D3200086D3200086D3200086D32000853
:100110006D3200086D3200086D3200086D32000843
:100120006D3200086D3200086D3200086D32000833
:100130006D3200086D3200086D3200086D32000823
:1001400000000000000000000000000000000000AF
:100150006D3200086D3200086D3200086D32000803
:100160006D3200086D3200086D3200086D320008F3
:100170006D3200086D3200086D320008000000008A
:100180006D3200086D3200086D3200086D320008D3
:100190006D3200086D3200086D3200086D320008C3
:1001A0006D3200086D3200086D3200086D320008B3
:1001B0006D3200086D3200086D3200086D320008A3
:1001C0006D3200086D32000825D000086D3200083D
:1001D0006D32000839D000086D3200086D32000819
:1001E0006D3200086D3200086D3200086D32000873
:1001F0006D3200086D3200086D3200086D32000863
:100200006D3200086D3200086D3200086D32000852
:100210006D3200086D3200086D3200086D32000842
:100220006D3200086D3200086D32000800000000D9
:100230006D3200086D320008000000006D320008C9
:100240006D3200086D3200086D3200086D32000812
:100250006D3200086D3200086D3200086D32000802
:100260006D3200086D3200086D3200086D320008F2
:100270006D3200086D3200086D3200080000000089
:100280006D3200086D3200086D3200080000000079
:10029000000000006D32000800B510EE103A204A50
:1002A00023F00043934283B019DDB3F1FF4F04DB29
:1002B00030EE400A03B05DF804FB684600F0A6F893
:1002C00000F00300012811D002281FD0B8B101208E
:1002D000DDED010A9DED000A00F09CFDEAE7DFED8F
:1002E000110A00F0E3F903B05DF804FBDDED010A4B
:1002F0009DED000A00F08EFDB1EE400ADAE7DDED7B
:10030000010A9DED000A00F0D1F9D3E7DDED010A05
:100310009DED000A00F0CAF9B1EE400ACAE700BF3D
:10032000D80F493F0000000000B510EE103A214AF6
:1003300023F00043934283B01ADDB3F1FF4F04DB97
:1003400030EE400A03B05DF804FB684600F05EF84A
:1003500000F00300012813D0022820D0B8B1DDED51
:10036000010A9DED000A00F0A1F9B1EE400AE9E7AB
:100370000020DFED110A00F04DFD03B05DF804FB35
:10038000DDED010A9DED000A00F090F9DAE70120A9
:10039000DDED010A9DED000A00F03CFDD2E70120F1
:1003A000DDED010A9DED000A00F034FDB1EE400ADA
:1003B000C8E700BFD80F493F0000000008B52DED89
:1003C000028BB0EE408A00F06DF90E4B93F90030CD
:1003D00001330BD0B4EE488AF1EE10FA06D6DFED09
:1003E0000A8AB4EEE88AF1EE10FA02D4BDEC028B70
:1003F00008BD00F015FE88EEA80ABDEC028B212393
:10040000036008BD004000200000000070B510EE41
:10041000103A964A23F00044944286B0054668DDBF
:10042000934A944210EE106A1ADC002B24F00F0459
:10043000DFED907A904A40F3F280944270EE677A52
:1004400066D09FED8E7A77EEC76A012077EEE67A66
:10045000C5ED006A77EEC77AC5ED017A06B070BDCA
:10046000874A944267DDB4F1FF4F49DAE215863AD4
:10047000A4EBC25307EE903ABDEEE77ADFED816A56
:10048000B8EEC77A77EEC77A8DED037A67EEA67A73
:10049000BDEEE77AB8EEC77A77EEC77A8DED047ACB
:1004A00067EEA67AF5EE407AF1EE10FACDED057A18
:1004B00040F0A280B5EE407AF1EE10FA14BF0223AC
:1004C0000123714901910221009103A8294600F0FE
:1004D0006FF9002EC2DA95ED007AD5ED017AB1EE12
:1004E000477AF1EE677A404285ED007AC5ED017AF0
:1004F000B4E7002285ED000A4260002006B070BD1E
:1005000070EE407A0020C5ED017AC5ED007AA5E7CE
:10051000DFED5E6A9FED5E7A77EEE67A012077EE98
:10052000C76A77EEE67AC5ED006A77EEC77AC5ED61
:10053000017A06B070BD00F0B5FCDFED566ADFED64
:100540004D5A9FED4E7AF6EE007AE0EE267AFDEEF9
:10055000E77A17EE900AF8EEE76A1F28B1EE666AAE
:10056000A6EE250A66EE877A1EDC421E4A4B53F839
:10057000223024F0FF029A4230EE677A16D085EDE1
:10058000007A30EE470A002E30EE670A85ED010A48
:10059000BFF664AFB1EE477AB1EE400A85ED007A5E
:1005A00085ED010A404259E730EE677A17EE103ABE
:1005B000E415C3F3C753E31A082BE0DDDFED337A0C
:1005C0009FED337AF0EE405AE6EE275A30EE650A98
:1005D000A6EE270AF0EE407AD6EE877A35EEE77A75
:1005E00017EE103AC3F3C753E41A192C06DC85ED55
:1005F000007AB0EE650AC4E7032362E79FED277A2D
:100600009FED275AB0EE650AA6EE070A75EEC07A8E
:10061000E6EE077AD6EE857A30EE677AAFE7944257
:1006200070EE277A0ED09FED157A77EE876A4FF03D
:10063000FF3077EEE67AC5ED006A77EE877AC5ED92
:10064000017A0BE7DFED116A9FED117A77EEA67A5A
:100650004FF0FF3077EE876A77EEE67AC5ED006AF5
:1006600077EE877AC5ED017AF8E600BFD80F493FEB
:10067000E3CB1640800FC93FD00FC93F4344353705
:10068000800F4943000080435C0501080044353772
:1006900008A3852E84F9223FDC04010800A3852EDF
:1006A00032318D24B1EEC00A704700BF10EE103A0F
:1006B00023F00043B3F1485F2CDAFDEEC07A17EE69
:1006C000903A002B60D020EE007ADFED314A9FEDAA
:1006D000315ADFED315A9FED316ADFED317ADFEDCE
:1006E000316AA7EE245AE7EE055AA7EE256AE7EE2F
:1006F000067AE7EE276A66EE876A60EEC00AB6EE13
:10070000006AE7EE260AF7EE007AD7EE060A37EE21
:10071000E00A704720EE007ADFED1D4A9FED1D5A7A
:10072000DFED1D5A9FED1D6ADFED1D7ADFED1D6ABD
:100730001D4AA7EE245A9342E5EE075AA5EE876AB2
:10074000E6EE077AE7EE876A66EE876AD5DD174A36
:10075000934214DC03F17F4307EE903AB7EE006A50
:1007600036EE676A60EEC00AF6EE005AE7EE260A39
:10077000D7EE257A77EEE07A36EE670A7047B6EE66
:10078000076AF5EE027AEDE7B7EE000A704700BFA0
:100790004ED747ADF6740F317CF293B4010DD037CC
:1007A000610BB6BAABAA2A3D9999993E0000483F21
:1007B0002DE9F04F2DED048BDBB0D64C689D0791F1
:1007C000111D54F8255004930992814603F1FF3816
:1007D000C0F25782D31E44BF13460433DB10039389
:1007E0000133DB000893DDE908239B1A0693039B82
:1007F00015EB0801A3EB080316D401319FEDC67A6F
:10080000699819441EAA002BA4BF50F8234007EE94
:10081000904A03F10103ACBFF8EEE77AF0EE477AB5
:100820008B42E2EC017AEED1049B002D4FEA830C5F
:100830004FEA850A1DDB1EAB03EB0C0447AB09EB4B
:100840000C0103EB0A0646A8B8F1000FDFEDB27AFF
:1008500009DB22464B46F3EC016A32ED017A8B420A
:10086000E6EE877AF7D1E0EC017AB04204F10404B5
:10087000EAD1AAF108030AAFFB180593AB4609AB0E
:1008800001959FEDA79ADFEDA58A069D09EB0C0463
:100890009A4446AE4FEA8B015AAB0B44BBF1000FB2
:1008A00013ED140A16DD06EB8B033A4660EE097A67
:1008B000B0EE407AFDEEE77A73ED016AF8EEE77A82
:1008C000B342A7EEE87A37EEA60ABDEEC77AA2ECED
:1008D000017AEBD12846029100F030FBB0EE408A5D
:1008E000B4EE000A28EE000A00F0E4FAF2EE007A14
:1008F000A0EE678A002D0299FDEEC89AF8EEE97A1B
:1009000038EE678A75DD0BF1FF3CC5F1080357F837
:100910002C2042FA03F000FA03F3D31A47F82C30E4
:10092000C5F1070219EE90CA43FA02F28444002A84
:1009300009EE90CA66DCB5EE408AF1EE10FA40F09E
:10094000A380019B0BF1FF3C63450EDC0BF1804162
:10095000013907EB8101002051F80439514540EA83
:100960000300F9D1002840F0EE80019B013B57F8CD
:100970002330002B40F0E280059B012053F804292E
:100980000130002AFAD00BF1010358449C46039A27
:1009900003EB020E049A1EA95A440EF1804E01EB9D
:1009A000820269990EF1FF3E01EB8E0E06EB830B7E
:1009B0005EF8043F9FED587A07EE903AF8EEE77A3A
:1009C0001146B8F1000FE1EC017A09DB4B4601E07A
:1009D00072ED017AF3EC016AA342A6EEA77AF7D191
:1009E0000CF1010C8445ABEC017A0A46E0DD83464C
:1009F00050E740F099800BF1FF3357F82320121293
:100A0000002A98DD19EE903ABBF1000F03F10103C3
:100A100009EE903A40F3C4813868002861D1BBF1F7
:100A2000010F0BD0BE464FF0010C5EF8040F0CF125
:100A30000103002858D19B459C46F6D1002D0CDDC2
:100A4000012D00F01581022D07D10BF1FF3157F870
:100A5000213003F03F0347F82130022A7FF46BAFC7
:100A6000B7EE000A30EE488A00283FF464AF28460B
:100A7000029200F063FA38EE408A029AB5EE408A9C
:100A8000F1EE10FA3FF45DAF9046DDE90832B0EECA
:100A9000480A981A019D00F051FA9FED207AB4EEB1
:100AA000C70AF1EE10FAC0F27D81DFED1D7A069BD8
:100AB00060EE277A0833FDEEE77A0693F8EEE77AE0
:100AC0000BF10103A7EEC70AFDEEE77ABDEEC00AFF
:100AD00010EE102A47F82B2017EE902A47F8232013
:100AE00046E001234FF0000CC0F580709B4547F8AD
:100AF0002C000CDD57F82300394407EB830300E09A
:100B00001868C0F1FF0043F8040B8B42F8D10120B4
:100B100094E700BF74080108000000000000804353
:100B20000000803B0000C93FF6EE007AB4EEE78A91
:100B3000F1EE10FA80F2AA800022FCE60BF101032C
:100B40009C46184623E70699019D904657F82C20AD
:100B50000839634606915AB90BF18042023A07EB15
:100B6000820252F80409013B08390028F9D00691A5
:100B700006980193B7EE000A00F0E0F9019B002B04
:100B8000C0F22F819E0046AA06F1040C1FED1C7ACC
:100B90001644311D07EB0C0272ED017AF8EEE77A8C
:100BA000BA4267EE807A20EE070A61ED017AF3D14E
:100BB0000DF1C80E002D77464FF000041FED276A97
:100BC0001DDB9248DFED927A3146B0EE467A002284
:100BD00003E0A24208DCB0EC017AF1EC016A0132D8
:100BE0009542E6EE877AF4DA9C42E7EC017AA6F1C8
:100BF000040604F101020CD0002D1446E1DADFED09
:100C0000847A9C42E7EC017AA6F1040604F1010221
:100C1000F2D1689A032A22D8DFE802F0B19F9F4AF6
:100C2000DFED7B7A9DED327A424637EE677A002A15
:100C300040F0C080079A002BC2ED007A0CDD33A98A
:100C40000122F1EC017A0132934237EE277AF8DA89
:100C500043460BB1B1EE477A079B83ED017A19EE5B
:100C6000903A03F007005BB0BDEC048BBDE8F08F59
:100C70000BF1FF3157F8213003F07F0347F82130A3
:100C8000EBE60823089300230393ACE519EE903AB2
:100C9000BBF1000F03F1010309EE903AC8BF022235
:100CA0003FF7BAAEF7EE007A37EEC88A022242E684
:100CB000002B40F3A88099005AAA0A440DF1C80EEF
:100CC00052ED286A0EEB830272ED017A37EEA67AB6
:100CD000964577EEC77A82ED007A77EEA67AF0EE47
:100CE000476AC2ED017AEFD1012B40F38C8003F10A
:100CF0008043013B5AAA9B0011441A1D51ED286AFA
:100D0000724433A972ED017A37EEA67A914277EEFA
:100D1000C77A82ED007A77EEA67AF0EE476AC2EDE6
:100D2000017AEFD10833DFED3A7A73440EF1080E01
:100D300033ED017A9E4577EE877AF9D14346DDEDB2
:100D4000326A9DED337A002B3DD1079BC3ED006ADB
:100D500083ED017AC3ED027A81E7DFED2D7AF44469
:100D60003CED017AE64577EE877AF9D19DED327A4E
:100D7000424637EE677A002A3FF45CAF1AE0DFEDB7
:100D8000247AF4443CED017AE64577EE877AF9D18E
:100D900043460BB1F1EE677A079BC3ED007A5EE73D
:100DA00000204BE6BDEEC00A5B4610EE102A47F865
:100DB0002B20DDE6079AF1EE677A002BC2ED007A70
:100DC0003FF73DAF46E7079BF1EE666AB1EE477A23
:100DD000F1EE677AC3ED006A83ED017AC3ED027A22
:100DE0003DE7689A032A3FF63AAF01A151F822F095
:100DF000010E0008210C0008210C0008B10C0008AD
:100E0000DFED037AC4E7DFED027A97E78408010893
:100E10000000000010EE103A23F00043B3F1485FE9
:100E200004DAFDEEC07A17EE903A5BB360EE007A1A
:100E30009FED155ADFED155A9FED156ADFED156A26
:100E40009FED157AE7EE855A20EE275AA5EEA76AA0
:100E5000E6EE276AA6EEA77A30B9DFED106AE7EE74
:100E6000876AA6EE850A704727EE457AF6EE006A95
:100E7000A0EEA67ADFED0A6AD7EE270AE5EE260A8B
:100E800030EE600A704700BFD3C92E2F342FD7B27F
:100E90001BEF3836010D50B98988083CABAA2ABE31
:100EA000ABAA2A3E10EE103A23F0004300EE103AAF
:100EB000704700BF10EE102A22F00041CB0D7F3B9F
:100EC000162B28DC002B18DB194919410A4221D0C6
:100ED000DFED187A70EE277AF5EEC07AF1EE10FAAF
:100EE00018DD002A04DA4FF4000040FA03F31A4434
:100EF00022EA010300EE103A7047DFED0E7A70EE41
:100F0000277AF5EEC07AF1EE10FA03DD002A08DB4D
:100F10009FED090A7047B1F1FF4FFBD330EE000A95
:100F200070470029FFEE007A18BFB0EE670A7047DD
:100F3000FFFF7F00CAF249710000000082B08DED12
:100F4000010A019B33F000422AD0B2F1FF4F23D2B5
:100F500013F0FF4F28D19DED017ADFED2A7A2A4B5D
:100F600067EE277A9842CDED017A37DB019BC3F318
:100F7000C752193A0244FE2A1ADD9FED240A9FED5A
:100F8000247A019B002BF0EE407AB8BFB0EE470AFE
:100F900020EE270A02B0704730EE000A02B0704718
:100FA0009DED010A02B07047D20D0244FE2AE4DC36
:100FB000002A0BDC12F1160F17DA4CF2503398426C
:100FC000DBDC9FED140A9FED147ADAE723F0FF4390
:100FD00043EAC25300EE103A02B070479FED0D0A8B
:100FE000DDED017A27EE800AD8E7193223F0FF43BE
:100FF00043EAC253DFED097A07EE103A27EE270ADB
:10100000CCE700BF0000004CB03CFFFFCAF24971C2
:10101000CAF249F16042A20D6042A28D0000003385
:10102000014B1868704700BF04400020F0B48607E9
:1010300046D0541E002A3CD0CAB2034602E014F146
:10104000FF3436D303F8012B9D07F8D1032C29D99F
:10105000CDB245EA05250F2C45EA054533D9A4F163
:101060001006360903F1200707EB061703F11002FB
:1010700042E9045542E902551032BA42F8D1721CD5
:1010800014F00C0F03EB021204F00F0613D0331F01
:1010900023F003030433134442F8045B9342FBD16F
:1010A00006F003042CB1C9B21C4403F8011B9C4296
:1010B000FBD1F0BC704734461346002CF3D1F8E75F
:1010C00014460346C2E71A462646E0E738B5124BF7
:1010D0001C68A26B05461AB10023C2E9045338BD4F
:1010E000182006F07DFB0246A06378B101200021A4
:1010F0000A4B1360C2E904010B2309480949938193
:101100000023C2E90101C2E9045338BD064B074878
:10111000422100F055F800BF044000200E33CDAB53
:1011200034126DE6ECDE0500440901085C09010893
:1011300038B51A4B1C68A26B92B1146918495369EF
:10114000184801FB04F100FB0313A4FB0045611CDC
:101150001D4445F1000323F00040C2E9041338BDEB
:10116000182006F03DFB0246A06388B10120002153
:10117000C2E904010A480C4C0C4B0D490D4D14609A
:1011800053600B24034695609481C2E9041338BD73
:10119000094B0A484E2100F013F800BF044000201C
:1011A0002DF451582D7F954C0E33CDAB34126DE696
:1011B0002E7F954CECDE0500440901085C0901080E
:1011C00000B50A4C2668054685B01C46F06852B149
:1011D000074B0091CDE9013206492B46224600F02B
:1011E00021F800F0A7FC044B1A46F2E70440002067
:1011F00090090108A00901089C09010808B51346D7
:101200000022FFF7DDFF00BF0CB400B583B004ABD4
:1012100053F8042B019300F05DF803B05DF804EB84
:1012200002B070470EB410B583B005AB064C53F84E
:10123000042B01930146206800F04CF803B0BDE890
:10124000104003B0704700BF044000209368013B8A
:10125000002B936011DA10B49469A34209DB0A29C8
:1012600007D01368581C1060197008465DF8044BCD
:1012700070475DF8044B00F07DBB1368581C10608C
:1012800019700846704700BF9BB1F8B513440F466C
:1012900006465D1E541E01E0AC4208D03A4614F8E2
:1012A000011F3046FFF7D2FF431CF5D1F8BD0020E7
:1012B000F8BD0020704700BF936810B5144613B9FD
:1012C0005360184610BD00F01DFE0023C4E9013331
:1012D00010BD00BF2DE9F04F9FB08B4690461C46D5
:1012E000039018B18369002B00F0B780A24B9B4597
:1012F00000F0B980A14B9B4500F0C780A04B9B45F7
:1013000004BF039BD3F80CB0BBF80C30180740F1B6
:10131000B280DBF81030002B00F0AD8030238DF868
:10132000323098F800300594002120220B918DF87E
:101330003120944E0127002B00F08780252B00F0F0
:101340001581454603E0252B00F0A38025466B78E8
:101350006C1C002BF7D1B4EB080A76D042465346FA
:1013600059460398FFF790FF01306ED00B9B6A78C7
:1013700053440B93002A68D000234FF0FF3201340E
:101380000693CDE908338DF85B301C93079205E096
:10139000069A07FA03F313432C46069325460522C3
:1013A00015F8011B304600F0FBFFAA46831B0028FE
:1013B000EED1069BD90644BF20228DF85B20217810
:1013C0001A0744BF2B228DF85B202A2966D1059A83
:1013D0001168043200290592C0F29D80099161785C
:1013E000A51C2E2973D0684C0322204600F0D8FF9C
:1013F000002800F08680001B069B402404FA00F0C1
:101400000343069305F10108297860488DF83010F0
:10141000062200F0C5FF002800F083805C4B002B03
:1014200072D005AB00935A465A4B039806A9AFF306
:1014300000808146B9F1FF3F07D00B9B4B440B93D3
:1014400098F80030002B7FF479AFBBF80C305B06C6
:1014500018D40B981FB0BDE8F08F00F033FD464B59
:101460009B457FF447AF039BD3F804B0BBF80C3027
:1014700018073FF54EAF5946039800F0DBFA0028F5
:101480003FF44CAF4FF0FF30E4E7039BD3F808B0D4
:101490003AE7B4EB080A3FF46FAF5FE7A1F130021F
:1014A000092A88BFA2469CD8099B01E02C46013539
:1014B000297803EB830302EB4303A1F13002092AED
:1014C000AA46F3D92E2904F1020509938BD19AF883
:1014D00001102A292FD1059B9AF802101A68079249
:1014E0000433002A05930AF103050AF1020338DBED
:1014F000254C032220469A4600F052FF00287FF434
:101500007AAFA84655467FE7059B073323F00703CC
:101510000833059391E7494243F00203099106938A
:101520005DE705AB00935A461A4B039806A900F0F5
:10153000D5F881467EE7A1F130020023092A0793FE
:1015400001D915E05546697803EB830302EB4303A9
:10155000A1F13002092A05F1010AF3D902350793F6
:1015600041E74FF0FF329A4607923CE7444603E7D3
:10157000AA46013537E700BFF0080108D008010886
:10158000B0080108D0090108D8090108DC090108E0
:10159000000000008912000810B4044C13460A46EB
:1015A000014620685DF8044BFFF794BE044000201C
:1015B0002DE9F0470C4691460A698968DDF82080DC
:1015C0008A42B8BF0A46C9F8002094F8431006467C
:1015D0001F4611B10132C9F80020236899065CD575
:1015E000D9F800200232C9F80020236813F0060F52
:1015F00019461DD1E1688A1A002AD8BF194617DD9D
:1016000004F1190A002505E0E368D9F800209B1AC7
:10161000AB420CDD0123524639463046C04701300B
:1016200005F10105F0D14FF0FF30BDE8F0872168EA
:1016300094F84330003318BF01238A060AD5E11815
:101640005A1C302081F84300224494F8451082F857
:101650004310023304F1430239463046C04701309B
:10166000E1D02368A268216903F00603042B1DD092
:101670008A4226DD4FF00009521A91441A3400259F
:1016800001E04D451DDA0123224639463046C04768
:10169000013005F10105F4D1C5E713F0060F13D0B1
:1016A00094F84330003318BF0123D3E7D9F8000082
:1016B000E3688A42A3EB000323EAE379DCDC002B36
:1016C000DCDC0020BDE8F087E168D9F800208A1A48
:1016D000002AD8BF194693DCAAE700BF2DE9F043E2
:1016E0000C46097E85B06E29064617460C9898462A
:1016F00004F1430E6DD039D9732900F0F68044D936
:10170000752900F00481782940F01181782322683E
:10171000DFF858C284F845300168150651F8043BDB
:10172000016040F1A180D10744BF42F02002226055
:10173000002B00F093801022002184F84310606891
:10174000A0600028C0F2C880216821F00401216057
:10175000002B40F0A380002840F0C0807546082A86
:1017600000F0AC80AEEB0503236141E0632900F09B
:10177000E5801AD8002938D0582940F0D88084F85C
:1017800045102268DFF8E8C1C6E76F2900F0BF8086
:10179000702940F0CC802268DFF8D0C142F02002EE
:1017A0007823226084F84530B6E7642902D069299D
:1017B00040F0BD8022680368110603F1040557D587
:1017C000196805600B46002959DBDFF8A4C10A221D
:1017D000B5E70368226861691D1D056015061B6871
:1017E00002D4500600F1BD801960002375462361C4
:1017F000CDF800803B4603AA21463046FFF7D8FECD
:10180000013020D02A46236939463046C04701308E
:1018100019D022680398E368920719D51A1A002A8A
:1018200016DD04F11909002504E0E36803981A1A8B
:10183000AA420DDD01234A4639463046C0470130F1
:1018400005F10105F1D14FF0FF3005B0BDE8F0839F
:101850009842B8BF184605B0BDE8F083226822F070
:1018600020022260102267E7500648BF9BB25AE769
:101870005106A5D5B3F9003005601946A3E76168A4
:10188000A1602D200029C3F1000384F8430002DB8E
:1018900022F004022260DFF8D8C00A22754600E078
:1018A0000B46B3FBF2F102FB113093421CF800002F
:1018B00005F8010DF4D2082A7FF454AF2368DB0742
:1018C0007FF550AF626823699A423FF74BAF3023F0
:1018D00005F8013C013D45E7002BDFD19CF80030C5
:1018E00084F8423004F1420539E703686268191D43
:1018F00001601D680021284600F052FD002832D00A
:10190000401B60602061002384F8433070E7226848
:10191000036812F0800F03F104051AD01B680560FC
:101920006F290CBF08220A22DFF844C004E7012314
:1019300084F84210236104F14205E4E703681A6861
:10194000191D0123016004F1420584F8422023613E
:10195000D9E712F0400F0DBF1B6805601B880560BA
:10196000DEE7198041E76068CCE700BFF8090108AD
:10197000E4090108F8B50D461446064608B1836926
:1019800043B3254B9C422AD0244B9C4229D0244B64
:101990009C4208BFF468A389A269A2601A0722D5F5
:1019A000236903B322686169D31AEDB299422F46C5
:1019B00029DD0133A168501C0139A1602060157038
:1019C00062699A4216D0A389DB0701D50A2D11D08E
:1019D0003846F8BD00F076FA0F4B9C42D4D17468BB
:1019E000D9E7B468D7E72146304600F023F838B984
:1019F0002369D7E72146304600F03AF90028E7D0BE
:101A00004FF0FF37E4E72146304600F031F9002877
:101A1000F6D122680123CDE7F0080108D0080108BB
:101A2000B0080108024B0A4601461868FFF7A2BF3A
:101A3000044000203B4B70B51D6806460C460DB1B6
:101A4000AB69DBB1384B9C421ED0384B9C424AD02C
:101A5000374B9C4208BFEC68B4F90C2093B21907CD
:101A600018D5206908B313F001022CD06369002255
:101A70005B42A361A26060B3002070BD284600F005
:101A800021FA294B9C42E0D16C68B4F90C2093B246
:101A90001907E6D4DD063CD5580726D4206942F064
:101AA0000803A3819BB20028DDD103F42072B2F5B4
:101AB000007FD8D03046214600F026FCA38920695B
:101AC00013F00102D2D1990758BF6269A2600028C1
:101AD000D2D1B4F90C301A06CFD543F04003A3811C
:101AE0004FF0FF3070BDAC68B6E7616B51B104F1E7
:101AF0004403994204D0304600F0A4FDB4F90C2010
:101B00000023636300232069636022F024022060C5
:101B1000C5E742F04002092333604FF0FF30A28155
:101B200070BD00BF04400020F0080108D008010883
:101B3000B008010808B5062000F0FCFE012001F005
:101B4000EDF800BF8B891A072DE9F0410C4680465D
:101B500041D44A68002A59DDE66A002E53D000229B
:101B6000D8F80050216AC8F8002013F4805251D1EF
:101B700001234046B047431C5FD0A389E66A216A2F
:101B80005F0705D56268636B801A0BB1236CC01ABE
:101B9000024600234046B047461C45D1D8F80030E5
:101BA000B4F90C20002B55D01D2B01D0162B5AD187
:101BB00023690022C4E90032616BC8F8005011B3F8
:101BC00004F14403994202D0404600F03BFD00205E
:101BD0006063BDE8F0810E69AEB10D680E609907D3
:101BE0000CBF63690023AD1BA3600AE02B4632469D
:101BF000A76A216A4046B8470028A5EB00050644BD
:101C00000ADD002DF2DC0020BDE8F0810A6C002A1C
:101C1000A2DCF8E7606DB3E7A38943F04003A3813A
:101C20004FF0FF30BDE8F0812269A38922600022D5
:101C30006260DA04C0D56065BEE7D8F80030002BDA
:101C40009BD01D2B0CD0162B0AD0A38943F0400348
:101C5000A381D9E72169C4E90013D304ACD5EAE72D
:101C6000C8F80050CFE742F04002A281CCE700BFA5
:101C70000B6923B310B5044682B008B18369BBB1C8
:101C8000104B994212D0104B994216D00F4B9942EB
:101C900008BFE168B1F90C302BB1204602B0BDE8B5
:101CA0001040FFF74FBF002002B010BD6168F1E7A0
:101CB000019100F007F90199E2E7A168EAE7002045
:101CC000704700BFF0080108D0080108B0080108FB
:101CD00020B1054B01461868FFF7CABF034B044902
:101CE000186800F0B9BA00BF04400020AC08010831
:101CF000711C000800207047014900F0ADBA00BF18
:101D0000711C00080020704770B54A1E682505FB4D
:101D100002F50E4605F1740100F0EAFC044640B1FC
:101D200000210C30666005F168022160A060FFF7B9
:101D30007DF9204670BD00BF1E4B70B51D68AB69B4
:101D4000064643B34835D5E90134013B05D51EE0CD
:101D5000013B5A1C04F1680419D0B4F90C20002A84
:101D6000F6D10025144B6566C4E90055A560C4E9A9
:101D70000455A5612946E360082204F15C00FFF7E1
:101D800055F9C4E90D55C4E91255204670BD2C68BB
:101D90002CB12546D7E7284600F010F8D2E70421F9
:101DA0003046FFF7B1FF044628600028F1D10C232C
:101DB0003360EAE7AC0801080100FFFF2DE9F84FA6
:101DC000334B34491A68816290424FF00003C0E9F6
:101DD0001233036504BF012383610546FFF7ACFF9F
:101DE00068602846FFF7A8FFA8602846FFF7A4FF11
:101DF0006E68E86000240423F3607466C6E900445A
:101E0000B460C6E90444B461214606F15C000822CE
:101E1000FFF70CF9DFF888B0AF68DFF888A0DFF8CB
:101E20008890DFF888801C4BC6F83080C6E9086BC4
:101E3000C6E90AA92146FB6008227C66C7E900447E
:101E4000BC60C7E90444BC6107F15C00FFF7EEF831
:101E5000EE68124BC7F83080C7E9087BC7E90AA9CA
:101E60002146F3607466C6E90044B460C6E90444E0
:101E7000B46106F15C000822FFF7D8F80123C6E937
:101E8000086BC6E90AA9C6F83080AB61BDE8F88FD7
:101E9000AC080108F91C000809000100120002004A
:101EA000A5290008CD2900080D2A00082D2A0008C0
:101EB000024B0349186800F0CFB900BFAC08010815
:101EC000711C0008836903B978E77047704700BF49
:101ED000704700BF704700BF704700BF024B034907
:101EE000186800F093B900BF04400020F51C0008FA
:101EF000024B0349186800F089B900BF0440002074
:101F0000051D00089368002B00F002812DE9F04FB9
:101F1000B1F90C309BB20C46190783B0824690464B
:101F200035D522699AB313F00202D8F800603DD08B
:101F30000027D4F828B0D4F820C0DFF8CC923D4672
:101F40004D452B463A4628BF4B4661465046D5B1D3
:101F5000D847002840F3D280D8F808301B1A07442D
:101F60002D1AC8F80830002B00F0B780D4F820C034
:101F7000D4F828B04D452B463A4628BF4B4661461B
:101F80005046002DE4D1D6E900750836D8E7214641
:101F90005046FFF74FFD002840F03081B4F90C3077
:101FA000D8F800609BB213F00202C1D113F001090E
:101FB00040F0B080A76820684D46002D54D09A05A7
:101FC00040F1BC80AF42BB4600F2E78013F4906F53
:101FD0002FD0D4E9041707EB4707A0EB010B07EB61
:101FE000D777681C7F105844B8423A4684BF0746EA
:101FF0003A465B0540F1E9801146504600F078FB17
:10200000002800F0F5805A462169019000F018FA86
:10201000A289019B22F4906242F08002A281A7EB88
:102020000B0203EB0B00676123612060A2602F4667
:10203000AB465A46494600F09DFAA2682368D21B77
:102040005B442F46A26023600025D8F80830DB1BD4
:10205000B944C8F80830002B3FD0B4F90C30A76859
:1020600020689BB2002DAAD1D6E900950836A4E7D6
:102070000BF1080353E902679B460833002FF9D0A0
:102080003A460A21304600F08BF9002853D001303F
:10209000A0EB06094B46D4E904122068BB4228BFD6
:1020A0003B46884203D9A5681544AB4219DC9A42E5
:1020B0007DDC1346A56A216A32465046A847051EB4
:1020C0001CDDB9EB05096BD00120D8F808305B1B8B
:1020D0002E447F1BC8F8083013BB002003B0BDE8B6
:1020E000F08F31462A4600F045FA23682B442360DE
:1020F00021465046FFF7BCFD0028E2D0B4F90C3071
:1021000043F040034FF0FF30A38103B0BDE8F08FF0
:102110000020704733469146104617464E469B4670
:10212000002FA5D00028B5D13A460A21304600F04C
:1021300037F90028ABD17B1C9946ACE72369834271
:1021400015D36169A94212D82E4BA76A9D4294BF4C
:102150002B466FF000434A4693FBF1F3504601FBD8
:1021600003F3216AB847071EC8DDED1B6DE7AF42D8
:1021700028BF2F463A46494600F0FCF9A36822687A
:10218000DB1B3A44A3602260002BEED1214650466F
:10219000FFF76EFD0028E8D0B0E72F46AB4648E7D2
:1021A00021465046FFF764FD00288ED0A6E71A4668
:1021B0003146019300F0DEF9019BA1682268C91A3B
:1021C0001A44A16022601D467BE7504600F0F4FAF5
:1021D000034600287FF423AF2169504600F032FA0D
:1021E000B4F90C300C2223F08003CAF8002087E7F2
:1021F0000C23CAF80030B4F90C3081E74FF0FF30FF
:102200006CE700BFFEFFFF7F00FCFF7F2DE9F04180
:1022100010F148071BD088460026D7E90154013D3C
:102220000FD4A389012B05F1FF3506D9B4F90E307F
:102230000133204601D0C04706436B1C04F16804FB
:10224000EFD13F68002FE8D13046BDE8F0813E462F
:102250003046BDE8F08100BF2DE9F84310F1480792
:102260001FD0884606464FF00009D7E90154013DCA
:1022700011D4A389012B05F1FF3508D9B4F90E302B
:1022800001332146304602D0C04749EA00096B1CA1
:1022900004F16804EDD13F68002FE6D14846BDE85F
:1022A000F883B9464846BDE8F88300BF70B50C46D0
:1022B000B1F90E10002996B016461D4613DB6A468A
:1022C00000F0E0FB00280EDB019A02F47042A2F558
:1022D0000052B2FA82F252094FF4806300202A6061
:1022E000336016B070BDA38900221B062A6004D596
:1022F00040230020336016B070BD4FF4806300208F
:10230000336016B070BD00BF8A8992070B4606D5B0
:1023100001F1470201211A60C3E90421704770B539
:1023200082B001AB6A460C460646FFF7BFFF009934
:102330000546304600F0DCF9B4F90C3070B11649AE
:10234000B162019A0099206043F08003A381C4E93F
:1023500004018AB92B43A38102B070BD9A05FBD456
:1023600023F0030304F1470243F002030121A38198
:102370002260C4E90421EFE73046B4F90E1000F002
:1023800095FB10B9B4F90C30E4E7A38923F00303FB
:1023900043F001031BB2DDE7F91C00080000000058
:1023A00001F0FF01102A2BDB10F0070F08D010F806
:1023B000013B013A8B422DD010F0070F42B3F6D10A
:1023C000F0B441EA012141EA014122F007047FF023
:1023D00000070023F0E80256083C85EA010586EA7A
:1023E000010685FA47F5A3FA87F586FA47F6A5FAB6
:1023F00087F68EB9EED1F0BC01F0FF0102F00702C2
:1024000032B110F8013B013A83EA010313B1F8D16C
:102410000020704701387047002D06BF354603384D
:10242000073815F0010F07D1013015F4807F02BF86
:10243000013015F4C03F0130F0BC0138704700BFD7
:10244000844641EA000313F003036DD1403A41D3BF
:1024500051F8043B40F8043B51F8043B40F8043B7E
:1024600051F8043B40F8043B51F8043B40F8043B6E
:1024700051F8043B40F8043B51F8043B40F8043B5E
:1024800051F8043B40F8043B51F8043B40F8043B4E
:1024900051F8043B40F8043B51F8043B40F8043B3E
:1024A00051F8043B40F8043B51F8043B40F8043B2E
:1024B00051F8043B40F8043B51F8043B40F8043B1E
:1024C00051F8043B40F8043B51F8043B40F8043B0E
:1024D000403ABDD2303211D351F8043B40F8043BAE
:1024E00051F8043B40F8043B51F8043B40F8043BEE
:1024F00051F8043B40F8043B103AEDD20C3205D3BE
:1025000051F8043B40F8043B043AF9D2043208D0B5
:10251000D2071CBF11F8013B00F8013B01D30B8827
:1025200003806046704700BF082A13D38B078DD005
:1025300010F003038AD0C3F10403D21ADB071CBFD7
:1025400011F8013B00F8013B80D331F8023B20F841
:10255000023B7BE7043AD9D3013A11F8013B00F87A
:10256000013BF9D20B7803704B7843708B78837002
:10257000604670478842F0B40DD98B1883420AD95F
:10258000841832B1224613F8014D02F8014D9942E8
:10259000F9D1F0BC70470F2A0ED80346541E002A0A
:1025A000F7D001340C44013B11F8012B03F8012F43
:1025B000A142F9D1F0BC704740EA01039B073BD12F
:1025C000A2F110073F0901F1200606EB071601F101
:1025D000100300F1100453F8105C44F8105C53F839
:1025E0000C5C44F80C5C53F8085C44F8085C53F845
:1025F000045C44F8045C1033B34204F11004EAD1E3
:102600007B1C1B0112F00C0F194402F00F05034450
:1026100015D0043DAD0803EB850C1C1F0E4656F883
:10262000047B44F8047F6445F9D10135AD002B44A7
:10263000294402F00302B1E7541E0346B1E72A46DB
:10264000ACE700BF00293CD038B551F8043C0C1F62
:10265000002BB8BFE418054600F050FA234B1A6867
:102660002AB1A2420DD921686018824223D062604B
:1026700028461C60BDE8384000F042BAA34203D8A7
:102680001A465368002BF9D111685018A04219D08E
:1026900024D821686018834206D0636054602846BD
:1026A000BDE8384000F02CBAD3E900030144636070
:1026B00021605460F3E7D2E90002014462602160C6
:1026C000D6E7704720680144501883421160E6D174
:1026D000D3E90003014453601160E0E70C232B6051
:1026E0002846BDE8384000F00BBA00BF00000024C7
:1026F000F8B5CD1C25F0030508350C2D38BF0C2589
:10270000002D064633DBA94231D82A4F00F0F6F9F6
:102710003A6852B113685B1B04D43FE023685B1B2B
:1027200029D522465468002CF8D1796800293BD07D
:102730002946304600F066F8431C28D0C41C24F01B
:102740000304A04205D0211A304600F05BF80130A6
:102750001DD02560304600F0D3F904F10B0020F0C5
:102760000700231DC21A01D01B1AA350F8BD0C226A
:1027700032600020F8BD0B2B05D8A242636811D04F
:102780005360E7E7144623601C442560E2E70C230E
:102790003046336000F0B4F90020F8BD0B2BF1D8BF
:1027A000536814463B60D5E7304600F02BF878605C
:1027B000BEE700BF0000002409B3F8B51446CAB153
:1027C00006460D4600F09EF9A04202D32F46384639
:1027D000F8BD21463046FFF78BFF07460028F6D0AC
:1027E00022462946FFF72CFE30462946FFF72AFFEE
:1027F0003846F8BD2746FFF725FF3846F8BD114695
:10280000FFF776BF38B5074C00230546084623601E
:1028100004F00EFF431C00D038BD2368002BFBD012
:102820002B6038BD1C09002410B580210446FFF739
:102830005FFF606440B1031F00227C3043F8042F27
:102840008342FBD1002010BD4FF0FF3010BD00BF10
:10285000436C0BB100207047E6E700BF1F2970B53D
:10286000054608D8436C16460C464BB153F8240075
:1028700043F8246070BD162202604FF0FF3070BD37
:10288000FFF7D2FF08B96B6CF0E74FF0FF3070BD77
:102890001F2938B521D8426C05460C466AB152F85A
:1028A000213053B1012B16D0591C10D000252046E1
:1028B00042F824509847284638BD284600F070F862
:1028C000224601462846BDE8384000F055B8162398
:1028D0000360012038BD002038BD162303604FF08F
:1028E000FF3038BD1F2921D838B5436C05460C464A
:1028F00083B153F8242003EB84034AB1511C10D058
:10290000012A0CD0002520461D609047284638BD7E
:10291000012038BDFFF788FF28B96B6CE9E7032079
:1029200038BD022038BD4FF0FF3038BD4FF0FF30CA
:10293000704700BF024B01461868FFF7A9BF00BFF0
:1029400004400020024B0A4601461868FFF786BF84
:1029500004400020034B1868436C0BB10020704703
:1029600062E700BF04400020024B01461868FFF7F1
:10297000B9BF00BF0440002038B50B46074C0546E0
:10298000114618460023236000F0FAF8431C00D0DB
:1029900038BD2368002BFBD02B6038BD1C090024F8
:1029A00000F0DEB810B50C46B1F90E1000F0B2F828
:1029B000002803DB636D0344636510BDA38923F422
:1029C0008053A38110BD00BF002070472DE9F04166
:1029D0001646B1F90C201F46D3050C460546B1F941
:1029E0000E1009D422F48052A2813B46324628467A
:1029F000BDE8F04100F01EB80022022300F068F8A4
:102A0000B4F90C20B4F90E10ECE700BF10B50C4679
:102A1000B1F90E1000F05CF8A389421C0EBF23F43C
:102A2000805343F480536065A38110BDB1F90E104B
:102A300000F016B870B50D46084C114606461A4609
:102A400028460023236000F0B3F8431C00D070BD7B
:102A50002368002BFBD0336070BD00BF1C0900242D
:102A600038B5074C002305460846236000F068F897
:102A7000431C00D038BD2368002BFBD02B6038BD31
:102A80001C09002438B50B46074C0546114618466C
:102A90000023236000F05CF8431C00D038BD23689D
:102AA000002BFBD02B6038BD1C09002438B5074C27
:102AB000002305460846236000F05AF8431C00D066
:102AC00038BD2368002BFBD02B6038BD1C090024C7
:102AD00070B50D46084C114606461A462846002396
:102AE000236000F055F8431C00D070BD2368002B14
:102AF000FBD0336070BD00BF1C090024704700BFCD
:102B0000704700BF51F8043C181F002BBCBF0B5886
:102B1000C018704770B50D46084C114606461A4657
:102B200028460023236000F03BF8431C00D070BD12
:102B30002368002BFBD0336070BD00BF1C0900244C
:102B4000024B58221A604FF0FF3070471C090024D6
:102B5000024B58221A604FF0FF3070471C090024C6
:102B6000024B58221A604FF0FF3070471C090024B6
:102B7000024B58221A600020704700BF1C09002435
:102B8000024B58221A604FF0FF3070471C09002496
:102B9000024B58221A604FF0FF3070471C09002486
:102BA000024B58221A604FF0FF3070471C09002476
:102BB000024B58221A604FF0FF3070471C09002466
:102BC00080B582B000AF78607B6800221A707868A8
:102BD00000F07CF87B6818460837BD4680BD0000D1
:102BE00080B485B000AF786042F21073FB600B4B8D
:102BF0005B690A4A83F400735361FB685A1EFA60EA
:102C0000002B14BF01230023DBB2002B00D0F4E71C
:102C100000BF1437BD465DF8047B704700040258BE
:102C200080B584B000AF786039603B68002B20D05D
:102C3000124A3B68B2FBF3F3FB60114B1B680022A6
:102C4000DA600F4B1B68DB68312B13D8786800F013
:102C500019F80B4B1B68F968184600F06BFB786895
:102C600000F022F8064B1B68F968184600F062FB7A
:102C7000E7E700BF1037BD4680BD00BF20A10700B9
:102C80001000002480B483B000AF7860054B9B69CE
:102C9000044A43F40073936100BF0C37BD465DF8EE
:102CA000047B70470004025880B483B000AF7860A2
:102CB000054B9B69044A43F00073936100BF0C37D6
:102CC000BD465DF8047B70470004025880B483B0B1
:102CD00000AF78600F4BD3F8E0300E4A43F00203A8
:102CE000C2F8E0300C4B1B680B4A43F4802313609E
:102CF000094B1B68084A23F400231360064B9B68AA
:102D0000054A43F44023936000BF0C37BD465DF88D
:102D1000047B7047004402580004025880B483B01A
:102D200000AF7860FEE780B400AF00BFBD465DF83D
:102D3000047B704780B5ADF6281D04AF974B002289
:102D40001A70974B00221A80964BD3F8DC30954AC4
:102D500043F00053C2F8DC30052004F041FD034687
:102D6000C7F808390023C7F81439D7F81439042BE9
:102D70000CDCD7F81439D7F80829134411221A703B
:102D8000D7F814390133C7F81439EEE7864BD3F876
:102D90008830854A43F47003C2F888300023C7F8AE
:102DA0001039D7F81009FEF791F9804B00221A70FC
:102DB00007F510631846FFF703FF07F50F630122BD
:102DC0000221184600F088FA07F50E63002203215D
:102DD000184600F081FA07F50D6301220421184618
:102DE00000F07AFA07F50C63184600F003FC62B6AF
:102DF00004F0D2FD00F0DEF807F66C03184600F090
:102E00004BFF0AF023F907F50463184602F08AFC29
:102E100007F61403184604F0CBF907F10C03184623
:102E200000F022FF3B46624A07CA03C31A80002310
:102E3000C7F80439594B1B78002B0BD0574B002295
:102E40001A70574B1B881A4607F51063114618462F
:102E5000FFF7E6FED7F810390133C7F8103997F8B5
:102E6000C138002B37D0B7F8C638002B06D0B7F8DA
:102E7000C638013B9BB2A7F8C63803E04FF4B473E1
:102E8000A7F8C638B7F8C63805339BB207F6140062
:102E90004FF6E072039228220292052201920093DB
:102EA0009623F0224FF4C87104F008FBB7F8C63837
:102EB00007F614004FF4784203922822029205226A
:102EC000019200939623F0224FF4C87104F0F6FAB1
:102ED000002387F8C13897F8C238002B37D0B7F8ED
:102EE000C638B3F5B47F06D0B7F8C63801339BB205
:102EF000A7F8C63802E00023A7F8C638B7F8C638E6
:102F000007F614004FF6E07203922822029205227F
:102F1000019200939623F0224FF4C87104F0CEFA88
:102F2000B7F8C63805339BB207F614004FF4784261
:102F30000392282202920522019200939623F02206
:102F40004FF4C87104F0BAFA002387F8C23897F832
:102F5000C538002B3FF46EAF0523A7F80E39B7F83C
:102F60000E39002B11D097F8F038002BF7D007F569
:102F700010631846FFF734FEB7F80E39013BA7F887
:102F80000E39002387F8F038E9E707F51063184693
:102F9000FFF78AFE002387F8C5384BE708000024B6
:102FA0000A0000240044025800ED00E00C00002458
:102FB000AC04010880B5CCB000AF07F1E4034C22AB
:102FC00000211846FEF732F807F1C4032022002141
:102FD0001846FEF72BF807F108031846BC231A46DB
:102FE0000021FEF723F8022007F092FB3B1D002290
:102FF0001A60694BDB6A684A23F00103D362664BAF
:10300000DB6A03F001023B1D1A60644B9B69634A53
:1030100043F440439361614B9B6903F440423B1D81
:103020001A603B1D1B685D4B9B6903F40053B3F5AD
:10303000005F14BF01230023DBB2002B00D0F2E7B6
:10304000574B9B6A23F00303554A43F002039362F4
:103050000123C7F8E4304FF48033C7F8E830022387
:10306000C7F808310223C7F80C310423C7F8103120
:103070004FF4B473C7F814310223C7F81831022390
:10308000C7F81C310223C7F820310423C7F82431C4
:103090000023C7F828310023C7F82C3107F1E403D7
:1030A000184606F0A3FA0346002B14BF01230023A1
:1030B000DBB2002B01D0FFF736FE3F23C7F8C43048
:1030C0000323C7F8C8300023C7F8CC300823C7F85B
:1030D000D0304023C7F8D4304023C7F8D8304FF45D
:1030E0008063C7F8DC304023C7F8E03007F1C40341
:1030F0000221184606F03EFF0346002B14BF0123B1
:103100000023DBB2002B01D0FFF70DFE07F108030F
:103110004FF4A0221A6007F1080301225A6207F156
:10312000080330229A6207F108030222DA6207F1EB
:10313000080308221A6307F1080302225A6307F101
:1031400008034FF440629A6307F108030022DA6330
:1031500007F1080300221A6407F108030022DA6469
:1031600007F108034FF40012C3F8842007F10803A5
:10317000184607F029FB0346002B14BF0123002348
:10318000DBB2002B01D0FFF7CEFD07F00DFB00BF37
:1031900007F59877BD4680BD0004005800480258E6
:1031A0000044025880B400AF00BFBD465DF8047B08
:1031B0007047000080B582B000AF174A174BD31A92
:1031C0009B103B6000237B607A683B689A4208DA78
:1031D000124A7B6852F8233098477B6801337B6042
:1031E000F2E7FFF7DFFF0E4A0E4BD31A9B103B604E
:1031F00000237B607A683B689A4208DA094A7B6858
:1032000052F8233098477B6801337B60F2E700BFB8
:103210000837BD4680BD00BF00000000AC040108B7
:10322000AC040108AC04010872B60B4C0B4D0C4BFE
:103230009D4204D023682B6004340435F7E7094C21
:10324000094B9C4203D0002323600434F8E7FFF7C6
:10325000B1FFFFF76FFD00BF090A01080040002021
:10326000D0410020000000242009002480B400AFD9
:10327000FEE780B400AFFEE780B483B000AF002368
:103280007B607B68034A9342F9DC7B6801337B6097
:10329000F7E700BFBF30460080B483B000AF0346FD
:1032A000FB80B7F90630002B0DDBB7F906309BB277
:1032B00003F01F020749B7F906305B09012000FA45
:1032C00002F241F8232000BF0C37BD465DF8047BB5
:1032D000704700BF00E100E080B582B000AF7860C9
:1032E0000B46FB701346BB707B6800221A707B682C
:1032F00000225A607B6800229A607B680022DA60B4
:10330000BA78FB781946786800F02AF87A68074B93
:103310001B78591CC8B2054908701946044B43F87C
:1033200021207B6818460837BD4680BD1C0000245C
:103330001000002480B483B000AF786039607B68EF
:1033400000225A607B685B683A689A4201D900BFE4
:10335000F8E700BF0C37BD465DF8047B70470000FE
:1033600080B582B000AF78600B46FB701346BB702F
:10337000FB78032B40D0042B70D0022B40F0A680AA
:10338000554BD3F8E830544A43F00103C2F8E83013
:10339000BB78002B0AD0012B1AD14FF080431422A6
:1033A0009A624FF080430922DA6211E04FF08043C5
:1033B00064229A624FF0804364229A624FF0804305
:1033C00064229A624FF0804340F2E732DA6200BF33
:1033D0004FF08043DB684FF0804243F00103D3603D
:1033E0004FF080431B684FF0804243F001031360AD
:1033F0001C20FFF751FF6AE0374BD3F8E830364A1C
:1034000043F00203C2F8E830BB78002B08D0012B50
:1034100014D1324B14229A62304B0922DA620DE049
:103420002E4B64229A622D4B64229A622B4B6422AB
:103430009A622A4B40F2E732DA6200BF274BDB6820
:10344000264A43F00103D360244B1B68234A43F010
:10345000010313601D20FFF71FFF38E01E4BD3F858
:10346000E8301D4A43F00403C2F8E830BB78002B73
:103470000ED0012B1AD11A4B12229A62184B12222B
:103480009A62174B12229A62154B6322DA620DE0A0
:10349000134B64229A62124B64229A62104B64228C
:1034A0009A620F4B40F2E732DA6200BF0C4BDB68E6
:1034B0000B4A43F00103D360094B1B68084A43F0F1
:1034C000010313601E20FFF7E7FE00E000BF00BF0E
:1034D0000837BD4680BD00BF0044025800040040CC
:1034E0000008004080B400AF4FF080431B694FF0EC
:1034F000804223F001031361104B1B6801221A70F4
:103500000E4B1B685A6801325A600C4B1B689A6854
:1035100001329A60094B1B689B68B3F57A7F08D328
:10352000064B1B68DA680132DA60044B1B68002224
:103530009A6000BFBD465DF8047B70471000002410
:1035400080B400AF094B1B69084A23F001031361E3
:10355000074B5B6801221A70064B4AF6AA221A60D2
:1035600000BFBD465DF8047B704700BF000400400B
:10357000100000240048005880B500AF0A4B1B69BA
:10358000094A23F001031361084B9B6801221A705A
:10359000074B1B68184600F069F8054B1B68184676
:1035A00000F006F900BF80BD0008004010000024B4
:1035B0002000002480B483B000AF0346FB80B7F93D
:1035C0000630002B0DDBB7F906309BB203F01F026B
:1035D0000749B7F906305B09012000FA02F241F809
:1035E000232000BF0C37BD465DF8047B704700BF49
:1035F00000E100E080B582B000AF78607B68002217
:103600001A707B6800225A707B6800229A707B686F
:103610000022DA707B6800221A717B6800225A71DE
:103620007B680022DA807B6800221A817B68002296
:103630005A817B6800221A737B6800225A737B6868
:1036400000229A737B680022DA73786800F08EF9A2
:10365000786800F04FF9044A7B6813607B6818466D
:103660000837BD4680BD00BF2000002480B483B071
:1036700000AF78604C4B1B69DB08DBB203F0010341
:10368000DAB24A4B1B699B09DBB203F00203DBB2DF
:103690001343DAB27B685A737B681B89642B02D1AF
:1036A0007B6863221A817B681B7B032B15D17B68A7
:1036B0005B7B012B06D17B681B89013B9AB27B683F
:1036C0001A8157E07B685B7B022B53D17B681B8997
:1036D00001339AB27B681A814CE07B681B7B022B1A
:1036E00015D17B685B7B032B06D17B681B89013B73
:1036F0009AB27B681A813DE07B685B7B002B39D1F5
:103700007B681B8901339AB27B681A8132E07B683F
:103710001B7B012B15D17B685B7B002B06D17B6863
:103720001B89013B9AB27B681A8123E07B685B7B33
:10373000032B1FD17B681B8901339AB27B681A81E6
:1037400018E07B681B7B002B14D17B685B7B012B13
:1037500006D17B681B8901339AB27B681A8109E024
:103760007B68DB7B022B05D17B681B89013B9AB20E
:103770007B681A817B681B89652B02D17B68632279
:103780001A817B681B894FF6FF72934202D17B68D6
:1037900000221A817B685A7B7B681A7300BF0C3742
:1037A000BD465DF8047B70470000025800040258D3
:1037B00080B483B000AF78604C4B1B691B0ADBB24E
:1037C00003F00103DAB24A4B1B691B09DBB203F0B9
:1037D0000203DBB21343DAB27B68DA737B685B897E
:1037E000642B02D17B6863225A817B689B7B032B0D
:1037F00015D17B68DB7B012B06D17B685B89013BA4
:103800009AB27B685A8157E07B68DB7B022B53D1ED
:103810007B685B8901339AB27B685A814CE07B6894
:103820009B7B022B15D17B68DB7B032B06D17B684E
:103830005B89013B9AB27B685A813DE07B68DB7B08
:10384000002B39D17B685B8901339AB27B685A813E
:1038500032E07B689B7B012B15D17B68DB7B002BE7
:1038600006D17B685B89013B9AB27B685A8123E071
:103870007B68DB7B032B1FD17B685B8901339AB2AA
:103880007B685A8118E07B689B7B002B14D17B6896
:10389000DB7B012B06D17B685B8901339AB27B68A5
:1038A0005A8109E07B68DB7B022B05D17B685B8951
:1038B000013B9AB27B685A817B685B89652B02D198
:1038C0007B6863225A817B685B894FF6FF72934263
:1038D00002D17B6800225A817B68DA7B7B689A730D
:1038E00000BF0C37BD465DF8047B704700000258EE
:1038F0000004025880B483B000AF78601A4B1B6894
:10390000194A23F002031360174B1B68164A43F051
:1039100001031360144B1B68134A23F00803136060
:10392000114B1B68104A43F0040313600E4B1B68D5
:103930000D4A23F0200313600B4B1B680A4A43F027
:1039400010031360084B1B68074A23F400531360ED
:10395000054B1B68044A43F48053136000BF0C37C7
:10396000BD465DF8047B70470004025880B582B004
:1039700000AF78607B4BD3F8E0307A4A43F0040321
:10398000C2F8E030784B1B68774A23F0C00313601D
:10399000754BDB68744A23F0C003D360714BD3F8D6
:1039A000E030704A43F00103C2F8E0306F4B1B680F
:1039B0006E4A23F4403313606C4BDB686B4A23F48C
:1039C0004033D360694B1B68684A23F0C00313601F
:1039D000664BDB68654A23F0C003D360614BD3F8C4
:1039E000E030604A43F00203C2F8E030604B1B68ED
:1039F0005F4A23F4406313605D4BDB685C4A23F449
:103A00004063D3605A4B1B68594A23F44043136008
:103A1000574BDB68564A23F44043D360524B1B6834
:103A2000514A23F4402313604F4BDB684E4A23F482
:103A30004023D3604B4BD3F8F4304A4A43F002039F
:103A4000C2F8F4304B4B4B4A9B6893604FF0B04345
:103A50005B684FF0B04243F0080353604FF0B0434F
:103A6000D3F880304FF0B04243F00803C2F8803002
:103A70004FF0B043D3F888304FF0B04243F0080322
:103A8000C2F888300920FFF795FD3A4BDB68394AC8
:103A900043F48053D3604FF0B0435B684FF0B042C3
:103AA00043F0800353604FF0B043D3F880304FF0C1
:103AB000B04243F08003C2F880304FF0B043D3F8F7
:103AC00088304FF0B04243F08003C2F88830294B71
:103AD000DB68284A43F01003D3604FF0B0435B68C3
:103AE0004FF0B04243F0200353604FF0B043D3F89F
:103AF00080304FF0B04243F02003C2F880304FF0E6
:103B0000B043D3F888304FF0B04243F02003C2F8FE
:103B10008830184B1B69174A43F0200313614FF09C
:103B2000B0435B684FF0B04243F4007353604FF012
:103B3000B043D3F880304FF0B04243F40073C2F882
:103B400080304FF0B043D3F888304FF0B04243F4A8
:103B50000073C2F888301720FFF72CFD00BF08372C
:103B6000BD4680BD004402580008025800000258BB
:103B7000000402580004005880B400AF4FF0B04376
:103B8000D3F888304FF0B04243F00803C2F88830D1
:103B9000044B1B6801225A7000BFBD465DF8047BD0
:103BA000704700BF2000002480B400AF4FF0B04346
:103BB000D3F8883003F02003002B14BF0123002327
:103BC000DBB2002B08D0274B1B6801229A704FF004
:103BD000B0432022C3F888204FF0B043D3F8883098
:103BE00003F08003002B14BF01230023DBB2002B62
:103BF00008D01C4B1B680122DA704FF0B0438022C2
:103C0000C3F888204FF0B043D3F8883003F48073B2
:103C1000002B14BF01230023DBB2002B05D04FF093
:103C2000B0434FF48072C3F888204FF0B043D3F80C
:103C3000883003F40073002B14BF01230023DBB290
:103C4000002B09D0074B1B6801225A714FF0B0437B
:103C50004FF40072C3F8882000BFBD465DF8047BB6
:103C6000704700BF2000002480B483B000AF7860AC
:103C70007B680022C3F800287B680022C3F8042870
:103C8000044A7B6813607B6818460C37BD465DF8B4
:103C9000047B70472400002480B582B000AF7860B8
:103CA000054A7B681360786801F0E8FA7B6818467B
:103CB0000837BD4680BD00BF2800002480B485B011
:103CC00000AFF8607A603B600B46FB72094BC5227F
:103CD0009A63084A7B689360FA7A3B681343054A03
:103CE00043F48053D36000BF1437BD465DF8047BB6
:103CF000704700BF0024024880B485B000AF7860F0
:103D00000B46FB704FF48033BB606C4B5B6B03F076
:103D10004503002B06D1BB68013BBB60002B01D0E3
:103D2000012300E00023002B00D0EEE7634B5B6B28
:103D300003F00403002B04D0BB68002B01D1012346
:103D400000E00023002B04D05C4B04229A63012383
:103D5000ADE05A4B5B6B03F00103002B14BF012352
:103D60000023DBB2002B04D0544B01229A630223C0
:103D70009DE0524B1A69FB789A4214BF012300233D
:103D8000DBB2002B01D01A2391E04C4B40F2FF52E2
:103D90009A634A4B5B69FB60FA68494B1340002BFE
:103DA00001D1002383E0FB68002B01DA0B237EE0C6
:103DB000FB6803F08043002B01D0132377E0FB68FE
:103DC00003F00053002B01D0142370E0FB6803F0D4
:103DD0008053002B01D0152369E0FB6803F00063DA
:103DE000002B01D0162362E0FB6803F08063002BF8
:103DF00001D017235BE0FB6803F08073002B01D038
:103E0000182354E0FB6803F40003002B01D01923AE
:103E10004DE0FB6803F48003002B01D01A2346E039
:103E2000FB6803F40013002B01D01B233FE0FB6869
:103E300003F48013002B01D01C2338E0FB6803F44B
:103E40000023002B01D01D2331E0FB6803F4802305
:103E5000002B01D01E232AE0FB6803F40033002B63
:103E600001D01F2323E0FB6803F48033002B01D033
:103E700020231CE0FB6803F40043002B01D0212326
:103E800015E0FB6803F48043002B01D022230EE0F1
:103E9000FB6803F40053002B01D0232307E0FB68E9
:103EA00003F00803002B01D0242300E00023184670
:103EB0001437BD465DF8047B704700BF00240248FC
:103EC00008E0FFFD80B485B000AF786039604FF442
:103ED0008033FB602C4B5B6B03F04503002B06D15A
:103EE000FB68013BFB60002B01D0012300E00023B5
:103EF000002B00D0EEE7244B5B6B03F00403002B98
:103F000004D0FB68002B01D1012300E00023002B2B
:103F100004D01D4B04229A6301232EE01A4B5B6BE5
:103F200003F00103002B14BF01230023DBB2002B9D
:103F300004D0154B01229A6302231EE0124B40F27B
:103F4000FF529A63104B5B691ABA3B68191D3960BE
:103F50001A600D4B9B691ABA3B68191D39601A60CB
:103F6000094BDB691ABA3B68191D39601A60064BA8
:103F70001B6A1ABA3B681A60002318461437BD46FC
:103F80005DF8047B704700BF0024024880B485B010
:103F900000AF78604FF48033FB60174B5B6B03F02E
:103FA0004503002B06D1FB68013BFB60002B01D0D1
:103FB000012300E00023002B00D0EEE70E4B5B6BEB
:103FC00003F00403002B04D0FB68002B01D1012374
:103FD00000E00023002B04D0074B04229A63012346
:103FE00004E0054B40F2FF529A6300231846143751
:103FF000BD465DF8047B70470024024880B487B05A
:1040000000AFF8600B467A60FB724FF480333B617F
:10401000374B5B6B03F04503002B06D13B69013B3B
:104020003B61002B01D0012300E00023002B00D0D6
:10403000EEE72F4B5B6B03F00403002B04D03B69CE
:10404000002B01D1012300E00023002B04D0284BDA
:1040500004229A63012344E0254B5B6B03F00103C8
:10406000002B14BF01230023DBB2002B04D0204B14
:1040700001229A63022334E01D4B1A69FB7A9A42AB
:1040800014BF01230023DBB2002B01D01A2328E048
:10409000174B40F2FF529A63154B5B697B617B695A
:1040A00003F46043002B06D17B691B0C9AB27B683A
:1040B0001A80002315E07B6903F40053002B01D024
:1040C000FF230EE07B6903F48043002B01D01A2309
:1040D00007E07B6903F40043002B01D0192300E0C3
:1040E000002318461C37BD465DF8047B704700BFAF
:1040F0000024024880B485B000AF78604FF480336C
:10410000FB601D4B5B6B03F04503002B06D1FB6886
:10411000013BFB60002B01D0012300E00023002BBA
:1041200000D0EEE7144B5B6B03F00403002B02D1CD
:10413000FB68002B01D1012300E00023002B04D0F9
:104140000D4B04229A63012310E00B4B5B6B03F0D1
:104150004003002B14BF01230023DBB2002B04D04B
:10416000054B40229A63002300E00A2318461437C7
:10417000BD465DF8047B70470024024880B588B0D6
:1041800000AF786039604FF480730822102178689E
:10419000FFF794FD10217868FFF7AEFD0346FB772B
:1041A000FB7F002B01D0FB7FCBE07B68DB8A1B040D
:1041B0001A464FF4807337217868FFF77FFD372167
:1041C0007868FFF799FD0346FB77FB7F002B01D052
:1041D000FB7FB6E05D4B40F62A429A635B4B4FF69D
:1041E000FF725A62594B08229A62584B3322DA62A4
:1041F0004FF48073002233217868FFF75FFD33218D
:104200007868FFF779FD0346FB77FB7F002B01D031
:10421000FB7F96E04E4BBB6164237B6100233B61D7
:104220000023FB600023BB60484B5A6B40F22A53CB
:104230001340002B0CBF01230023DBB2002B3CD02A
:10424000FB680133FB60414B5B6B03F40023002BE5
:104250000CBF01230023DBB2002B22D0BB6801334B
:10426000BB603A4B1B6B002B14BF01230023DBB256
:10427000002B16D0354BD3F880203B68191D3960D0
:104280001A603B6901333B617B695A1E7A61002BDE
:1042900014BF01230023DBB2002B00D0F4E700237E
:1042A0007B61BB695A1EBA61002B0CBF012300233E
:1042B000DBB2002B00D1B7E700BF244B5B6B03F0F0
:1042C0002A03002B14BF01230023DBB2002B33D0C1
:1042D0001E4B5B6B03F00803002B14BF012300236C
:1042E000DBB2002B01D00E23FB77184B5B6B03F086
:1042F0000203002B14BF01230023DBB2002B01D0EB
:104300000F23FB77114B5B6B03F02003002B14BFD3
:1043100001230023DBB2002B01D01023FB770B4BD2
:104320005B6B03F40063002B14BF01230023DBB29B
:10433000002B01D01223FB77044B40F2FF529A630B
:10434000FB7F18462037BD4680BD00BF00240248D1
:10435000FFFF0F0080B586B000AF786000233B619F
:104360007B68184654231A460021FCF75FFE7B68E1
:1043700000221A70A24B03221A604FF48033FB60B4
:104380000023002200217868FFF798FC9C4B5B6BB0
:1043900003F08403002B06D1FB68013BFB60002B7C
:1043A00001D0012300E00023002B00D0EEE7944B66
:1043B0005B6B03F00403002B02D1FB68002B01D1DF
:1043C000012300E00023002B01D00123CFE14FF4B3
:1043D00080734FF4D57208217868FFF76FFC786816
:1043E000FFF788FE0346FB75FB7D002B60D1844BF5
:1043F0005B69C3F30803B3F5D57F14BF0123002322
:10440000DBB2002B01D00623B1E14FF080433B61CA
:104410004FF6FF73FB60FB68013BFB60002B14BF92
:1044200001230023DBB2002B2CD04FF48073002239
:1044300037217868FFF742FC37217868FFF75CFC8A
:104440000346FB75FB7D002B01D0FB7D8FE13B69B3
:104450006C4A1A434FF4807329217868FFF72EFCC9
:104460007868FFF793FD0346FB75FB7D002B01D0B9
:10447000FB7D7CE1624B5B69DB0FDBB2002B00D183
:10448000C9E700BFFB68002B0CBF01230023DBB290
:10449000002B01D00D236AE1594B5B6903F0804387
:1044A000002B01D0042200E002227B681A7092E007
:1044B000FB7D012B40F08D804FF48073002237216B
:1044C0007868FFF7FBFB37217868FFF715FC4FF69C
:1044D000FF73FB60FB68013BFB60002B14BF0123F3
:1044E0000023DBB2002B2FD04FF480730022372142
:1044F0007868FFF7E3FB37217868FFF7FDFB034699
:10450000FB75FB7D002B01D0FB7D30E14FF4807308
:104510003C4A29217868FFF7D1FB7868FFF736FD20
:104520000346FB75FB7D012B0BD0FB7D002B01D0DF
:10453000FB7D1CE1324B5B69DB0FDBB2002B02D150
:10454000C8E700BF00E000BFFB68002B0CBF0123E1
:104550000023DBB2002B01D0092308E1FB7D012BF6
:1045600003D07B6801221A7035E04FF6FF73FB60C1
:10457000FB68013BFB60002B14BF01230023DBB26F
:10458000002B18D04FF480731E4A01217868FFF782
:1045900095FB7868FFF7FAFC0346FB75FB7D002B63
:1045A00001D0FB7DE3E0164B5B69DB0FDBB2002B38
:1045B00000D1DDE700BFFB68002B0CBF0123002307
:1045C000DBB2002B01D00923D1E07B6803221A70F3
:1045D00001E0FB7DCBE04FF44073002202217868BC
:1045E000FFF76CFB7B683A3319467868FFF76AFC83
:1045F0000346FB75FB7D002B06D0FB7DB7E000BFBB
:1046000000240248000010807B681B78032B14D024
:104610004FF48073002203217868FFF74FFB7B681B
:1046200016331A4603217868FFF7E8FC0346FB754A
:10463000FB7D002B17D0FB7D99E04FF480734FF486
:10464000803203217868FFF739FB03217868FFF790
:1046500053FB0346FB75FB7D002B01D0FB7D86E001
:104660007B680122DA827B68DB8A1B041A464FF4DE
:10467000407309217868FFF721FB7B682A331946CC
:104680007868FFF71FFC0346FB75FB7D002B01D00C
:10469000FB7D6CE0786800F0DFF80721786800F0B7
:1046A000BBF87B68DB8A1B041A464FF48073072132
:1046B0007868FFF703FB07217868FFF71DFB0346C7
:1046C000FB75FB7D002B01D0FB7D50E07B68DB8A16
:1046D0001B041A464FF4807337217868FFF7EEFA0F
:1046E00037217868FFF708FB0346FB75FB7D002B3D
:1046F00001D0FB7D3BE04FF4807300222A217868D3
:10470000FFF7DCFA2A217868FFF7F6FA0346FB7513
:10471000FB7D002B01D0FB7D29E07B681B78032B00
:1047200005D07B684A3319467868FFF727FD7B6818
:104730001B78012B07D07B681B78022B03D07B688A
:104740001B78032B12D14FF480734FF400721021A9
:104750007868FFF7B3FA10217868FFF7CDFA0346BF
:10476000FB75FB7D002B01D0082300E000231846D9
:104770001837BD4680BD00BF80B584B000AF7860FB
:1047800039600023FB737B681B78032B2DD07B687B
:10479000DB8A1B041A464FF4807337217868FFF7D1
:1047A0008DFA37217868FFF7A7FA0346FB73FB7B86
:1047B000002B01D0FB7B29E03B68002B01D10023BB
:1047C00000E00223BB604FF48073BA68062178686A
:1047D000FFF774FA06217868FFF78EFA0346FB7339
:1047E000FB7B002B01D0FB7B10E00A4B5B68BB60BE
:1047F000BB6823F44043BB603B6803F44043BA68A2
:104800001343BB60034ABB685360FB7B18461037F9
:10481000BD4680BD0024024880B485B000AF7860FA
:1048200039600B4B5B68FB60FA680A4B1340FB6016
:104830003B68C3F30903FA681343FB60044AFB684F
:10484000536000BF1437BD465DF8047B704700BF5E
:104850000024024800FCFFFF80B485B000AF786000
:104860007B6893F82A309B11DAB27B681A757B68F3
:104870001B78032B70D07B6893F82D301A467B6829
:104880001A617B681B7D002B3DD17B6893F830302B
:104890009B0203F44063FB607B6893F831309B001C
:1048A000FA681343FB607B6893F832309B09DBB2F4
:1048B0001A46FB681343FB607B6893F833305B0058
:1048C00003F00603BB607B6893F83430DB09DBB28E
:1048D0001A46BB681343BB60FB685A1C7B689A602E
:1048E0007B689A68BB6802339A407B689A607B68F1
:1048F00093F82F3003F00F03012202FA03F31A4654
:104900007B68DA601EE07B6893F831301B0403F4A7
:104910007C13FB607B6893F832301B021A46FB68FD
:104920001343FB607B6893F833301A46FB681343EC
:10493000FB607B684FF40072DA60FB6801339A0217
:104940007B689A607B689B681B0D7A68D26802FB63
:1049500003F27B685A6045E07B6893F82D301A4675
:104960007B681A617B6893F830301B0203F4407354
:10497000FB607B6893F831301A46FB681344FB6098
:10498000FB689B00FB607B6893F832309B111A46F2
:10499000FB681344FB607B6893F82F3003F00F0330
:1049A000012202FA03F31A467B68DA607B6893F807
:1049B00033305B0003F006037A6892F83420D209A2
:1049C000D2B21344BB60FB685A1CBB6802339A40E6
:1049D0007B689A607B689B687A68D26802FB03F206
:1049E0007B685A607B681B78032B59D07B6893F8EF
:1049F0003A207B681A767B6893F83B301B021AB228
:104A00007B6893F83C301BB213431BB29AB27B68AD
:104A10005A837B6893F83D207B681A777B6893F80C
:104A20003E207B685A777B6893F83F207B689A77B3
:104A30007B6893F840207B68DA777B6893F84120A5
:104A40007B6883F820207B6893F842207B6883F89A
:104A500021207B6893F843301A067B6893F8443032
:104A60001B041A437B6893F845301B0213437A6892
:104A700092F8462013431A467B685A627B6893F883
:104A800047301B021AB27B6893F848301BB21343BD
:104A90001BB29BB2C3F30B039AB27B681A851FE06B
:104AA0007B6800221A767B6800225A837B682A2260
:104AB0001A777B684D225A777B684D229A777B68FC
:104AC0004322DA777B682A2283F820207B68002241
:104AD00083F821207B6800225A627B6800221A85B5
:104AE00000BF1437BD465DF8047B704780B588B0C1
:104AF00000AFF860B9607A607B68FB610023FB76E9
:104B0000754B40F62A429A63734B744A5A62724B51
:104B100040229A62704B6322DA624FF48073BA6863
:104B20000621F868FFF7CAF80621F868FFF7E4F8ED
:104B30000346FB76FB7E002B01D0FB7EC7E04FF6E1
:104B4000FF737B610023BB76634B5A6B40F22A53A1
:104B50001340002B0CBF01230023DBB2002B52D0EB
:104B60005D4B5B6B03F40043002B14BF0123002358
:104B7000DBB2002B3AD0584BD3F88020FB69191DCB
:104B8000F9611A60544BD3F88020FB69191DF96153
:104B90001A60514BD3F88020FB69191DF9611A6026
:104BA0004D4BD3F88020FB69191DF9611A604A4BFF
:104BB000D3F88020FB69191DF9611A60464BD3F8C0
:104BC0008020FB69191DF9611A60434BD3F88020DE
:104BD000FB69191DF9611A603F4BD3F88020FB690E
:104BE000191DF9611A60BB7E0133BB767B69002B0E
:104BF0000CBF01230023DBB2002B03D17B69013BF7
:104C00007B61A1E700BF344B5B6B03F03A03002BE1
:104C100014BF01230023DBB2002B26D02E4B5B6B8D
:104C200003F00803002B14BF01230023DBB2002B89
:104C300001D00E23FB76284B5B6B03F00203002BA5
:104C400014BF01230023DBB2002B01D00F23FB761E
:104C5000214B5B6B03F02003002B14BF01230023C7
:104C6000DBB2002B01D01023FB764FF6FF737B6184
:104C7000194B5B6B03F49173002B0CBF01230023D2
:104C8000DBB2002B1ED0144B5B6B03F40023002B14
:104C90000CBF01230023DBB2002B06D00E4BD3F850
:104CA0008020FB69191DF9611A607B69002B0CBF1C
:104CB00001230023DBB2002B03D17B69013B7B6125
:104CC000D6E700BF044B40F2FF529A63FB7E1846C2
:104CD0002037BD4680BD00BF00240248009F24004D
:104CE00080B594B000AF7860002387F84F3007F1AB
:104CF0000C031A4610497868FFF7F8FE034687F858
:104D00004F3097F84F30002B01D0FF2310E007F110
:104D10000C031A4609497868FFF7E8FE034687F84E
:104D20004F3097F84F30002B01D0FF2300E00023D5
:104D300018465037BD4680BDF1FFFF00F1FFFF80F0
:104D400080B582B000AF78604FF4807300220C21F0
:104D50007868FEF7B3FF0C217868FEF7CDFF0346B5
:104D600018460837BD4680BD80B584B000AF786076
:104D700039607B68DB8A1B041A464FF480730D216F
:104D80007868FEF79BFF0D217868FEF7B5FF0346B4
:104D9000FB73FB7B002B04D03B68FF221A70FB7B6C
:104DA00009E0074B5B695B0ADBB203F00F03DAB281
:104DB0003B681A70002318461037BD4680BD00BFFF
:104DC00000240248B0B588B000AFF860B9607A60DE
:104DD0003B600023FB773B685B0A7B61694B0022E9
:104DE000DA62684B40F2FF529A637B69012B0FD95C
:104DF0004FF495754FF48073BA681221F868FEF786
:104E00005DFF1221F868FEF777FF0346FB770EE09F
:104E100040F22A554FF48073BA681121F868FEF702
:104E20004DFF1121F868FEF767FF0346FB77FB7F14
:104E3000002B01D0FB7FA1E0524B534A5A62514AEA
:104E40003B6893624F4B9322DA624FF6FF73BB616C
:104E50004C4B5C6B04F40043002B37D0494BD3F828
:104E600080207B68191D79601A60464BD3F880203A
:104E70007B68191D79601A60424BD3F880207B68EB
:104E8000191D79601A603F4BD3F880207B68191D8B
:104E900079601A603B4BD3F880207B68191D7960DC
:104EA0001A60384BD3F880207B68191D79601A602E
:104EB000344BD3F880207B68191D79601A60314B20
:104EC000D3F880207B68191D79601A60BB69002BBC
:104ED00007D0BB69013BBB6104EA0503002B01D18C
:104EE000B6E700BFFB681B78032B07D07B69012B5B
:104EF00004D9F868FFF724FF0346FB7704F03A0370
:104F0000002B11D004F00803002B01D00E23FB77F7
:104F100004F00203002B01D00F23FB7704F02003E1
:104F2000002B01D01023FB7740F6FF73BB61154BBC
:104F30005B6B03F4A063002B0CBF01230023DBB2E7
:104F4000002B16D00F4B5B6B03F40023002B0CBF20
:104F500001230023DBB2002B06D00A4BD3F88020BC
:104F60007B68191D79601A60BB69002B00D0DEE7F1
:104F700000BF044B40F2FF529A63FB7F1846203774
:104F8000BD46B0BD00240248009F240090B58BB000
:104F900000AFF860B9607A603B60002387F8273083
:104FA0003B685B0ABB6100233B628A4B0022DA62EA
:104FB000BB69012B10D940F21A444FF48073BA68D0
:104FC0001921F868FEF77AFE1921F868FEF794FEB9
:104FD000034687F827300FE04FF48D744FF4807349
:104FE000BA681821F868FEF769FE1821F868FEF71C
:104FF00083FE034687F8273097F82730002B02D02E
:1050000097F8273033E1734B40F2FF529A63714BAC
:10501000714A5A626F4A3B6893626E4B9122DA6220
:105020003B6803F01F03002B55D16A4B5B6B03F405
:105030008043002B05D03A6A3B689A4201D2012393
:1050400000E00023002B3AD07B681A1D7A60614A89
:105050001B68C2F880307B681A1D7A605D4A1B6845
:10506000C2F880307B681A1D7A605A4A1B68C2F801
:1050700080307B681A1D7A60564A1B68C2F88030FF
:105080007B681A1D7A60534A1B68C2F880307B68BF
:105090001A1D7A604F4A1B68C2F880307B681A1D5F
:1050A0007A604C4A1B68C2F880307B681A1D7A60AF
:1050B000484A1B68C2F880303B6A20333B62454B4C
:1050C0005B6B2340002B0CBF01230023DBB2002BC2
:1050D00000F08480A9E73F4B5B6B03F48043002B17
:1050E00005D03A6A3B689A4201D2012300E00023CE
:1050F000002B64D03A683B6AD31AFB61FB691F2B13
:1051000022D8FB6903F00303002B02D1FB699B0843
:1051100002E0FB699B080133FB61FB699B003A6A73
:1051200013443B62FB695A1EFA61002B14BF012332
:105130000023DBB2002B42D07B681A1D7A60254A1F
:105140001B68C2F88030EDE77B681A1D7A60214A3F
:105150001B68C2F880307B681A1D7A601D4A1B6884
:10516000C2F880307B681A1D7A601A4A1B68C2F840
:1051700080307B681A1D7A60164A1B68C2F880303E
:105180007B681A1D7A60134A1B68C2F880307B68FE
:105190001A1D7A600F4A1B68C2F880307B681A1D9E
:1051A0007A600C4A1B68C2F880307B681A1D7A60EE
:1051B000084A1B68C2F880303B6A20333B62054BCB
:1051C0005B6B2340002B0CBF01230023DBB2002BC1
:1051D00004D080E700240248808D5B00264B5B6B87
:1051E0007B61FB681B78032B08D0BB69012B05D9B9
:1051F000F868FFF7A5FD034687F827307B6903F0C1
:105200003A03002B17D07B6903F00803002B02D070
:105210000E2387F827307B6903F00203002B02D0AE
:105220000F2387F827307B6903F01003002B02D08F
:10523000112387F8273007F113031946F868FFF7A1
:1052400093FD0346002B14BF01230023DBB2002B88
:1052500006D1FB7C072BEED0FB7C062B01D1EAE7C5
:1052600000BF054B40F2FF529A6397F8273018466B
:105270002C37BD4690BD00BF0024024880B582B0E7
:1052800000AF7860786800F051F8786800F010F8A6
:105290007868FFF75FF84FF480417868FFF76CFAA1
:1052A0007868FFF71DFD00BF0837BD4680BD0000D0
:1052B00080B483B000AF78601A4BD3F8DC30194A61
:1052C00043F40073C2F8DC30164BDB6C154A23F450
:1052D0008033D364134BD3F88430124A43F4007301
:1052E000C2F884300F4BD3F884300E4A23F4007395
:1052F000C2F884300C4B5B680B4A23F44043536084
:10530000094B5B68084A43F47A735360064BDB6AC7
:10531000054A43F40063D36200BF0C37BD465DF815
:10532000047B7047004402580024024880B483B0D4
:1053300000AF7860414BD3F8E030404A43F00103BE
:10534000C2F8E0303D4BD3F8E0303C4A43F0020372
:10535000C2F8E030394BD3F8E030384A43F0080364
:10536000C2F8E030364B1A683549364B13430B60B0
:10537000334B1A683249344B13400B60304BDA68B8
:105380002F49324B1343CB602D4BDA682C49304BFD
:105390001340CB602A4B9A6829492E4B13438B60EC
:1053A000274B1B6A264A43F419231362244B5B6A7A
:1053B000234A43F019435362274B1B68264A43F0A4
:1053C00002031360244B1B68234A23F0010313607C
:1053D000214BDB68204A43F00103D3601E4BDB689E
:1053E0001D4A23F00203D3601B4B9B681A4A43F00B
:1053F00003039360184B1B6A174A43F009031362B7
:10540000164B1B68154A43F400531360134B1B687B
:10541000124A23F480531360104B9B680F4A43F4E5
:10542000405393600D4B1B6A0C4A43F03063136288
:1054300000BF0C37BD465DF8047B7047004402583E
:1054400000040258800200A0BFFEFFAF40010050E0
:105450007FFDFF5FC00300F000000258000C0258FF
:1054600080B582B000AF87ED010A97ED010AFAF727
:1054700013FFF0EE407AB0EE670A0837BD4680BDF4
:1054800080B582B000AF87ED010A97ED010AFAF707
:105490004BFFF0EE407AB0EE670A0837BD4680BD9C
:1054A00080B483B000AF78607B681A460023136035
:1054B00053609360D36013617B68143300221A60D9
:1054C0005A609A60DA601A617B68002283F82820AB
:1054D0007B6818460C37BD465DF8047B70470000BA
:1054E00080B483B000AF7860054B9B69044A43F4F5
:1054F0000043936100BF0C37BD465DF8047B7047E5
:105500000000025880B483B000AF7860054B9B69FF
:10551000044A43F00043936100BF0C37BD465DF879
:10552000047B70470000025880B582B000AF7860FD
:105530007B681846FFF7B4FF7B6818460837BD46FE
:1055400080BD80B582B000AF78607B681846FFF7F9
:10555000EBFF7B6818460837BD4680BD80B483B03A
:1055600000AF78600B467B807B881A12064BD2B264
:105570005A70054B7A88D2B25A7000BF0C37BD46BC
:105580005DF8047B704700BFFFFF006080B483B00C
:1055900000AF78600B467B807B881A12064BD2B234
:1055A0001A70054B7A88D2B21A7000BF0C37BD460C
:1055B0005DF8047B704700BFFFFF006080B483B0DC
:1055C00000AF78600B467B8013463B807B881A12C5
:1055D0000A4BD2B21A70094B7A88D2B21A703B8841
:1055E0001A12064BD2B25A70044B3A88D2B25A7091
:1055F00000BF0C37BD465DF8047B7047FFFF0060BD
:1056000080B582B000AF78600B467B807B881B0A38
:105610009BB21A464FF428517868FFF7CFFF7B887A
:10562000DBB29BB21A4642F601217868FFF7C6FF4B
:1056300000BF0837BD4680BD80B582B000AF78603E
:105640000B467B807B881B0A9BB21A464FF42C5179
:105650007868FFF7B3FF7B88DBB29BB21A4642F64D
:1056600001317868FFF7AAFF00BF0837BD4680BD4B
:1056700080B584B000AFF860084611461A4603466C
:105680007B810B463B811346FB807B891B129BB2BF
:105690001A464FF42851F868FFF790FF7B89DBB278
:1056A0009BB21A4642F60121F868FFF787FFFB8894
:1056B0001B129BB21A4642F60221F868FFF77EFFE2
:1056C000FB88DBB29BB21A4642F60321F868FFF76B
:1056D00075FF3B891B129BB21A464FF42C51F86898
:1056E000FFF76CFF3B89DBB29BB21A4642F60131F1
:1056F000F868FFF763FF3B8B1B129BB21A4642F61A
:105700000231F868FFF75AFF3B8BDBB29BB21A46B7
:1057100042F60331F868FFF751FF00BF1037BD466E
:1057200080BD000080B582B000AF78607B6818460D
:10573000FFF7B6FE786800F011F87868FFF7E2FE30
:10574000786800F0CFF9044A7B6813607B681846DC
:105750000837BD4680BD00BF2C00002480B483B054
:1057600000AF7860994BD3F8E030984A43F00803D3
:10577000C2F8E030964B1A689549964B13430B607C
:10578000934B1A689249944B13400B60904B9A6864
:105790008F49924B13438B608D4B5A6A8C49904BC7
:1057A00013434B628A4B1A68894948F60A2313430C
:1057B0000B60874B1A6886498A4B13400B60844BF9
:1057C0009A6883494CF60F7313438B60804B1A6AB7
:1057D0007F49854B13430B627D4B1B687C4A43F02A
:1057E000500313607A4B1B68794A23F0A0031360BF
:1057F000774B9B68764A43F0F0039360734BD3F882
:10580000E030724A43F01003C2F8E030774B1B6877
:10581000764A43F42A131360744B1B68734A23F4CB
:10582000AA131360714B9B68704A43F47F13936013
:105830006E4B1B6A6D4A43F0404313626B4B5A6ACE
:105840006A4940F6CC4313434B62604BD3F8E030D7
:105850005E4A43F00103C2F8E030654B1B68644ABE
:1058600043F080431360624B1B68614A23F000439E
:1058700013605F4B9B685E4A43F040439360BFF305
:105880005F8F5C4B5B6A5B4A23F4803353625A4BF5
:1058900000225A60584B00229A60574B4FF0C0428A
:1058A000DA60554B00221A61534B1B69524A43F090
:1058B00001031361504B1B694F4A43F036031361D8
:1058C0004D4B4D4A1B6913614B4B1B694A4A43F4CC
:1058D00080331361484B484A1B691361464B464A63
:1058E0001B691361444B444A1B691361424B1B699A
:1058F000414A43F0407313613F4B3F4A1B691361B8
:105900003D4B05225A603B4B5B6A3A4A43F4803375
:105910005362BFF34F8FBFF36F8F2C4BDB6C2B4A5F
:1059200023F00303D364294BD3F8D430274A43F43C
:105930008053C2F8D430314B1B68304A23F4004303
:1059400013602E4B1B682D4A23F4807313602B4B7E
:105950001B682A4A23F400231360284B1B68274A3C
:1059600023F4E0231360254B1B68244A23F480436F
:105970001360224B1B68214A43F0400313601F4B06
:105980001B681E4A43F0010313601C4B1B681B4A33
:1059900023F00C031360194B1B68184A43F00803EB
:1059A0001360164B1B68154A23F004031360134B56
:1059B0001B68124A23F002031360104B1B680F4A46
:1059C00023F0300313600D4B1B6819E000440258AC
:1059D000000C0258000080A0FFFFBFAF0000C0F025
:1059E00000C000CCFABAFFFFCC00CCC000100258B7
:1059F0000000025800ED00E090ED00E00040005291
:105A0000374A23F400631360354B1B68344A23F490
:105A100000531360324B1B68314A23F40073136048
:105A20002F4B1B682E4A43F4805313602C4B1B688A
:105A30002B4A23F480131360294B1B68284A43F038
:105A400000431360264B5B68254A23F040535360A4
:105A5000234B5B68224A43F080535360204B5B68C2
:105A60001F4A23F0F00353601D4B5B681C4A43F050
:105A7000F00353601A4B5B68194A23F00F0353601D
:105A8000174B5B68164A43F008035360144B5B687E
:105A9000134A23F470235360114B5B68104A23F4BC
:105AA000700353600E4B5B680D4A23F47F435360D1
:105AB0000B4B5B680A4A43F400635360084B5B6816
:105AC000074A23F070635360054B5B68044A43F058
:105AD0007063536000BF0C37BD465DF8047B7047B0
