:020000040800F2
:1000000000010020DD00000829010008310100087E
:1000100000000000000000000000000000000000E0
:1000200000000000000000000000000021010008A6
:10003000000000000000000021010008210100086C
:100040002101000821010008210100082101000808
:1000500021010008210100082101000821010008F8
:100060000000000021010008210100082101000812
:1000700021010008210100082101000821010008D8
:1000800021010008210100082101000821010008C8
:1000900000000000210100082101000821010008E2
:1000A00021010008210100082101000821010008A8
:0C00B000210100082101000800000000F0
:1000BC0080B582B000AF7860C0467B685A1E7A600B
:1000CC00002BFAD1C046C046BD4602B080BD000030
:1000DC000B4D0C4C03E02B682360043504340A4BA5
:1000EC009C42F8D1094C02E0002323600434084BF5
:1000FC009C42F9D172B600F025F8C046FDE7C04627
:10010C006001000800010020000100200001002017
:10011C000001002080B500AFC046FDE780B500AF00
:10012C00C046FDE780B582B000AF00237B6002E0E3
:10013C007B6801337B607B68014A9342F8DDF4E70E
:10014C00BF30460080B500AF3220FFF7B1FFC0468C
:04015C00FDE70000BB
:04000005080000BC33
:00000001FF
