:020000040800F2
:1000000000800020E53400082F3500083535000851
:10001000979A03089D9A0308A39A0308000000001A
:10002000000000000000000000000000A99A030882
:10003000B79A030800000000C59A0308D39A030882
:100040002935000829350008293500082935000818
:100050002935000829350008293500082935000808
:1000600029350008314000082935000829350008E5
:1000700029350008293500082935000829350008E8
:1000800029350008293500082935000829350008D8
:100090002935000829350008293500086140000885
:1000A00029350008293500082935000829350008B8
:1000B00095370008C93700080138000829350008BD
:1000C0002935000829350008293500082935000898
:1000D0002935000829350008293500082935000888
:1000E00029350008293500080000000029350008DE
:1000F0002935000829350008293500082935000868
:100100002935000829350008293500082935000857
:100110002935000829350008293500082935000847
:100120002935000829350008293500082935000837
:100130002935000829350008293500082935000827
:1001400000000000000000000000000000000000AF
:100150002935000829350008293500082935000807
:1001600029350008293500082935000829350008F7
:10017000293500082935000829350008000000004D
:1001800029350008293500082935000829350008D7
:1001900029350008293500082935000829350008C7
:1001A00029350008293500082935000829350008B7
:1001B00029350008293500082935000829350008A7
:1001C0002935000829350008E19A03082935000877
:1001D00029350008F59A0308293500082935000853
:1001E0002935000829350008293500082935000877
:1001F0002935000829350008293500082935000867
:100200002935000829350008293500082935000856
:100210002935000829350008293500082935000846
:10022000293500082935000829350008000000009C
:10023000293500082935000800000000293500088C
:100240002935000829350008293500082935000816
:100250002935000829350008293500082935000806
:1002600029350008293500082935000829350008F6
:10027000293500082935000829350008000000004C
:10028000293500082935000829350008000000003C
:10029000000000002935000838B510EE104AC4F3FC
:1002A0000A53B3F57D7FB7EEC07A1ED227EE077BE7
:1002B000B3F5667F6FD327EE071B634B93ED142BCB
:1002C00093ED125B93ED0E3BA7EE025B93ED0C0BEF
:1002D00093ED104BA7EE030B27EE017BA1EE040B71
:1002E000A5EE070BB7EEC00B38BD40F22E4293428D
:1002F00054D8554991ED086B27EE066BFDEEC66BA1
:1003000091ED0A5B16EE903A03F500031B1613F00D
:10031000020F06EE903A01F1700208BF0A46D807B4
:10032000B8EEE66BA6EE457B27EE076B1AD503F019
:10033000030301EBC30393ED002B92ED1A4B92EDF7
:10034000185B92ED163BA6EE045B27EE027B27EED0
:10035000064B26EE046BA4EE037BA5EE067BB7EE00
:10036000C70B38BD92ED142B92ED127B92ED0E3B34
:1003700092ED0C0B92ED104B26EE065BA6EE027B87
:10038000A6EE030B26EE056BA5EE040BA7EE060BFF
:10039000B7EEC00B38BDB7EE000A38BDB3F5FF6F3E
:1003A0003DD22A4BC4F3836203EB820153F822202F
:1003B0000D69C4F31603C4F3C25043F40003834031
:1003C000086A03FB02F2A3FB0010E3FB050202F143
:1003D00000518D0F01F04041511A02F0ABFF1C4B50
:1003E0009FED177B05EBD47441EC160B14F0020F54
:1003F000A3F1700208BF1346E90726EE077B27EE3C
:10040000076B10D504F0030402EBC40494ED002B39
:1004100093ED1A4B93ED185B93ED163B93E7BDE814
:10042000384000F053B893ED142B93ED127B93ED0D
:100430000E3B93ED0C0B93ED104B9DE7AFF300805B
:10044000182D4454FB21193CB832040858320408D2
:100450002833040810B582B08DED010A044600F07F
:10046000B7FC9DED010A046002B010BD28B1F1EEA9
:10047000407A27EE800A2220ECE7F0EE407A27EE61
:10048000800A2220E6E700BF9FED010AEEE700BFE9
:10049000000000109FED010AE8E700BF0000201AED
:1004A0009FED010AE2E700BF000000709FED060A21
:1004B000FFEE007AB7EE007A00284FF0220047FEE8
:1004C000277A87EE800AC5E70000000070EE407AC8
:1004D000B4EE400A87EEA77AF1EE10FAB0EE470AC2
:1004E00001D62120B6E770472DE9F04F5BEC10AB49
:1004F0005B46190D2DED0A8B11EE90CA4E1E40F28F
:10050000FD75AE4210EE102A11EE100A89B00C46AD
:100510004FEA1C5E00F2CA80CEF30A05A5F2BE3592
:100520007F2D98BF002000F2C180BFEE000BCE4CA3
:10053000CE491C44C4F3463501EB451696ED128BAB
:1005400091ED006B91ED027B96ED189B96ED162BCD
:10055000260D241505EE904A3605B8EEE55B141E0F
:10056000A5EE062B9D1BA5EE079B91ED083B91ED9B
:10057000105B91ED04AB91ED067B91ED0CBB91ED21
:100580000A6B91ED0E4B45EC1C4BACEE080B20EECC
:100590000A8BA0EE037BA0EE054B20EE083B30EE6D
:1005A000025BA0EE0B6B32EE452BA3EE046B32EE3A
:1005B000002BA3EE067B39EE029B35EE036BB0EE0B
:1005C000432B35EE465B98EE002B35EE035B39EEA0
:1005D000029B20EE030B39EE059BA0EE079B36EE47
:1005E000097B21EE078B18EE902AB0EE482BC2F360
:1005F0000A556FF47273EB183E2B91EE072B36EE13
:10060000476B36EE099BA1EE092B00F29680B0EE07
:10061000480B974B93ED025B93ED006BB0EE451BDF
:10062000A8EE061B11EE101A31EE451B93ED043BAC
:1006300093ED067BA1EE030B01F07F02921802F10D
:100640000F0403EBC202A1EE070B92ED1C7B32EE0E
:10065000000B20EE003B03EBC40293ED0A9B23EE5C
:10066000032B93ED086B93ED0E5BA0EE096B93EDFE
:100670000C4B53F834605768A0EE054B401800242B
:1006800030EE070BA219A3EE060B07EB4033B0EEDA
:10069000407BA2EE047B002D5ED043EC102BA7EE36
:1006A000000B09B0BDEC0A8BBDE8F08F05184CEBD0
:1006B0000C086FF001076E1E48F1FF39B7426FF466
:1006C000001676EB0906C0F02681951843EB030867
:1006D0006E1E68F10009B7426FF4001676EB09064A
:1006E000C0F04081002B6BDB0020CEF30A05A5F2A1
:1006F000BE317F2940F2FF7650D95E4900208B42FF
:1007000008BF824200F0048140F2BD34A54240F2AD
:100710009680012A8B4134BF01230023B6458CBF4C
:100720004FF0000E4FF0010E73450ED109B0BDEC35
:100730000A8BBDE8F04F00F0F3BA002BC0F2D38073
:10074000B5F5816F79D9002AF0DB09B0BDEC0A8BD1
:10075000BDE8F04F00F0F4BAA14280F21881B7EE84
:10076000003B03F17F5101F50011104641EC150BE0
:1007700027EE057B35EE076BB0EEC64BB4EEC34BF0
:10078000F1EE10FA78D49FED340B26EE000B09B091
:10079000BDEC0A8BBDE8F04F00F000BB002C7FF4ED
:1007A000C4AE9FED2F7B4BEC16AB26EE077B55ECD2
:1007B000174B25F0004317EE102AA3F15073B4E64F
:1007C000CEF30A0540F2FE34A54240F3838040F2A6
:1007D0003344A54200F3FE80641BA4F120074FF0D0
:1007E000FF364FF0FF39A64009FA07F9C4F1200897
:1007F000019746EA09074FF0FF3626FA08F947EA5B
:100800000907A64020EA06062CEA07073E4361D105
:10081000019F0CFA08F8E04040EA08002CFA07FCB7
:1008200040EA0C0010F0010F0CBF00204FF48020B4
:1008300023F00043C1F30A0459E70025E7E690429C
:1008400071EB0303B7EE000B34BF31EE000B30EE5B
:10085000410B26E7AFF3008000000000000010000D
:100860000000000000003043AB6A19C010220408E9
:10087000983304080000F03FB5EEC06BF1EE10FABB
:1008800035EE465BBFEE004B35EE077B58BFB0EE52
:10089000434B36EE040B34EE405B35EE066B36EE22
:1008A000076B36EE006B36EE446BB5EE406BF1EE47
:1008B00010FA04D12A4601F0004343EC162B9FEDB9
:1008C000665B8DED045B9DED047B27EE057B8DED76
:1008D000067B58E74BEC10AB09B0BDEC0A8BBDE8CA
:1008E000F04F00F04DBAB7EE000B38EE000B0028C9
:1008F0003FF4D7AEB1EE400BD3E692185C4983F4D7
:1009000000234FF000005B41904271EB03035CD386
:10091000B7EE000BC5E655EA0801EED0554C0021B4
:10092000A34208BF8A4246D0921853485B41914285
:1009300070EB030449D3804508BF8D4245D100F1D7
:100940000040834208BF8A42E2D083426FEA0C0C27
:1009500034BF002301234FEADC7C634578D09FED50
:10096000400B9EE64BEC17AB002B27EE070B33DB5F
:10097000002055EA08035ED1BCF1000FBFF691AE2E
:1009800009B0BDEC0A8BBDE8F04F00F0E1B903F10E
:1009900040419FED356B01F57001104641EC100BA5
:1009A000A7EE000B20EE060B09B0BDEC0A8BBDE8EC
:1009B000F04F00F0FBB900182D4B8CF4002C4CEBE1
:1009C0000C0C814273EB0C03A2D24BEC17AB37EE4D
:1009D000010B66E600202BE7CEF30A03A3F2FF32F9
:1009E000342AC5D8C3F586634FF0FF32A3F11D0446
:1009F000033302FA04F702FA03F1C3F12006394384
:100A000022FA06F739439A4020EA02022CEA010151
:100A10000A43ADD120FA03F30CFA06F633432CFA5D
:100A200004F4234303F00103C3F10200002B9FD021
:100A3000B1EE400B9DE7BCF1000FBFF632AEB7EE52
:100A4000006B86EE007B8DED027B9DED020B28E6B0
:100A500021EE010B25E600BF0000000000001000A1
:100A60000000000000000000000000000000007F07
:100A70000000F0FF0000F03F0000E0FF0000000079
:100A800030B510EE104AC4F30A53B3F57D7FB7EECC
:100A9000C06A83B01BD226EE065BB3F5667F70D3C7
:100AA00026EE052B25EE021B754B93ED1A3B93EDBD
:100AB000187B93ED164BA5EE037BA2EE046BB0EE14
:100AC000460BA7EE010BB7EEC00B03B030BD40F2F2
:100AD0002E42934260D86A4991ED087B26EE077B4F
:100AE000FDEEC77B91ED0A5B17EE903A03F500032C
:100AF0001B1613F0020F07EE903A01F1700208BFC7
:100B00000A46D807B8EEE77BA7EE456BB0EE460B7A
:100B100026EE067B1BD403F0030301EBC30392ED27
:100B20001A5B93ED003B92ED186B20EE030B92EDF8
:100B3000164BA7EE056B20EE075B27EE057BA5EEB7
:100B4000040BA6EE070BB7EEC00B03B030BD92ED61
:100B5000142B27EE075B92ED126B92ED0E3BA7EE86
:100B6000026B92ED0C0B92ED104BA7EE030B27EEF0
:100B7000057BA5EE040BA6EE070BB7EEC00B03B08A
:100B800030BD220D12F4FF6FDFD1B7EEC55B00EE72
:100B9000104A8DED015AD8E7B3F5FF6F4BD2394BB0
:100BA000C4F3836203EB820153F822200D69C4F37E
:100BB0001603C4F3C25043F400038340086A03FBE6
:100BC00002F2A3FB0010E3FB050202F100518D0FBE
:100BD00001F04041511A02F0ADFB2B4B9FED267BFB
:100BE00005EBD47441EC160B14F0020FA3F1700264
:100BF00008BF1346E90726EE077B27EE076B1FD4D5
:100C000004F0030402EBC40493ED1A4B94ED002BA3
:100C100093ED185B27EE027B93ED163BA6EE045B8B
:100C200027EE064B26EE046BA4EE037BA5EE067BB7
:100C3000B7EEC70B89E703B0BDE83040FFF746BC0D
:100C400093ED142B26EE065B93ED127B93ED0E3B9A
:100C5000A6EE027B93ED0C0B93ED104BA6EE030B6F
:100C600026EE056BA5EE040BA7EE060BB7EEC00B48
:100C70006BE700BFAFF30080182D4454FB21193CF3
:100C8000B8320408583204082833040808B52DED9A
:100C9000028BB0EE408A00F021F80E4B93F9003041
:100CA00001330BD0B4EE488AF1EE10FA06D6DFED30
:100CB0000A8AB4EEE88AF1EE10FA02D4BDEC028B97
:100CC00008BD00F085F888EEA80ABDEC028B212350
:100CD000036008BD0080002000000000B1EEC00AE3
:100CE000704700BF0000000010B582B08DED000B12
:100CF000044600F06DF89DED000B046002B010BDDD
:100D000082B050B1B1EE407B8DED007B9DED007B5C
:100D1000222020EE070B02B0E6E7B0EE407BF3E7BF
:100D20009FED010BECE700BF000000000000001089
:100D30009FED010BE4E700BF000000000000581E1B
:100D40009FED010BDCE700BF000000000000007019
:100D500082B00028B7EE006BBFEE007B06FE077B7B
:100D60008DED007B9DED000B9FED037B222080EE3F
:100D7000070B02B0B8E700BF000000000000000051
:100D8000B4EE400BF1EE10FA30EE407B87EE076BCD
:100D9000B0EE460B01D62120A6E77047B5EE400B1A
:100DA000F1EE10FA00D0704722209DE79FED066B10
:100DB000B0EEC07BB4EE467BF1EE10FA00DC70477B
:100DC000222091E7AFF30080FFFFFFFFFFFFEF7FDF
:100DD000014B1868704700BF04800020830730B5BE
:100DE00048D0541E002A3FD0CAB2034601E0013C5D
:100DF0003AD303F8012B9D07F9D1032C2DD9CDB29D
:100E000045EA05250F2C45EA054536D9A4F110021F
:100E100022F00F0C03F1200EE6444FEA121C03F1FE
:100E2000100242E9045542E9025510327245F8D1E8
:100E30000CF1010214F00C0F03EB021204F00F0C82
:100E400013D0ACF1040323F003030433134442F83A
:100E5000045B9342FBD10CF003042CB1CAB21C44D6
:100E600003F8012B9C42FBD130BD64461346002C95
:100E7000F4D1F9E703461446BFE71A46A446E0E773
:100E800038B5124B1D68AA6B04461AB10023C2E99B
:100E9000044338BD182027F01FFF0246A86378B12D
:100EA00001200021C2E90401094B0A480A49916066
:100EB000C2E900030B2393810023C2E9044338BD38
:100EC000064B0748422100F095F800BF048000203F
:100ED00034126DE60E33CDABECDE0500283D040880
:100EE000403D04081C4B10B51C68A26B8AB1136905
:100EF0001A4954691A4803FB01F100FB0411A3FBD2
:100F00000030013341EB0001C2E9043121F000401F
:100F100010BD182027F0E0FE0246A06388B1114CF6
:100F2000114B0E48114991609FED097BC2E90043C6
:100F30000B2393810E4B014682ED047BC2E9043101
:100F400010BD0C4B0C484E2100F054F8AFF300805C
:100F50000100000000000000048000202DF4515822
:100F60002D7F954C0E33CDAB34126DE6ECDE0500D3
:100F70002E7F954C283D0408403D04080CB410B564
:100F80009CB01EAB6FF00044CDE9061402910849F5
:100F900053F8042B059102A90193049400F050F931
:100FA000029B00221A701CB0BDE8104002B07047CE
:100FB0000802FFFF0EB410B59DB06FF000411FABEB
:100FC000CDE906010491094953F8042B0290084C1D
:100FD0000868019302A9059400F032F9029B0022EF
:100FE0001A701DB0BDE8104003B0704704800020A7
:100FF0000802FFFF00B50B4C25681446EE681A4640
:1010000085B003460D464CB107490095CDE9011462
:101010003046064900F022F800F094FE04490C46E0
:10102000F3E700BF04800020743D0408843D0408F9
:10103000803D040808B513460022FFF7DBFF00BF20
:101040000CB400B583B004AB53F8042B019300F04B
:1010500055FA03B05DF804EB02B070470EB410B55A
:1010600083B005AB064C53F8042B0193014620686E
:1010700000F044FA03B0BDE8104003B0704700BF71
:10108000048000202DE9F0478F689F420C461D46E2
:10109000164638D88246888910F4906F0ED10868B9
:1010A0003D462A46314601F09DFBA2682368D21BCB
:1010B0002B44A26023600020BDE8F0874B690969DA
:1010C00003EB4308236808EBD878A3EB01096B1CFA
:1010D0004FEA68084B444345424684BF984642461F
:1010E000430513D51146504601F05AFC074608B394
:1010F00021694A4601F0DCFAA38923F4906343F0A6
:101100008003A38107E008681F46CAE7504601F044
:10111000A1FC074650B107EB0900A8EB09032761C2
:10112000C4F81480A36020602F46BAE721695046B6
:1011300001F0D4FB0C23CAF80030A38943F040032C
:101140004FF0FF30A381B7E72DE9F04F936883B0EC
:101150009146002B6ED017688D6880460C46086853
:10116000083744E0A38913F4906F2ED0D4E9041516
:10117000A0EB010A05EB450505EBD5750AEB06006A
:101180006D100130A8422A4684BF05462A465B05F9
:1011900037D51146404601F003FC00283BD05246AB
:1011A0002169019001F084FAA289019B22F49062E6
:1011B00042F08002A281A5EB0A0203EB0A006561FE
:1011C000A260236120603546B2465946524601F07E
:1011D00009FBA068D9F808102368451B8E1B03EB98
:1011E0000A00A5602060C9F808601EB3083757E9F7
:1011F00002B6002EFAD0B542AA46B3D93546B24659
:10120000E3E7404601F026FC03460028D3D12169DC
:10121000404601F063FB0C23C8F80030A38900228C
:1012200043F040034FF0FF30A381C9E9012203B02E
:10123000BDE8F08F0020C9F8040003B0BDE8F08FCE
:101240002DE9F04F92468A8915069DB08846814661
:101250001C4603D50A69002A00F0EF80002209929B
:101260009AF800307E4D039420228DF829203022F8
:101270008DF82A200126002B72D0544603E014F882
:10128000013F002B76D0252BF9D1B4EB0A0B74D19A
:101290002278002A64D000234FF0FF32CDE90523E5
:1012A000049307938DF853301A93013404E0049AA1
:1012B00006FA03F313430493A246052214F8011B14
:1012C000284601F0A5F9431B0028F0D1049BD8065D
:1012D00044BF20228DF8532019079AF8001044BF0C
:1012E0002B228DF853202A2954D1039A11680432F5
:1012F000002903927CDB07919AF801100AF1010A98
:101300002E2959D0574C0322204601F081F940B1D3
:10131000049B001B402404FA00F0034304930AF1E9
:10132000010A1AF8011B50488DF82810062201F016
:101330006FF9002862D04D4B002B52D003AA0092C7
:101340004B4B424604A94846AFF3008007467A1C3F
:1013500006D0099B3B4409939AF80030002B8CD1AE
:10136000B8F80C305B0654BF09984FF0FF301DB041
:10137000BDE8F08FB4EB0A0BF2D05B465246414613
:101380004846FFF77FFE0130EAD0099B22785B4494
:1013900009937EE7A1F13002092AB1D8079B1AF818
:1013A000011F03EB830302EB4303A1F13002092A7F
:1013B000F5D92E290793A5D19AF801102A2927D10A
:1013C000039B9AF802101A6805920433002A0AF166
:1013D00002000393B8BF4FF0FF338246B8BF0593B6
:1013E00090E7039B073323F0070308330393B0E729
:1013F000494243F00203079104937DE703AA009258
:101400001B4B424604A9484600F05EFA07469EE799
:10141000A1F130020023092A05930AF1010A3FF6DF
:1014200071AF1AF8011F03EB830302EB4303A1F131
:101430003002092AF5D9059364E7402101F0B0FA9A
:10144000C8F80000C8F8100018B14022C8F81420ED
:1014500004E70C23C9F800304FF0FF3087E700BFE6
:10146000B43D0408BC3D0408C03D04080000000071
:10147000851000089368013B002B936011DA10B4CB
:101480009469A34209DB0A2907D01368581C10602D
:10149000197008465DF8044B70475DF8044B00F086
:1014A0006BBB1368581C106019700846704700BF6A
:1014B0009BB1F8B5134406460F46541E5D1E01E06D
:1014C000AC4208D014F8011F3A463046FFF7D2FF6D
:1014D000431CF5D1F8BD0020F8BD0020704700BFC7
:1014E000936810B5144613B95360184610BD00F048
:1014F00041FE0023C4E9013310BD00BF2DE9F04FC8
:1015000088469FB015461C46814618B18369002B5A
:1015100000F0A280924B984500F0A480914B984532
:1015200000F0B180904B984508BFD9F80C80B8F80E
:101530000C30180740F19D80D8F81030002B00F0D7
:10154000988000230B932978884E059420238DF8EA
:10155000313030238DF832300127002974D02C46E9
:101560000B4604E014F8013F002B00F08F80252B80
:10157000F8D1B4EB050B40F08C802378002B63D0BE
:1015800000234FF0FF32CDE90723069309938DF82E
:101590005B301C93013404E0069A07FA03F313430B
:1015A00006932546052214F8011B304601F030F859
:1015B000831B0028F0D1069BD90644BF20228DF85A
:1015C0005B2029781A0744BF2B228DF85B202A293B
:1015D00070D1059A1168043200290592C0F29B80EF
:1015E0000991697801352E2976D0614C0322204675
:1015F00001F00EF838B1069B001B402404FA00F0FD
:1016000003430693013515F8011B5A488DF8301035
:10161000062200F0FDFF002800F08380564B002BCF
:101620006DD005AA0092554B424606A94846AFF335
:1016300000800390039B013306D00B9B039A29780B
:1016400013440B9300298AD1B8F80C305B0617D4E9
:101650000B981FB0BDE8F08F00F06CFD404B984533
:101660007FF45CAFD9F80480B8F80C3018073FF568
:1016700063AF4146484600F0E3FA00283FF461AF0B
:101680004FF0FF30E5E7D9F8088050E7B4EB050BE1
:10169000DAD0AA46C5F1010503E0934536D91AF818
:1016A000011F42464846FFF7E5FE013005EB0A02FE
:1016B000F3D1C9E7A1F13002092A94D8099B15F8A2
:1016C000011F03EB830302EB4303A1F13002092A5C
:1016D000F5D92E29099388D169782A292BD1059B20
:1016E000A9781A6807920433002A05F102000593CD
:1016F000B8BF4FF0FF330546B8BF079375E7059BAA
:10170000073323F007030833059396E70B9A2378F2
:101710005A440B9232E7494243F00203099106937F
:101720005FE705AA0092154B424606A9484600F01D
:10173000CBF803907EE7A1F130020023092A07933A
:1017400005F101053FF651AF15F8011F03EB8303C7
:1017500002EB4303A1F13002092AF5D9079344E7CC
:101760004C3C04082C3C04080C3C0408B43D040820
:10177000BC3D0408C03D040800000000B11400088E
:1017800010B4054C8446134620685DF8044B0A46A5
:101790006146FFF7B3BE00BF048000202DE9F84F7B
:1017A00092461F460A698B68DDF828909A42B8BFB6
:1017B0001A46CAF8002091F843300C46064613B189
:1017C0000132CAF80020226891065DD5DAF80030AF
:1017D0000233CAF80030226812F0060F11461ED1FB
:1017E000E168CB1A002BD8BF114618DD04F1190BA4
:1017F0004FF0000805E0E568DAF80030ED1A4545DD
:101800000CDD01235A4639463046C847013008F1FD
:101810000108F0D14FF0FF30BDE8F88F216894F84F
:101820004330003B18BF01238A060AD5E1185A1C31
:10183000302081F84300224494F8451082F8431088
:10184000023304F1430239463046C8470130E1D043
:10185000236803F00603042B1DD0A368226993427A
:1018600025DD4FF000089B1A98441A34002501E04A
:1018700045451CDA0123224639463046C847013027
:1018800005F10105F4D1C5E712F0060F12D0003BB7
:1018900018BF0123D5E7DAF80030E1682269C91AD8
:1018A000A368934221EAE178DDDC0029DDDC002039
:1018B000BDE8F88FE168DAF80030CB1A002BD8BF0A
:1018C000114693DCABE700BF2DE9F0470C4684B02E
:1018D0009046227E0C990746994604F14300002A5F
:1018E00033D0A2F15803DDB2202D67D8202B65D864
:1018F000DFE813F0DE00640064006400640064004C
:1019000064006400640064006400A3006E0064006E
:101910006400640064006E0064006400640064009D
:1019200021007F00C00064006400AE0064007F00FE
:1019300064006400E50023681A0640F104810B6826
:1019400062691D1D0D601B681A60002382462361B9
:10195000CDF80090434603AA21463846FFF71EFF04
:10196000013020D02369524641463846C8470130ED
:1019700019D02368E068039E9B0719D5831B002BB1
:1019800016DD04F1190A002504E0E068039E831BBC
:10199000AB420DDD0123524641463846C84701306F
:1019A00005F10105F1D14FF0FF3004B0BDE8F0873B
:1019B000B042B8BF304604B0BDE8F087012384F8D8
:1019C0004220236104F1420A002384F84330BFE738
:1019D00023681A0602D45E0600F1C1800D682A68E9
:1019E00004350D601546002A6BDBDFF884C10A263A
:1019F00010E023681D0640F19C800B681D1D0D60E2
:101A00001D68DFF86CC16F2A0CBF08260A26002368
:101A100084F843306268A260002A7FDB236823F0E9
:101A200004032360002D5BD1002A79D18246082E61
:101A300065D0A0EB0A0020618AE70B6801221868D4
:101A400004330B6004F1420A84F842002261BBE7D0
:101A50000B686268181D0860D3F800A0002150468A
:101A600000F0D6FD002800F08180A0EB0A00606045
:101A70002061A9E7236843F0200323607822DFF880
:101A8000F4C084F845200A68151D0D601D0643D476
:101A9000590641D51588DE0744BF43F02003236073
:101AA000002D44D1236823F0200323601026AEE7E5
:101AB000582384F84530DFF8B8C02368E3E723688B
:101AC000DCE76268A2602D21002AC5F1000584F8D8
:101AD000431002DB23F004032360DFF894C00A26DE
:101AE0008246B5FBF6F306FB13512A461CF801109B
:101AF0000AF8011DB2421D46F3D2082E99D123687F
:101B0000D90796D5626823699A4292DC30230AF895
:101B1000013C0AF1FF3A8CE71568BCE7002DDFD1E4
:101B20009CF8003084F8423004F1420A7FE7102626
:101B30006DE713F0400F0B6803F104050D600CBF57
:101B40001D681D885DE713F0400F0B68626903F1A3
:101B500004050D601B6814BF1A801A60F5E60A6858
:101B6000B2F9005004320A602A463CE760687FE719
:101B7000C83D0408DC3D0408F8B50D461446064689
:101B800008B1836943B3254B9C422AD0244B9C4225
:101B900029D0244B9C4208BFF468A389A269A260A3
:101BA0001A0722D5236903B322686169D31AEDB2FB
:101BB00099422F4629DD0133A1680139A160511CEA
:101BC0002160157062699A4216D0A389DB0701D59E
:101BD0000A2D11D03846F8BD00F0ACFA0F4B9C42EC
:101BE000D4D17468D9E7B468D7E72146304600F00D
:101BF00027F838B92369D7E72146304600F034F991
:101C00000028E7D04FF0FF37E4E72146304600F0E8
:101C10002BF90028F6D122680123CDE74C3C0408BB
:101C20002C3C04080C3C040810B4044C03460A463F
:101C300020685DF8044B1946FFF79EBF0480002022
:101C40003C4B70B51D6806460C460DB1AB69E3B15F
:101C5000394B9C421FD0394B9C424DD0384B9C4253
:101C600008BFEC68B4F90C3018079AB219D521698D
:101C700011B312F001002FD00020A0606069404233
:101C8000A06100292ED0002070BD284600F052FA35
:101C9000294B9C42DFD16C68B4F90C3018079AB21A
:101CA000E5D4D1063ED5520728D4216943F0080374
:101CB000A3819AB20029DCD102F42070B0F5007F34
:101CC000D7D02146304600F011FCB4F90C30216920
:101CD0009AB212F00100CFD1950758BF6069A06099
:101CE0000029D0D1120658BF0846CDD543F0400395
:101CF000A3814FF0FF3070BDAC68B3E7616B51B1A9
:101D000004F14402914204D0304600F0E7FDB4F9FA
:101D10000C300022626321690022C4E9001223F022
:101D20002403C3E7092243F0400332604FF0FF3041
:101D3000A38170BD048000204C3C04082C3C0408A6
:101D40000C3C040808B5062000F052FF012002F008
:101D50004FFA00BF8B891A072DE9F0410C468046E7
:101D60003FD44A68002A58DDE66A002E52D000228D
:101D7000D8F80050C8F8002013F4805251D1012344
:101D8000216A4046B047431C5ED0A389E66A5F07DC
:101D900005D56368C01A636B0BB1236CC01A216A46
:101DA000024600234046B047411C3CD1D8F80030E1
:101DB000002B38D01D2B01D0162B4DD123690022CA
:101DC000C4E90032616BC8F8005019B304F1440350
:101DD000994202D0404600F081FD00206063BDE8DA
:101DE000F0810E69B6B10D680E609A070CBF4B69A1
:101DF0000023AD1B8B600BE02B463246216AA76A9D
:101E00004046B847B0F1000CA5EB0C05664413DD65
:101E1000002DF1DC0020BDE8F0810A6C002AA3DC73
:101E2000F8E7606DB3E70023636023692360A3894B
:101E3000DB04C7D56065C5E7A38943F040034FF0D5
:101E4000FF30A381BDE8F081D8F80030002B9CD092
:101E50001D2B06D0162B04D0A38943F04003A38189
:101E6000D9E7C8F80050D5E738B50B69BBB10D46C6
:101E7000044608B18369B3B10D4B9D4211D00D4B9F
:101E80009D4213D00C4B9D4208BFE568B5F90C305C
:101E90002BB129462046BDE83840FFF75BBF002044
:101EA00038BD6568F2E700F045F9E5E7A568EDE7BC
:101EB0004C3C04082C3C04080C3C040838B540B3E6
:101EC00003690446E3B1174B1D680DB1AB69CBB193
:101ED000154B9C420FD0154B9C4221D0144B9C4279
:101EE00008BFEC68B4F90C3053B121462846BDE870
:101EF0003840FFF72FBF6C68B4F90C30002BF4D1D9
:101F0000002038BD284600F015F9074B9C42E2D16D
:101F1000F1E7084B08491868BDE8384000F0C2BA3C
:101F2000AC68DFE7048000204C3C04082C3C04082B
:101F30000C3C0408083C0408691E00080020704797
:101F4000014900F0AFBA00BF691E000800207047C9
:101F500070B568224D1E02FB05F50E4605F17401B1
:101F600000F01EFD044640B100210C30C4E900160B
:101F7000A06005F16802FEF731FF204670BD00BF8A
:101F8000274B2DE9F0411E68B369074653B3483625
:101F90004FF00408D6E90134013B04D51EE05A1C79
:101FA00004F168041AD0B4F90C50013B002DF6D1AD
:101FB0001C4B6566C4E90055C4E90253C4E90455E5
:101FC000A5610822294604F15C00FEF707FFC4E979
:101FD0000D55C4E912552046BDE8F08135682DB194
:101FE0002E46D7E7304600F01FF8D0E74FF4D67101
:101FF000384600F0D5FC044668B10560C0F804809E
:102000000C302946A06025464FF4D072FEF7E6FE5C
:1020100034602E46BEE70C2330603B60DBE700BF38
:10202000083C04080100FFFF2DE9F84F344B354907
:102030001A68816290424FF00003C0E912330365D1
:1020400004BF012383610546FFF79AFF68602846B5
:10205000FFF796FFA8602846FFF792FF6F68E860D9
:1020600000240423C7E9024308222146C7E90044AB
:10207000C7E904447C66BC6107F15C00FEF7AEFE74
:10208000DFF88CB0AE68DFF88CA0DFF88C90DFF85A
:102090008C801D4BC7F828A0C7E9087BC7F82C9097
:1020A000C7F830800822F360C6E90044C6E904445A
:1020B0007466B460B461214606F15C00FEF78EFEE2
:1020C000C6E9086BC6E90AA9C6F83080EE680F4B6E
:1020D000F360C6E90044C6E904447466B460B461C0
:1020E0002146082206F15C00FEF778FE0123C6E9CE
:1020F000086BC6E90B98C6F828A0AB61BDE8F88F5D
:10210000083C0408411F00080900010012000200F9
:10211000612D0008892D0008C92D0008E92D00084F
:10212000024B0349186800F0BDB900BF083C040821
:10213000691E0008836903B976E77047704700BFDE
:10214000704700BF704700BF704700BF024B034994
:10215000186800F087B900BF048000203D1F000808
:10216000024B0349186800F07DB900BF04800020CD
:102170004D1F00089368002B00F085802DE9F04F7B
:10218000B1F90C300C461907804683B0174698B257
:1021900025D523691BB310F002033D682DD04FF005
:1021A000000ADFF8BCB25646B9465E453346524691
:1021B00028BF5B464046002E52D0216AA76AB84726
:1021C000002856DDD9F808301B1A8244361AC9F89F
:1021D0000830002BE9D1002003B0BDE8F08F214684
:1021E0004046FFF72DFD002840F03681B4F90C3051
:1021F0003D6898B210F00203D1D110F0010944D12A
:102200004E46009746B38205D4F808B040F183806B
:10221000B3455A4600F2B28010F4906F40F0BF8090
:1022200020680192494600F0DDFAA368019AA3EB09
:102230000B012368A1601344B24623600026009B73
:102240009868A0EB0A00D14498600028C3D0B4F984
:102250000C0080B2002ED6D1D5E900960835D1E722
:10226000D5E900A60835A0E721464046FFF7FCFD6A
:1022700080B3B4F90C3043F040034FF0FF30A3813A
:1022800003B0BDE8F08F002070471E46AA4699466D
:1022900018461D46009756B388B34A46D4E904133E
:1022A0002068B24228BF3246884205D9A16803EBB4
:1022B000010B5A4500F3A680934263DC216AA76AAA
:1022C0002A464046B847B0F1000BD2DDB9EB0B0906
:1022D000CAD00120009A9368A3EB0B035D44A6EBE0
:1022E0000B069360002B3FF476AF002ED4D10AF199
:1022F000080353E902569A460833002EF9D03246B5
:102300000A21284600F084F9002800F09C80013062
:10231000A0EB0509C1E720682369984216D86369D4
:10232000B34213D86FF00042B24228BF3246216A4E
:1023300092FBF3F2A76A02FB03F340464A46B84712
:10234000B0F1000A95DDA6EB0A0678E7B345DA4658
:1023500028BFB2465246494600F044FAA3682268B4
:10236000A3EB0A035244A3602260002BEBD1214669
:102370004046FFF779FD0028E5D07AE72068B346AC
:1023800032464EE72946019200F02CFA019AA368E2
:102390009B1AA360236813442360934696E723683F
:1023A0002169A3EB010B636903EB430A0AEBDA7AB9
:1023B0000BF101034FEA6A0A33445345524684BF86
:1023C0009A46524643052CD51146404600F0E8FA9D
:1023D00000283BD05A462169019000F069F9A28992
:1023E000019B22F4906242F08002A28103EB0B0079
:1023F0002361AAEB0B03C4F814A0A3602060B346CA
:1024000032460EE729465A4600F0ECF923685B4451
:10241000236021464046FFF727FD00283FF456AFD2
:1024200027E7404600F016FB03460028DED121696D
:10243000404600F053FAB4F90C300C2223F080032C
:10244000C8F8002017E7721C914627E70C22B4F960
:102450000C30C8F800200EE74FF0FF30BCE600BF9C
:1024600000FCFF7F2DE9F041884600F14807002677
:10247000D7E90154013D0FD4A389012B05F1FF35A4
:1024800006D9B4F90E300133204601D0C0470643C7
:102490006B1C04F16804EFD13F68002FE8D130468F
:1024A000BDE8F0812DE9F8430746884600F148066B
:1024B0004FF00009D6E90154013D11D4A389012B45
:1024C00005F1FF3508D9B4F90E300133214603D0A8
:1024D0003846C04749EA00096B1C04F16804EDD195
:1024E0003668002EE6D14846BDE8F883F0B58B8902
:1024F0000C46990797B007D504F147030122C4E9B8
:102500000432236017B0F0BDB4F90E10002905465F
:102510002DDB6A4600F094FC002827DB019E06F4C0
:1025200070464FF48067A6F50056B6FA86F639462F
:102530002846760900F034FA30B3A3891A4AAA6211
:1025400043F08003C4E90407A3812060002ED9D0A2
:10255000B4F90E10284600F089FC0028D2D0A389D7
:1025600023F0030343F00103A381CBE7A38913F016
:10257000800F14BF40274FF4806739462846002655
:1025800000F00EFA0028D8D1B4F90C309A05B9D46D
:1025900023F0030304F1470243F002030121C4E9DD
:1025A0000421A3812260ADE7411F000870B50C46ED
:1025B000B1F90E10002996B016461D4613DB6A4687
:1025C00000F03EFC00280EDB019901F47041A1F5FA
:1025D0000051B1FA81F14FF480634909002029606C
:1025E000336016B070BDB4F90C3000221B062A60AF
:1025F00004D540230020336016B070BD4FF48063D3
:102600000020336016B070BD000000000000000024
:1026100001F0FF01102A2BDB10F0070F08D010F893
:10262000013B013A8B422DD010F0070F42B3F6D197
:10263000F0B441EA012141EA014122F007047FF0B0
:1026400000070023F0E80256083C85EA010586EA07
:10265000010685FA47F5A3FA87F586FA47F6A5FA43
:1026600087F68EB9EED1F0BC01F0FF0102F007024F
:1026700032B110F8013B013A83EA010313B1F8D1FA
:102680000020704701387047002D06BF35460338DB
:10269000073815F0010F07D1013015F4807F02BF14
:1026A000013015F4C03F0130F0BC0138704700BF65
:1026B000844641EA000313F003036DD1403A41D34D
:1026C00051F8043B40F8043B51F8043B40F8043B0C
:1026D00051F8043B40F8043B51F8043B40F8043BFC
:1026E00051F8043B40F8043B51F8043B40F8043BEC
:1026F00051F8043B40F8043B51F8043B40F8043BDC
:1027000051F8043B40F8043B51F8043B40F8043BCB
:1027100051F8043B40F8043B51F8043B40F8043BBB
:1027200051F8043B40F8043B51F8043B40F8043BAB
:1027300051F8043B40F8043B51F8043B40F8043B9B
:10274000403ABDD2303211D351F8043B40F8043B3B
:1027500051F8043B40F8043B51F8043B40F8043B7B
:1027600051F8043B40F8043B103AEDD20C3205D34B
:1027700051F8043B40F8043B043AF9D2043208D043
:10278000D2071CBF11F8013B00F8013B01D30B88B5
:1027900003806046704700BF082A13D38B078DD093
:1027A00010F003038AD0C3F10403D21ADB071CBF65
:1027B00011F8013B00F8013B80D331F8023B20F8CF
:1027C000023B7BE7043AD9D3013A11F8013B00F808
:1027D000013BF9D20B7803704B7843708B78837090
:1027E0006046704788420DD98B1883420AD900EBA6
:1027F000020CBAB1624613F801CD02F801CD99423C
:10280000F9D170470F2A0ED8034602F1FF3C4AB1B6
:102810000CF1010C013B8C4411F8012B03F8012F42
:102820006145F9D1704740EA01039B0750D1A2F1FD
:10283000100370B501F1200C23F00F0501F1100E0B
:1028400000F11004AC441B095EF8105C44F8105C05
:102850005EF80C5C44F80C5C5EF8085C44F8085CBC
:102860005EF8045C44F8045C0EF1100EE64504F1D9
:102870001004E9D1013312F00C0F01EB031102F047
:102880000F0400EB031327D0043C24F003064FEAA7
:10289000940C1E441C1F8E465EF8045B44F8045FD3
:1028A000B442F9D10CF1010402F0030203EB8403FA
:1028B00001EB840102F1FF3C4AB10CF1010C013B38
:1028C0008C4411F8012B03F8012F6145F9D170BD3B
:1028D00002F1FF3C03469BE72246EBE7002958D074
:1028E00030B551F8043C83B0002BA1F10404B8BF0B
:1028F000E418019000F0E2FA284A0198136833B115
:10290000A3420DD9216804EB010C63452FD063600D
:10291000146003B0BDE8304000F0D2BAA34210D832
:102920001A465B68002BF9D1116802EB010C644573
:1029300019D02FD36360546003B0BDE8304000F07D
:10294000BFBA116802EB010CA44516D022D8216849
:1029500004EB010C6345EDD11D685B682944C4E9B3
:1029600000135460D5E7236819441160D1E71D684E
:102970005B682944C4E90013CAE724682144541859
:10298000A3421160C5D1D3E900432144C2E9001339
:10299000BFE770470C230360BBE700BF00000024C3
:1029A000F8B5CD1C25F0030508350C2D38BF0C25D6
:1029B000002D064623DBA94221D8254F00F07EFAE0
:1029C0003A6822B3144603E063682246FBB11C4612
:1029D00023685B1BF8D40B2B15D8636894420CBF9B
:1029E0003B605360304600F06BFA04F10B00231D8E
:1029F00020F00700C21A01D01B1AA350F8BD0C2307
:102A000033600020F8BD23601C442560EAE7796844
:102A1000C9B12946304600F045F8431C0CD0C41C0F
:102A200024F00304A04205D0211A304600F03AF801
:102A3000013001D02560D5E70C233046336000F02B
:102A40003FFA0020F8BD304600F02CF87860E0E74F
:102A500000000024F8B51446F9B1CAB106460D4687
:102A600000F030FAA04202D32F463846F8BD214686
:102A70003046FFF795FF07460028F6D02246294644
:102A8000FFF716FE30462946FFF728FF3846F8BD07
:102A90002746FFF723FF3846F8BDBDE8F84011464A
:102AA000FFF77EBF38B5074D0022044608462A606E
:102AB00026F03AF8431C00D038BD2B68002BFBD021
:102AC000236038BD0800002438B5446C0CB10020E8
:102AD00038BD80210546FFF763FF0246686430B1C8
:102AE000031F7C3243F8044F9342FBD1EFE74FF0D2
:102AF000FF3038BD1F29F8B5054608D8466C0C468E
:102B000017464EB156F8240046F82470F8BD162337
:102B100003604FF0FF30F8BD8021FFF741FF06460C
:102B2000686440B1031F00F17C05002143F8041FD5
:102B30009D42FBD1E6E74FF0FF30F8BD1F2938B5C5
:102B4000054620D8426C0C466AB152F8213053B188
:102B5000012B16D0591C10D00025204642F82450D5
:102B60009847284638BD284600F0F8F82246014626
:102B70002846BDE8384000F0DBB81623036001208A
:102B800038BD002038BD162303604FF0FF3038BD3C
:102B90001F292AD8426C38B50C46054682B152F836
:102BA000243002EB84024BB1591C19D0012B15D0F3
:102BB0000025204615609847284638BD012038BDBD
:102BC0008021FFF7EDFE0246686458B1031F002123
:102BD0007C3043F8041F9842FBD1E0E7032038BD66
:102BE000022038BD4FF0FF3038BD4FF0FF30704746
:102BF00038B5144B1F281D681FD86A6C044662B193
:102C000052F820304BB1012B15D0591C0FD00025A4
:102C100042F820509847284638BD284600F09EF8D4
:102C2000224601462846BDE8384000F081B8162308
:102C30002B60012038BD002038BD16232B604FF0DB
:102C4000FF3038BD04800020124B1F2870B51E686D
:102C500008D80D46716C044649B151F8240041F87A
:102C6000245070BD162333604FF0FF3070BD8021BB
:102C70003046FFF795FE0146706440B1031F00F136
:102C80007C0C002243F8042F6345FBD1E5E74FF0AD
:102C9000FF3070BD0480002038B50B4B1D686C6C94
:102CA0000CB1002038BD80212846FFF779FE68640A
:102CB00038B1031F00F17C0243F8044F9342FBD16B
:102CC000EFE74FF0FF3038BD0480002038B5174BD8
:102CD0001F281D6826D86A6C044682B152F8243039
:102CE00002EB84024BB1591C1AD0012B16D00025DF
:102CF000204615609847284638BD012038BD802100
:102D00002846FFF74DFE0246686458B1031F0021B4
:102D10007C3043F8041F8342FBD1DFE7032038BD3A
:102D2000022038BD4FF0FF3038BD00BF04800020C6
:102D300070B50C46084D03460026204611461C4639
:102D40002E6000F045FB431C00D070BD2B68002BAB
:102D5000FBD0236070BD00BF0800002400F028BB3A
:102D600010B50C46B1F90E1000F0B6F8002803DBE0
:102D7000636D0344636510BDA38923F48053A3816D
:102D800010BD00BF002070472DE9F0410C46B1F99D
:102D90000C101F46CB05054616460BD421F4805176
:102DA000A1813B46B4F90E1032462846BDE8F041F9
:102DB00000F01EB8B4F90E100223002200F068F8EB
:102DC000B4F90C10EAE700BF10B50C46B1F90E10CB
:102DD00000F05EF8A389421C0EBF23F4805343F435
:102DE00080536065A38110BDB1F90E1000F016B8D4
:102DF00038B50C46084D8446114620461A46002335
:102E00002B60644600F0FCFA431C00D038BD2B68F0
:102E1000002BFBD0236038BD0800002438B5074DD7
:102E20000022044608462A6000F0B2FA431C00D093
:102E300038BD2B68002BFBD0236038BD0800002470
:102E400070B50C46084D03460026204611461C4628
:102E50002E6000F0A5FA431C00D070BD2B68002B3B
:102E6000FBD0236070BD00BF0800002438B5074DBB
:102E70000022044608462A6000F0A2FA431C00D053
:102E800038BD2B68002BFBD0236038BD0800002420
:102E900038B50C46084D8446114620461A46002394
:102EA0002B60644600F09CFA431C00D038BD2B68B0
:102EB000002BFBD0236038BD08000024704700BF02
:102EC000704700BF51F8040C0028A0F10400BCBFFB
:102ED0000B58C018704700BF38B50C46084D8446E3
:102EE000114620461A4600232B60644600F080FA03
:102EF000431C00D038BD2B68002BFBD0236038BDAD
:102F0000080000242DE9F0410E680C460546BEB1CC
:102F100037688FB1D7F80080B8F1000F08D0D8F823
:102F2000001009B1FFF7EEFF41462846FFF7D6FC37
:102F300039462846FFF7D2FC31462846FFF7CEFC3B
:102F400021462846BDE8F041FFF7C8BC314B1B685D
:102F5000834259D0426A70B50546002A4FD0D168E5
:102F600091B100268C5944B1214624682846FFF7C8
:102F7000B5FC002CF8D16B6AD9680436802EF1D1EB
:102F80002846FFF7ABFC6A6A116800293DD0284645
:102F9000FFF7A4FC696911B12846FFF79FFC6A6A34
:102FA0001AB111462846FFF799FCA96B11B12846C2
:102FB000FFF794FCE96B11B12846FFF78FFC296CF1
:102FC00011B12846FFF78AFCE96D11B12846FFF7D9
:102FD00085FCA96D11B12846FFF780FC696B11B122
:102FE0002846FFF77BFCAB696BB1AB6A2846984774
:102FF000A96C41B12846BDE87040FFF783BF416925
:103000000029C9D1D1E770BD704769690029C3D1D2
:10301000C7E700BF0480002081F0004102E000BF4C
:1030200083F0004330B54FEA41044FEA430594EA88
:10303000050F08BF90EA020F1FBF54EA000C55EAC3
:10304000020C7FEA645C7FEA655C00F0E2804FEA94
:103050005454D4EB5555B8BF6D420CDD2C4480EA76
:10306000020281EA030382EA000083EA010180EAA6
:10307000020281EA0303362D88BF30BD11F0004FF4
:103080004FEA01314FF4801C4CEA113102D040422A
:1030900061EB410113F0004F4FEA03334CEA133365
:1030A00002D0524263EB430394EA050F00F0A7807D
:1030B000A4F10104D5F1200E0DDB02FA0EFC22FA78
:1030C00005F2801841F1000103FA0EF2801843FA6C
:1030D00005F359410EE0A5F120050EF1200E012A5D
:1030E00003FA0EFC28BF4CF0020C43FA05F3C0189B
:1030F00051EBE37101F0004507D54FF0000EDCF114
:10310000000C7EEB00006EEB0101B1F5801F1BD3BC
:10311000B1F5001F0CD349085FEA30004FEA3C0CC0
:1031200004F101044FEA445212F5800F80F09A80B6
:10313000BCF1004F08BF5FEA500C50F1000041EBBA
:10314000045141EA050130BD5FEA4C0C404141EBBE
:103150000101013C28BFB1F5801FE9D291F0000FB9
:1031600004BF01460020B1FA81F308BF2033A3F168
:103170000B03B3F120020CDA0C3208DD02F1140C5F
:10318000C2F10C0201FA0CF021FA02F10CE002F19A
:103190001402D8BFC2F1200C01FA02F120FA0CFC93
:1031A000DCBF41EA0C019040E41AA2BF01EB0451DC
:1031B000294330BD6FEA04041F3C1CDA0C340EDCDA
:1031C00004F11404C4F1200220FA04F001FA02F31D
:1031D00040EA030021FA04F345EA030130BDC4F1DB
:1031E0000C04C4F1200220FA02F001FA04F340EAD0
:1031F0000300294630BD21FA04F0294630BD94F081
:10320000000F83F4801306BF81F480110134013D67
:103210004EE77FEA645C18BF7FEA655C29D094EAD8
:10322000050F08BF90EA020F05D054EA000C04BF56
:103230001946104630BD91EA030F1EBF0021002041
:1032400030BD5FEA545C05D14000494128BF41F0E0
:10325000004130BD14F580043CBF01F5801130BD44
:1032600001F0004545F0FE4141F470014FF00000CF
:1032700030BD7FEA645C1ABF194610467FEA655C80
:103280001CBF0B46024650EA013406BF52EA033522
:1032900091EA030F41F4002130BD00BF90F0000F10
:1032A00004BF0021704730B54FF4806404F132044C
:1032B0004FF000054FF0000150E700BF90F0000F05
:1032C00004BF0021704730B54FF4806404F132042C
:1032D00010F0004548BF40424FF000013EE700BFFC
:1032E00042004FEAE2014FEA31014FEA02701FBF8C
:1032F00012F07F4393F07F4F81F06051704732F0BE
:103300007F4208BF704793F07F4F04BF41F4002114
:10331000704730B54FF4607401F0004521F0004172
:103320001CE700BF50EA010208BF704730B54FF0FC
:1033300000050AE050EA010208BF704730B511F0FD
:10334000004502D5404261EB41014FF4806404F135
:1033500032045FEA915C3FF4D8AE4FF003025FEABB
:10336000DC0C18BF03325FEADC0C18BF033202EB3F
:10337000DC02C2F1200300FA03FC20FA02F001FA99
:1033800003FE40EA0E0021FA02F11444BDE600BF3C
:10339000024B58221A604FF0FF307047080000249B
:1033A000024B58221A604FF0FF307047080000248B
:1033B000024B58221A604FF0FF307047080000247B
:1033C000024B58221A600020704700BF08000024FA
:1033D000024B58221A604FF0FF307047080000245B
:1033E000024B58221A604FF0FF307047080000244B
:1033F000024B58221A604FF0FF307047080000243B
:10340000024B58221A604FF0FF307047080000242A
:1034100080B400AF00BFBD465DF8047B704780B448
:1034200000AF00BFBD465DF8047B704780B582B039
:1034300000AF174A174BD31A9B103B6000237B60E9
:103440007A683B689A4208DA124A7B6852F823305D
:1034500098477B6801337B60F2E7FFF7D9FF0E4A9C
:103460000E4BD31A9B103B6000237B607A683B684D
:103470009A4208DA094A7B6852F8233098477B68F9
:1034800001337B60F2E700BF0837BD4680BD00BF57
:1034900000000000FC20040804210408FC200408AB
:1034A00080B582B000AF0D4A0D4BD31A9B103B6024
:1034B0003B687B607B68002B09DD7B68013B084A29
:1034C00052F8233098477B68013B7B60F2E7FFF7B7
:1034D000A6FF00BF0837BD4680BD00BF0421040819
:1034E0000421040872B60B4C0B4D0C4B9D4204D0CA
:1034F00023682B6004340435F7E7094C094B9C42E0
:1035000003D0002323600434F8E7FFF78FFF00F0B7
:103510007DFE00BFED3D040800800020D881002022
:1035200000000024CC61042480B400AFFEE780B426
:1035300000AFFEE780B483B000AF00237B607B6800
:10354000034A9342F9DA7B6801337B60F7E700BFF7
:10355000C030460080B483B000AF0346FB80B7F9AB
:103560000630002B0BDBFB8803F01F020749B7F97D
:1035700006305B09012000FA02F241F8232000BF67
:103580000C37BD465DF8047B704700BF00E100E0EA
:1035900080B582B000AF78600B46FB701346BB70FD
:1035A0007B6800221A707B6800225A60BA78FB7828
:1035B0001946786800F02AF8074B1B785A1CD1B2DC
:1035C000054A11701946054A7B6842F821307B682C
:1035D00018460837BD4680BD180000240C000024A2
:1035E00080B483B000AF786039607B6800225A6095
:1035F0007B685B683A689A4201D900BFF8E700BF70
:103600000C37BD465DF8047B7047000080B582B082
:1036100000AF78600B46FB701346BB70FB78042B41
:1036200075D0042B00F3AB80022B02D0032B3CD0CF
:10363000A5E0554BD3F8E830534A43F00103C2F8F4
:10364000E830BB78002B0AD0012B1AD14FF0804311
:1036500014229A624FF080430922DA6211E04FF09F
:10366000804364229A624FF0804364229A624FF052
:10367000804364229A624FF0804340F2E732DA627C
:1036800000BF4FF08043DB684FF0804243F00103FE
:10369000D3604FF080431B684FF0804243F001033A
:1036A00013601C20FFF756FF6AE0374BD3F8E83071
:1036B000354A43F00203C2F8E830BB78002B08D04B
:1036C000012B14D1314B14229A62304B0922DA6259
:1036D0000DE02E4B64229A622C4B64229A622B4B93
:1036E00064229A62294B40F2E732DA6200BF274B2C
:1036F000DB68264A43F00103D360244B1B68234A4E
:1037000043F0010313601D20FFF724FF38E01E4B38
:10371000D3F8E8301C4A43F00403C2F8E830BB7821
:10372000002B0ED0012B1AD1194B12229A62184B82
:1037300012229A62164B12229A62154B6322DA62A7
:103740000DE0134B64229A62114B64229A62104B73
:1037500064229A620E4B40F2E732DA6200BF0C4BF1
:10376000DB680B4A43F00103D360094B1B68084A2E
:1037700043F0010313601E20FFF7ECFE00E000BFE2
:1037800000BF0837BD4680BD004402580004004019
:103790000008004080B400AF4FF080431B694FF039
:1037A000804223F001031361064B1B6801221A704B
:1037B000044B1B685A6801325A6000BFBD465DF871
:1037C000047B70470C00002480B400AF094B1B69D8
:1037D000084A23F001031361074B5B6801221A704A
:1037E000064B4AF6AA221A6000BFBD465DF8047B6C
:1037F000704700BF000400400C000024004800583F
:1038000080B500AF0A4B1B69094A23F0010313611D
:10381000084B9B6801221A70074B1B68184600F082
:1038200067F8054B1B68184600F004F900BF80BD1F
:10383000000800400C0000241C00002480B483B069
:1038400000AF0346FB80B7F90630002B0BDBFB888B
:1038500003F01F020749B7F906305B09012000FA9F
:1038600002F241F8232000BF0C37BD465DF8047B0F
:10387000704700BF00E100E080B582B000AF786023
:103880007B6800221A707B6800225A707B680022D5
:103890009A707B680022DA707B6800221A717B685C
:1038A00000225A717B680022DA807B6800221A812C
:1038B0007B6800225A817B6800221A737B68002291
:1038C0005A737B6800229A737B680022DA737868E7
:1038D00000F0A8FA786800F069FA044A7B6813607F
:1038E0007B6818460837BD4680BD00BF1C00002419
:1038F00080B483B000AF78604C4B1B69DB08DBB24F
:1039000003F00103DAB24A4B1B699B09DBB203F0F7
:103910000203DBB21343DAB27B685A737B681B89FC
:10392000642B02D17B6863221A817B681B7B032B8B
:1039300015D17B685B7B012B06D17B681B89013B22
:103940009AB27B681A8157E07B685B7B022B53D16C
:103950007B681B8901339AB27B681A814CE07B68D3
:103960001B7B022B15D17B685B7B032B06D17B680D
:103970001B89013B9AB27B681A813DE07B685B7BC7
:10398000002B39D17B681B8901339AB27B681A817D
:1039900032E07B681B7B012B15D17B685B7B002BA6
:1039A00006D17B681B89013B9AB27B681A8123E0B0
:1039B0007B685B7B032B1FD17B681B8901339AB229
:1039C0007B681A8118E07B681B7B002B14D17B6815
:1039D0005B7B012B06D17B681B8901339AB27B6824
:1039E0001A8109E07B68DB7B022B05D17B681B8990
:1039F000013B9AB27B681A817B681B89652B02D1D7
:103A00007B6863221A817B681B894FF6FF729342A1
:103A100002D17B6800221A817B685A7B7B681A730B
:103A200000BF0C37BD465DF8047B704700000258AC
:103A30000004025880B483B000AF78604C4B1B691F
:103A40001B0ADBB203F00103DAB24A4B1B691B0904
:103A5000DBB203F00203DBB21343DAB27B68DA7342
:103A60007B685B89642B02D17B6863225A817B6807
:103A70009B7B032B15D17B68DB7B012B06D17B68FD
:103A80005B89013B9AB27B685A8157E07B68DB7B9C
:103A9000022B53D17B685B8901339AB27B685A81D0
:103AA0004CE07B689B7B022B15D17B68DB7B032B77
:103AB00006D17B685B89013B9AB27B685A813DE005
:103AC0007B68DB7B002B39D17B685B8901339AB241
:103AD0007B685A8132E07B689B7B012B15D17B6828
:103AE000DB7B002B06D17B685B89013B9AB27B684C
:103AF0005A8123E07B68DB7B032B1FD17B685B89CA
:103B000001339AB27B685A8118E07B689B7B002B5B
:103B100014D17B68DB7B012B06D17B685B89013389
:103B20009AB27B685A8109E07B68DB7B022B05D166
:103B30007B685B89013B9AB27B685A817B685B89B1
:103B4000652B02D17B6863225A817B685B894FF6C3
:103B5000FF72934202D17B6800225A817B68DA7B34
:103B60007B689A7300BF0C37BD465DF8047B7047D5
:103B7000000002580004025880B584B000AF78609D
:103B80000B467B800023FB607B88FA689A4206DA4A
:103B9000786800F01FF8FB680133FB60F4E700BFB2
:103BA0001037BD4680BD80B584B000AF78600B464D
:103BB0007B800023FB607B88FA689A4206DA78688B
:103BC00000F036F8FB680133FB60F4E700BF103704
:103BD000BD4680BD80B582B000AF7860786800F0E7
:103BE00055F8124B1B680A211846FFF7F9FC786854
:103BF00000F070F80D4B1B680A211846FFF7F0FC27
:103C0000786800F08BF8094B1B680A211846FFF70B
:103C1000E7FC786800F0A6F8044B1B680A211846F8
:103C2000FFF7DEFC00BF0837BD4680BD0C00002456
:103C300080B582B000AF7860786800F093F8124BDE
:103C40001B680A211846FFF7CBFC786800F066F87D
:103C50000D4B1B680A211846FFF7C2FC786800F07C
:103C600039F8094B1B680A211846FFF7B9FC786838
:103C700000F00CF8044B1B680A211846FFF7B0FC53
:103C800000BF0837BD4680BD0C00002480B483B05F
:103C900000AF78600E4B9B690D4A43F001039361BE
:103CA0000B4B9B690A4A43F400339361084B9B69B1
:103CB000074A43F480239361054B9B69044A43F40C
:103CC0008003936100BF0C37BD465DF8047B7047ED
:103CD0000004025880B483B000AF78600E4B9B693B
:103CE0000D4A43F4803393610B4B9B690A4A43F0BE
:103CF00002039361084B9B69074A43F48023936155
:103D0000054B9B69044A43F48003936100BF0C3761
:103D1000BD465DF8047B70470004025880B483B050
:103D200000AF78600E4B9B690D4A43F4803393617A
:103D30000B4B9B690A4A43F400339361084B9B6920
:103D4000074A43F004039361054B9B69044A43F41B
:103D50008003936100BF0C37BD465DF8047B70475C
:103D60000004025880B483B000AF78600E4B9B69AA
:103D70000D4A43F4803393610B4B9B690A4A43F429
:103D800000339361084B9B69074A43F48023936196
:103D9000054B9B69044A43F04003936100BF0C3715
:103DA000BD465DF8047B70470004025880B483B0C0
:103DB00000AF78601A4B1B68194A23F002031360A6
:103DC000174B1B68164A43F001031360144B1B6822
:103DD000134A23F008031360114B1B68104A43F089
:103DE000040313600E4B1B680D4A23F0200313607D
:103DF0000B4B1B680A4A43F010031360084B1B6807
:103E0000074A23F400531360054B1B68044A43F42C
:103E10008053136000BF0C37BD465DF8047B7047CC
:103E20000004025880B582B000AF78607B4BD3F8B5
:103E3000E0307A4A43F00403C2F8E030784B1B6864
:103E4000774A23F0C0031360754BDB68744A23F094
:103E5000C003D360714BD3F8E030704A43F00103E4
:103E6000C2F8E0306F4B1B686E4A23F44033136096
:103E70006C4BDB686B4A23F44033D360694B1B689F
:103E8000684A23F0C0031360664BDB68654A23F081
:103E9000C003D360614BD3F8E030604A43F00203C3
:103EA000C2F8E030604B1B685F4A23F44063136044
:103EB0005D4BDB685C4A23F44063D3605A4B1B685C
:103EC000594A23F440431360574BDB68564A23F4A6
:103ED0004043D360524B1B68514A23F44023136084
:103EE0004F4BDB684E4A23F44023D3604B4BD3F84F
:103EF000F4304A4A43F00203C2F8F4304B4B4B4AC9
:103F00009B6893604FF0B0435B684FF0B04243F062
:103F1000080353604FF0B043D3F880304FF0B04205
:103F200043F00803C2F880304FF0B043D3F8883034
:103F30004FF0B04243F00803C2F888300920FFF781
:103F40007DFC3A4BDB68394A43F48053D3604FF031
:103F5000B0435B684FF0B04243F0800353604FF0D2
:103F6000B043D3F880304FF0B04243F08003C2F842
:103F700080304FF0B043D3F888304FF0B04243F078
:103F80008003C2F88830294BDB68284A43F01003CD
:103F9000D3604FF0B0435B684FF0B04243F0200372
:103FA00053604FF0B043D3F880304FF0B04243F04D
:103FB0002003C2F880304FF0B043D3F888304FF080
:103FC000B04243F02003C2F88830184B1B69174AEF
:103FD00043F0200313614FF0B0435B684FF0B042F1
:103FE00043F4007353604FF0B043D3F880304FF088
:103FF000B04243F40073C2F880304FF0B043D3F8BE
:1040000088304FF0B04243F40073C2F88830172074
:10401000FFF714FC00BF0837BD4680BD00440258BE
:10402000000802580000025800040258000400581A
:1040300080B400AF4FF0B043D3F888304FF0B042B7
:1040400043F00803C2F88830044B1B6801225A7001
:1040500000BFBD465DF8047B704700BF1C00002414
:1040600080B400AF4FF0B043D3F8883003F02003A2
:10407000002B14BF01230023DBB2002B08D0274BF9
:104080001B6801229A704FF0B0432022C3F88820A9
:104090004FF0B043D3F8883003F08003002B14BFF7
:1040A00001230023DBB2002B08D01C4B1B6801222C
:1040B000DA704FF0B0438022C3F888204FF0B0434D
:1040C000D3F8883003F48073002B14BF012300233E
:1040D000DBB2002B05D04FF0B0434FF48072C3F831
:1040E00088204FF0B043D3F8883003F40073002BDE
:1040F00014BF01230023DBB2002B09D0074B1B6840
:1041000001225A714FF0B0434FF40072C3F8882077
:1041100000BFBD465DF8047B704700BF1C00002453
:1041200080B582B000AF7860786800F039F87B68BD
:1041300018460837BD4680BD80B485B000AF7860B2
:1041400042F21073FB600C4B5B690B4A83F4007303
:10415000536100BFFB685A1EFA60002B14BF012395
:104160000023DBB2002BF5D100BF00BF1437BD46E2
:104170005DF8047B704700BF0004025880B483B030
:1041800000AF7860054B5B69044A23F40073536108
:1041900000BF0C37BD465DF8047B70470004025831
:1041A00080B483B000AF78600F4BD3F8E0300E4A94
:1041B00043F00203C2F8E0300C4B1B680B4A43F497
:1041C00080231360094B1B68084A23F40023136003
:1041D000064B9B68054A43F44023936000BF0C37AD
:1041E000BD465DF8047B7047004402580004025845
:1041F00080B483B000AF786000BFFDE780B400AF4B
:1042000000BFBD465DF8047B7047000080B5ADF689
:10421000C81D04AFD54BD3F8DC30D44A43F000536B
:10422000C2F8DC30052024F057FD0346C7F8A43956
:104230000023C7F8B4390BE0D7F8B439D7F8A4296C
:10424000134411221A70D7F8B4390133C7F8B439BE
:10425000D7F8B439042BEFDDC54BD3F88830C44A06
:1042600043F47003C2F888300023C7F8B039D7F898
:10427000B009FCF705FEBF4B00221A7007F69C132D
:104280001846FFF74DFF07F6941300220221184647
:10429000FFF77EF907F68C13002203211846FFF77B
:1042A00077F907F68413012204211846FFF770F905
:1042B00007F674131846FFF7DFFA62B600BF24F062
:1042C000E9FF00F0FBF907F51263184621F0FEFB49
:1042D00037F05CFF07F6F403184600F0FDFF07F621
:1042E000C803184602F078FD07F6C80040F2FF73D5
:1042F00001934FF4F07300934FF4487300220021B0
:1043000002F028FD07F6C8004FF6E0730093322351
:104310009FED990AF0224FF4C87103F096F807F563
:104320000763002240F2FF71184603F067FD07F5AE
:104330000760924B0022642103F051FE07F6180338
:104340001F224FF6E071184603F058FD07F61803D8
:104350004FF6100240F2FF71184603F0BDFD97F8CA
:1043600020391A4607F618031146184600F0BCFE1D
:10437000034607F61800012200920022002103F0F4
:1043800043FFD7F8242907F618031146184600F012
:10439000ABFE034607F618000122009223220021FB
:1043A00003F032FFD7F8282907F6180311461846FC
:1043B00000F09AFE034607F61800012200924622FA
:1043C000002103F021FF0023C7F8AC3912E0D7F831
:1043D000AC19D7F8AC395B021A46694B1A4407F599
:1043E00012604FF4007322F01FFCD7F8AC39013390
:1043F000C7F8AC39D7F8AC39002BE8DD07F5126007
:104400004FF400735F4A032122F00EFC07F512609F
:104410004FF400735C4A042122F006FC07F11003FC
:10442000184622F099FF07F6B813A3F6B413574ABB
:1044300007CA03C31A80564823F0C6F8002240F288
:10444000FF71534823F06CF9524BF0220021504881
:1044500023F0E7F9504B4FF4847200214C4823F0CD
:10446000E0F9002240F2FF71494823F059F97F2317
:10447000002240F20231464823F096F90023C7F8A3
:10448000A0393C4B1B78002B07D08F23002240F231
:1044900002313F4823F088F906E07F23002240F2F2
:1044A00002313B4823F080F9D7F8B0390133C7F81F
:1044B000B03907F61803D7F8B019184600F014FE03
:1044C000034607F61800072200924FF4DC72002121
:1044D00003F09AFEB7F87C391A4607F6180311461E
:1044E000184600F001FE034607F61800032200926A
:1044F0004FF4DC724FF4967103F086FEB7F87E3904
:104500001A4607F618031146184600F0EDFD03465B
:1045100007F61800032200924FF4DC724FF4FA7190
:1045200003F072FEB7F87A391A4607F618031146F7
:10453000184600F0D9FD034607F618000322009242
:104540004FF4DC724FF42F7103F05EFE97F875396B
:10455000002B50D0B7F87A39002B1FD0B7F87A3932
:10456000013B9BB2A7F87A391CE000BF0044025817
:1045700000ED00E0B4FC0324000016430821040809
:10458000200000242002002420040024902104089C
:104590002006002414210408602104084FF4B47399
:1045A000A7F87A39B7F87A3905339BB207F6C8000D
:1045B0004FF6E072039228220292052201920093A4
:1045C0009623F0224FF4C87103F026F9B7F87A3930
:1045D00007F6C8004FF4784203922822029205227F
:1045E000019200939623F0224FF4C87103F014F95E
:1045F000002387F8753997F87639002B37D0B7F84C
:104600007A39B3F5B47F06D0B7F87A3901339BB263
:10461000A7F87A3902E00023A7F87A39B7F87A398F
:1046200007F6C8004FF6E072039228220292052294
:10463000019200939623F0224FF4C87103F0ECF836
:10464000B7F87A3905339BB207F6C8004FF47842C1
:104650000392282202920522019200939623F022CF
:104660004FF4C87103F0D8F8002387F8763997F82B
:104670007939002B3FF405AF0523A7F8AA3910E0DC
:1046800097F89439002B0CD007F69C131846FFF7C7
:1046900053FDB7F8AA39013BA7F8AA39002387F8D8
:1046A0009439B7F8AA39002BEAD107F69C131846BB
:1046B000FFF764FD002387F87939E2E680B5CCB0D6
:1046C00000AF07F1E4034C2200211846FCF786FBFB
:1046D00007F1C403202200211846FCF77FFB07F5F1
:1046E0009873A3F594731846BC231A460021FCF76F
:1046F00075FB022030F0E8FB07F59873A3F596737D
:1047000000221A60784BDB6A774A23F00103D362F8
:10471000754BDB6A03F0010207F59873A3F59673F6
:104720001A60724B9B69714A43F4404393616F4B2B
:104730009B6903F4404207F59873A3F596731A60DA
:1047400007F59873A3F596731B6800BF674B9B69C9
:1047500003F40053B3F5005F14BF01230023DBB261
:10476000002BF3D1624B9B6A23F00303604A43F0B2
:10477000020393620123C7F8E4304FF48033C7F893
:10478000E8300223C7F808310223C7F80C310423AC
:10479000C7F810314FF4B473C7F814310223C7F8C7
:1047A00018310223C7F81C310223C7F82031042333
:1047B000C7F824310023C7F828310023C7F82C316B
:1047C00007F1E403184631F0B5FA0346002B14BF95
:1047D00001230023DBB2002B01D0FFF70FFD3F23A5
:1047E000C7F8C4300323C7F8C8300023C7F8CC305B
:1047F0000823C7F8D0304023C7F8D4304023C7F887
:10480000D8304FF48063C7F8DC304023C7F8E0307D
:1048100007F1C4030221184631F04EFF0346002B76
:1048200014BF01230023DBB2002B01D0FFF7E6FC0D
:1048300007F59873A3F594734FF4A0221A6007F557
:104840009873A3F5947301225A6207F59873A3F540
:10485000947330229A6207F59873A3F59473022239
:10486000DA6207F59873A3F5947308221A6307F5C3
:104870009873A3F5947302225A6307F59873A3F50E
:1048800094734FF440629A6307F59873A3F5947399
:104890000022DA6307F59873A3F5947300221A6473
:1048A00007F59873A3F594730022DA6407F59873FB
:1048B000A3F594734FF40012C3F8842007F10803A2
:1048C000184632F00BFD0346002B14BF01230023D2
:1048D000DBB2002B01D0FFF791FC30F00DFF00BFE1
:1048E00007F59877BD4680BD00040058004802587F
:1048F0000044025880B400AF114B1B68DB785A06A5
:104900000F4B1B681B795B051A430D4B1B685B79CA
:104910001B041A430A4B1B689B78DB021A43084BA3
:104920001B685B785B011343054A126812785208D2
:10493000D2B213431846BD465DF8047B704700BFF2
:10494000A058042480B582B000AF786039607B68DD
:10495000012B07D13B684FF6FF72934202D1034807
:1049600022F0FCFD00BF0837BD4680BD20060024B4
:1049700080B500AF4FF6FF710120FFF7E3FF80BD68
:1049800080B582B000AF78600B467B807B8819468B
:10499000786800F005F87B6818460837BD4680BD8A
:1049A00080B483B000AF78600B467B808F4BDB68B0
:1049B0008E4A23F00203D3608C4BDB688B4A23F0D2
:1049C0000503D360894B9B69884A43F44043936154
:1049D000864B9B6903F40053B3F5005F14BF0123BA
:1049E0000023DBB2002B00D0F2E7814B1B68804A2A
:1049F00043F4803313607E4B1B6803F40033002BB9
:104A00000CBF01230023DBB2002B00D0F3E7784B6F
:104A100000221A61764B00229A62754B02229A623A
:104A20007B88B3F5F07F00F0EB80B3F5F07F00F307
:104A30005D81402B03D0B3F5C87F67D056E16C4B46
:104A40009B6A6B4A43F020039362694B00221A630E
:104A5000674B00229A63664B00221A64644B1A6B00
:104A60006349644B13430B63614B0022DA62604B72
:104A7000DB6A5F4A23F00C03D3625D4BDB6A5C4A5E
:104A800043F00403D3625A4BDB6A594A43F00203F2
:104A9000D362574B9B69564A43F400639361544B6E
:104AA0009B69534A23F00F039361514B9B69504A12
:104AB00023F0400393614E4B9B694D4A23F0300332
:104AC00093614B4BDB694A4A23F04003D361484B67
:104AD000DB69474A23F03003D361454BDB69444A25
:104AE00023F48063D361424BDB69414A23F4407372
:104AF000D3613F4B1B6A3E4A23F0400313623C4B99
:104B00001B6A3B4A23F030031362FCE0384B9B6A7C
:104B1000374A43F040039362354B00221A63344B0B
:104B200000229A63324B00221A64314B1A6B3049CF
:104B3000314B13430B632E4B0022DA622C4BDB6AA2
:104B40002B4A43F00803D362294BDB6A284A23F03F
:104B50000203D362264B00229A61254B9B69244AAB
:104B600023F470639361224B9B69214A43F008034D
:104B700093611F4B9B691E4A43F0400393611C4B9A
:104B80009B691B4A23F030039361194BDB69184A78
:104B900043F04003D361164BDB69154A23F0300321
:104BA000D361134BDB69124A43F48063D361104B2A
:104BB000DB690F4A23F44073D3610D4B1B6A0C4A27
:104BC00043F0400313620A4B1B6A094A23F0300387
:104BD00013620A4B1B68094A23F00F031360074B4B
:104BE0001B68064A43F0020313608CE00048025839
:104BF00000440258400201016703010100200052F5
:104C0000674B9B6A664A43F080039362644B0022C1
:104C10001A63634B00229A63614B00221A64604B53
:104C20001A6B5F495F4B13430B635D4B0022DA62E3
:104C30005B4BDB6A5A4A43F00C03D362584BDB6A86
:104C4000574A23F00203D362554B00229A61544B1A
:104C50009B69534A23F470639361514B9B69504A9B
:104C600043F0080393614E4B9B694D4A43F0400368
:104C700093614B4B9B694A4A23F030039361484B45
:104C8000DB69474A43F04003D361454BDB69444A43
:104C900023F03003D361424BDB69414A43F4806324
:104CA000D3613F4BDB693E4A23F44073D3613C4BF5
:104CB0001B6A3B4A43F040031362394B1B6A384A74
:104CC00023F030031362384B1B68374A23F00F037D
:104CD0001360354B1B68344A43F003031360304BB9
:104CE0009B6A2F4A43F0020393620CE02C4B1B6833
:104CF0002B4A23F480331360294B1B68284A43F066
:104D00000103136047E0264B4FF4D0525A63244B03
:104D1000DB6A234A43F4E023D362214B1B68204A19
:104D200043F0807313601E4B1B6803F00073002B6D
:104D30000CBF01230023DBB2002B00D0F3E7184B9C
:104D4000D3F8F430164A43F00203C2F8F430174B9C
:104D50001B6A164A43F001031362114B1B69104A88
:104D600023F0070313610E4B1B690D4A43F0030345
:104D700013610B4B1B6903F03803182B14BF01237D
:104D80000023DBB2002B00D0F3E7054B1B68044A7D
:104D900023F0010313600C37BD465DF8047B7047B8
:104DA0000044025890030101002000520004005802
:104DB00080B582B000AF7860786800F005F87B6855
:104DC00018460837BD4680BD80B483B000AF786018
:104DD000104BD3F8E0300F4A43F01003C2F8E03034
:104DE0000D4B1A680C4941F2555313430B600A4BA3
:104DF0001A680949094B13400B60074B9A6806492A
:104E000043F6FF7313438B6000BF0C37BD465DF85C
:104E1000047B7047004402580010025855D5FFFF2C
:104E200080B582B000AF87ED010A97ED010AFBF76C
:104E300033FAF0EE407AB0EE670A0837BD4680BD1F
:104E400080B582B000AF87ED010A97ED010AFBF74C
:104E500017FEF0EE407AB0EE670A0837BD4680BD17
:104E600080B483B000AF78607B681A46002313607B
:104E700053609360D36013617B68143300221A601F
:104E80005A609A60DA601A617B68002283F82820F1
:104E90007B6818460C37BD465DF8047B7047000000
:104EA00080B483B000AF7860054B9B69044A43F43B
:104EB0000043936100BF0C37BD465DF8047B70472B
:104EC0000000025880B483B000AF7860054B9B6946
:104ED000044A43F00043936100BF0C37BD465DF8C0
:104EE000047B70470000025880B582B000AF786044
:104EF0007B681846FFF7B4FF7B6818460837BD4645
:104F000080BD80B582B000AF78607B681846FFF73F
:104F1000EBFF7B6818460837BD4680BD80B483B080
:104F200000AF78600B467B807B881B0A9AB2064BE9
:104F3000D2B25A70044B7A88D2B25A7000BF0C3782
:104F4000BD465DF8047B7047FFFF006080B483B00E
:104F500000AF78600B467B807B881B0A9AB2064BB9
:104F6000D2B21A70044B7A88D2B21A7000BF0C37D2
:104F7000BD465DF8047B7047FFFF006080B483B0DE
:104F800000AF78600B467B8013463B807B881B0A12
:104F90009AB20B4BD2B21A70094B7A88D2B21A70FD
:104FA0003B881B0A9AB2064BD2B25A70044B3A881D
:104FB000D2B25A7000BF0C37BD465DF8047B704713
:104FC000FFFF006080B582B000AF78600B467B8049
:104FD0007B881B0A9BB21A464FF428517868FFF76A
:104FE000CDFF7B88DBB29BB21A4642F6012178687E
:104FF000FFF7C4FF00BF0837BD4680BD80B582B053
:1050000000AF78600B467B807B881B0A9BB21A46F8
:105010004FF42C517868FFF7B1FF7B88DBB29BB26D
:105020001A4642F601317868FFF7A8FF00BF08373B
:10503000BD4680BD80B584B000AFF860084611461B
:105040001A4603467B810B463B811346FB807B89D6
:105050001B0A9BB21A464FF42851F868FFF78EFFDF
:105060007B89DBB29BB21A4642F60121F868FFF752
:1050700085FFFB881B0A9BB21A4642F60221F8689C
:10508000FFF77CFFFB88DBB29BB21A4642F6032196
:10509000F868FFF773FF3B891B0A9BB21A464FF46F
:1050A0002C51F868FFF76AFF3B89DBB29BB21A46C6
:1050B00042F60131F868FFF761FF3B8B1B0A9BB298
:1050C0001A4642F60231F868FFF758FF3B8BDBB215
:1050D0009BB21A4642F60331F868FFF74FFF00BF54
:1050E0001037BD4680BD000080B487B000AF786047
:1050F00039603B687B610023FB747B69002B09D01E
:105100007B69674AA2FB0323DB087B61FB7C0133DD
:10511000FB74F2E73B687B617B68FA7C83F82820AC
:105120003B68002B13D17B68012283F828207B6821
:1051300093F82830013B7A683021D1547B6893F88A
:1051400028301A467B68002199547B68A2E000232E
:10515000BB747B6893F82830BA7C9A4280F08D80CB
:1051600079694F4BA3FB0123DA0813469B001344D4
:105170005B00CA1AFA60FB68002B08D17B6893F8C1
:1051800028305A1EBB7CD31A7A683021D154FB6870
:10519000012B08D17B6893F828305A1EBB7CD31AA8
:1051A0007A683121D154FB68022B08D17B6893F8CF
:1051B00028305A1EBB7CD31A7A683221D154FB683E
:1051C000032B08D17B6893F828305A1EBB7CD31A76
:1051D0007A683321D154FB68042B08D17B6893F89B
:1051E00028305A1EBB7CD31A7A683421D154FB680C
:1051F000052B08D17B6893F828305A1EBB7CD31A44
:105200007A683521D154FB68062B08D17B6893F866
:1052100028305A1EBB7CD31A7A683621D154FB68D9
:10522000072B08D17B6893F828305A1EBB7CD31A11
:105230007A683721D154FB68082B08D17B6893F832
:1052400028305A1EBB7CD31A7A683821D154FB68A7
:10525000092B08D17B6893F828305A1EBB7CD31ADF
:105260007A683921D1547B690D4AA2FB0323DB08FC
:105270007B61BB7C0133BB746BE77B6893F82830A0
:10528000082B06D87B6893F828301A467B680021E3
:1052900099547B6818461C37BD465DF8047B7047FF
:1052A000CDCCCCCC80B582B000AF786087ED000A61
:1052B0007B6803F11400D7ED007AB7EEE77A53EC80
:1052C000172B0449FBF776FE7B6814331846083722
:1052D000BD4680BD9C21040880B582B000AF7860D7
:1052E0007B681846FFF7BCFD786800F011F8786815
:1052F000FFF7E8FD786800F0D3F9044A7B68136093
:105300007B6818460837BD4680BD00BFB8FC032443
:1053100080B483B000AF78609B4BD3F8E0309A4AFA
:1053200043F00803C2F8E030984B1A689749984B4D
:1053300013430B60954B1A689449964B13400B60CE
:10534000924B9A689149944B13438B608F4B5A6AE6
:105350008E49924B13434B628C4B1A688B4948F62B
:105360000A2313430B60894B1A6888498C4B1340FE
:105370000B60864B9A6885494CF60F7313438B601C
:10538000824B1A6A8149874B13430B627F4B1B6820
:105390007E4A43F0500313607C4B1B687B4A23F02A
:1053A000A0031360794B9B68784A43F0F003936045
:1053B000754BD3F8E030744A43F01003C2F8E03084
:1053C000794B1B68784A43F42A131360764B1B68A9
:1053D000754A23F4AA131360734B9B68724A43F413
:1053E0007F139360704B1B6A6F4A43F04043136214
:1053F0006D4B5A6A6C4940F6CC4313434B62624B87
:10540000D3F8E030604A43F00103C2F8E030674B64
:105410001B68664A43F080431360644B1B68634A11
:1054200023F000431360614B9B68604A43F04043A4
:105430009360BFF35F8F00BF5D4B5B6A5C4A23F4F0
:10544000803353625B4B00225A605A4B00229A60B1
:10545000584B4FF0C042DA60564B00221A61554B50
:105460001B69544A43F001031361524B1B69514AB3
:1054700043F0360313614F4B4E4A1B6913614D4B8A
:105480001B694C4A43F4803313614A4B494A1B69F8
:105490001361484B474A1B691361464B454A1B69D8
:1054A0001361444B1B69434A43F040731361414B02
:1054B000404A1B6913613F4B05225A603C4B5B6AB3
:1054C0003B4A43F480335362BFF34F8F00BFBFF3B7
:1054D0006F8F00BF2C4BDB6C2B4A23F00303D3648C
:1054E000294BD3F8D430284A43F48053C2F8D4303F
:1054F000314B1B68304A23F4004313602E4B1B686A
:105500002D4A23F4807313602B4B1B682A4A23F423
:1055100000231360284B1B68274A23F4E023136001
:10552000254B1B68244A23F480431360224B1B68DD
:10553000214A43F0400313601F4B1B681E4A43F08F
:10554000010313601C4B1B681B4A23F00C03136000
:10555000194B1B68184A43F008031360164B1B686D
:10556000154A23F004031360134B1B68124A23F0FF
:1055700002031360104B1B680F4A23F030031360C3
:105580000D4B1B681AE000BF00440258000C025883
:10559000000080A0FFFFBFAF0000C0F000C000CC43
:1055A000FABAFFFFCC00CCC000100258000002582D
:1055B00000ED00E090ED00E000400052374A23F497
:1055C00000631360354B1B68344A23F400531360A7
:1055D000324B1B68314A23F4007313602F4B1B6856
:1055E0002E4A43F4805313602C4B1B682B4A23F440
:1055F00080131360294B1B68284A43F00043136053
:10560000264B5B68254A23F040535360234B5B686D
:10561000224A43F080535360204B5B681F4A23F0BB
:10562000F00353601D4B5B681C4A43F0F00353606A
:105630001A4B5B68194A23F00F035360174B5B68E2
:10564000164A43F008035360144B5B68134A23F473
:1056500070235360114B5B68104A23F4700353604E
:105660000E4B5B680D4A23F47F4353600B4B5B6822
:105670000A4A43F400635360084B5B68074A23F00F
:1056800070635360054B5B68044A43F0706353607A
:1056900000BF0C37BD465DF8047B704700400052E8
:1056A00080B586B002AF7860DB4B1B6832211846AC
:1056B000FDF796FF7868FFF705FCD74B1B68642160
:1056C0001846FDF78DFF7868FFF7EAFBD24B1B68A1
:1056D00032211846FDF784FF7B6855224FF4704154
:1056E0001846FFF74BFC7B68AA224FF201011846CF
:1056F000FFF744FC7B6852224FF202011846FFF785
:105700003DFC7B6808224FF203011846FFF736FC88
:105710007B6801224FF204011846FFF72FFC7B68DB
:1057200034224FF436411846FFF728FC7B683422B8
:105730004BF201611846FFF721FC7B6834224BF2E3
:1057400002611846FFF71AFC7B680D224FF43041C6
:105750001846FFF713FC7B680D224BF20101184637
:10576000FFF70CFC7B680D224BF202011846FFF795
:1057700005FC7B6824224FF437411846FFF7FEFBF7
:105780007B6824224BF201711846FFF7F7FB7B6818
:1057900024224BF202711846FFF7F0FB7B680D22C2
:1057A0004FF431411846FFF7E9FB7B680D224BF2BD
:1057B00001111846FFF7E2FB7B680D224BF2021144
:1057C0001846FFF7DBFB7B6824224FF4384118466C
:1057D000FFF7D4FB7B6824224BF601011846FFF744
:1057E000CDFB7B6824224BF602011846FFF7C6FB6F
:1057F0007B6800224FF432411846FFF7BFFB7B68FD
:1058000024224FF439411846FFF7B8FB7B68242265
:105810004BF601111846FFF7B1FB7B6824224BF6CB
:1058200002111846FFF7AAFB7B6805224FF43341AB
:105830001846FFF7A3FB7B6805224BF2013118469F
:10584000FFF79CFB7B6805224BF202311846FFF7FD
:1058500095FB7B6834224FF43A411846FFF78EFBE4
:105860007B6834224BF601211846FFF787FB7B68E3
:1058700034224BF602211846FFF780FB7B680B228F
:105880004FF435411846FFF779FB7B680B224BF24A
:1058900001511846FFF772FB7B680B224BF2025155
:1058A0001846FFF76BFB7B6800224FF43C4118461B
:1058B000FFF764FB7B68A3224BF601411846FFF714
:1058C0005DFB7B6800224BF602411846FFF756FB52
:1058D0007B6800224FF43D411846FFF74FFB7B6881
:1058E000A3224BF601511846FFF748FB7B680022C4
:1058F0004BF602511846FFF741FB7B6800224FF43C
:105900003E411846FFF73AFB7B6863224BF6016184
:105910001846FFF733FB7B6800224FF451411846CD
:10592000FFF72CFB7B6837224DF201111846FFF779
:1059300025FB7B6800224DF202111846FFF71EFB83
:105940007B6852224DF203111846FFF717FB7B6864
:1059500000224DF204111846FFF710FB7B687B22F2
:105960004DF205111846FFF709FB7B6800224DF246
:1059700006111846FFF702FB7B6899224DF20711CA
:105980001846FFF7FBFA7B6800224DF20811184613
:10599000FFF7F4FA7B68B1224DF209111846FFF7C0
:1059A000EDFA7B6800224DF20A111846FFF7E6FA7D
:1059B0007B68D2224DF20B111846FFF7DFFA7B68A5
:1059C00000224DF20C111846FFF7D8FA7B68F62238
:1059D0004DF20D111846FFF7D1FA7B6801224DF206
:1059E0000E111846FFF7CAFA7B6827224DF20F11F5
:1059F0001846FFF7C3FA7B6801224DF210111846D2
:105A0000FFF7BCFA7B684E224DF211111846FFF7E2
:105A1000B5FA7B68012201E00C0000244DF212115E
:105A20001846FFF7ABFA7B688C224DF2131118462B
:105A3000FFF7A4FA7B6801224DF214111846FFF714
:105A40009DFA7B68BE224DF215111846FFF796FAB3
:105A50007B6802224DF216111846FFF78FFA7B6819
:105A60000B224DF217111846FFF788FA7B680222C5
:105A70004DF218111846FFF781FA7B6848224DF263
:105A800019111846FFF77AFA7B6802224DF21A11B3
:105A90001846FFF773FA7B684A224DF21B1118462D
:105AA000FFF76CFA7B6802224DF21C111846FFF7D3
:105AB00065FA7B687E224DF21D111846FFF75EFAEB
:105AC0007B6802224DF21E111846FFF757FA7B68D9
:105AD000BC224DF21F111846FFF750FA7B680222D4
