:020000040800F2
:100000000080002079340008C3340008C934000897
:100010003B9C0308419C0308479C03080000000028
:100020000000000000000000000000004D9C0308DC
:100030005B9C030800000000699C0308779C030890
:10004000BD340008BD340008BD340008BD340008CC
:10005000BD340008BD340008BD340008BD340008BC
:10006000BD340008C53F0008BD340008BD34000899
:10007000BD340008BD340008BD340008BD3400089C
:10008000BD340008BD340008BD340008BD3400088C
:10009000BD340008BD340008BD340008F53F000839
:1000A000BD340008BD340008BD340008BD3400086C
:1000B000293700085D37000895370008BD3400086F
:1000C000BD340008BD340008BD340008BD3400084C
:1000D000BD340008BD340008BD340008BD3400083C
:1000E000BD340008BD34000800000000BD34000825
:1000F000BD340008BD340008BD340008BD3400081C
:10010000BD340008BD340008BD340008BD3400080B
:10011000BD340008BD340008BD340008BD340008FB
:10012000BD340008BD340008BD340008BD340008EB
:10013000BD340008BD340008BD340008BD340008DB
:1001400000000000000000000000000000000000AF
:10015000BD340008BD340008BD340008BD340008BB
:10016000BD340008BD340008BD340008BD340008AB
:10017000BD340008BD340008BD3400080000000094
:10018000BD340008BD340008BD340008BD3400088B
:10019000BD340008BD340008BD340008BD3400087B
:1001A000BD340008BD340008BD340008BD3400086B
:1001B000BD340008BD340008BD340008BD3400085B
:1001C000BD340008BD340008859C0308BD34000818
:1001D000BD340008999C0308BD340008BD340008F4
:1001E000BD340008BD340008BD340008BD3400082B
:1001F000BD340008BD340008BD340008BD3400081B
:10020000BD340008BD340008BD340008BD3400080A
:10021000BD340008BD340008BD340008BD340008FA
:10022000BD340008BD340008BD34000800000000E3
:10023000BD340008BD34000800000000BD340008D3
:10024000BD340008BD340008BD340008BD340008CA
:10025000BD340008BD340008BD340008BD340008BA
:10026000BD340008BD340008BD340008BD340008AA
:10027000BD340008BD340008BD3400080000000093
:10028000BD340008BD340008BD3400080000000083
:1002900000000000BD340008F8B510EE104AC4F3A9
:1002A0000A53B3F57D7FB7EEC07A1ED227EE077BE7
:1002B000B3F5667F6FD327EE074B27EE043B724BF7
:1002C00093ED0E5B93ED106B93ED0C0BA7EE050B0E
:1002D00093ED145BA4EE060B93ED126BA7EE056B8A
:1002E000A6EE030BB7EEC00BF8BD40F22E429342D0
:1002F00054D8654991ED086B27EE066BBDEEC66BD1
:1003000091ED0A5B16EE103A03F500031B1613F08D
:10031000020F06EE903A01F1700208BF0A46D807B4
:10032000B8EEE66BA6EE457B27EE076B1AD503F019
:10033000030301EBC30393ED005B92ED164B27EE35
:10034000057B27EE065B92ED1A3BA5EE047B26EEBD
:10035000055B92ED184BA6EE034BA4EE057BB7EEC2
:10036000C70BF8BD92ED0E4B26EE067B26EE073B43
:1003700092ED0C0B92ED105BA6EE040B92ED144B7C
:10038000A7EE050B92ED127BA6EE047BA7EE030B06
:10039000B7EEC00BF8BDB7EE000AF8BDB3F5FF6FBE
:1003A00050D23A4AC4F3836002EB8003C4F31601CF
:1003B00052F820501E6A186941F40001C4F3C25378
:1003C0009940A1FB066705FB01F33A46E0FB0123D8
:1003D000111C43F100550020101A05F0404163EB59
:1003E000010102F071FFAD0F294B9FED257B05EB5D
:1003F000D47441EC160B14F0020FA3F1700208BF85
:100400001346E90726EE077B27EE076B1ED504F09F
:10041000030402EBC40494ED005B93ED164B27EE4E
:10042000057B27EE065B93ED1A3BA5EE047B26EEDB
:10043000055B93ED184BA6EE034BA4EE057BB7EEE0
:10044000C70BF8BDBDE8F84000F060B893ED0E3B77
:1004500026EE065B26EE052B93ED0C0B93ED104B71
:10046000A6EE030B93ED127BA5EE040B93ED143B6C
:10047000A6EE037BA7EE020BB7EEC00BF8BD00BFE4
:10048000182D4454FB21193C10340408B0330408DF
:100490008034040810B582B004468DED010A00F0E6
:1004A00057FD9DED010A046002B010BD28B1F1EEC8
:1004B000407A27EE800A2220ECE7F0EE407A27EE21
:1004C000800A2220E6E700BF9FED010AEEE700BFA9
:1004D000000000109FED010AE8E700BF0000201AAD
:1004E0009FED010AE2E700BF000000709FED060AE1
:1004F000FFEE007AB7EE007A00284FF0220047FEA8
:10050000277A87EE800AC5E70000000070EE407A87
:10051000B4EE400A87EEA77AF1EE10FAB0EE470A81
:1005200001D62120B6E770472DE9F04F2DED068B5F
:1005300059EC108B9DB010EE102A4B468DED001B30
:100540001E0DCDE90423DDE90023701E40F2FD718C
:100550008842CDE90623B4464FEA135700F2E18002
:10056000C7F30A01A1F2BE317F2998BF002000F233
:10057000D880BFEE003BDDE90489DD4CDD49002574
:1005800018EB05054B4643EB0404C4F3463501EB79
:1005900045164FF0000C250DB8EB0C034FEA05553E
:1005A000029369EB0503039396ED129B91ED105BAB
:1005B0009DED02AB91ED0E6BAAEE093B91ED0C4B5C
:1005C000A3EE056B91ED0A7B91ED042BA3EE047B6A
:1005D00091ED005B23EE022B23EE024B96ED169B72
:1005E000A4EE067BB0EE446B241592EE036BB0EEE6
:1005F000462B06EE904A91ED021BB8EEE6AB96ED67
:10060000180BAAEE059B91ED086BAAEE010B33EED9
:10061000091B91ED065B39EE419B39EE039BA3EE7E
:10062000065B30EE090B31EE046BA4EE075B31EE96
:10063000461B23EE043B30EE022B31EE041B32EE60
:10064000011BA3EE051B9DED005B36EE017B36EE34
:10065000476B25EE075B8DED025BB0EE453B36EE5A
:10066000016BDDE902239DED005BC3F30A566FF4D5
:10067000727171183E2995EE073BA5EE063B00F21C
:10068000AD809D4B9DED024B93ED026B93ED007B96
:10069000B0EE465BA4EE075B8DED005B35EE466B7E
:1006A000DDE9004593ED047B93ED064B9DED025B88
:1006B00004F07F02921803EBC201A6EE075BB0EED6
:1006C000457B93ED0A5BA6EE047B33EE077B91ED51
:1006D0001C6B27EE072B22EE023B93ED084B37EE07
:1006E000066BD1E91E7CA7EE054BA2EE046B93EDE1
:1006F0000E5B93ED0C4B22180021520311EB070AFD
:10070000A7EE054B42EB0C0BA3EE046B002E78D04A
:100710004BEC10ABA6EE000B1DB0BDEC068BBDE89C
:10072000F08FDDE906124B180893134642EB0303E2
:100730000993DDE9081211F1FF331C4642F1FF3342
:100740001D466FF400116FF00100A94208BFA042DE
:10075000C0F05F81DDE9044523190A932B4645EB80
:1007600003030B93DDE90A4514F1FF330C9345F1C4
:10077000FF330D93DDE90C34A14208BF9842C0F06D
:100780008381DDE90434002B74F1000363DB002076
:10079000C7F30A01A1F2BE347F2C40F2FF7540F28C
:1007A000B180DDE90434DFF858914FF000084C4582
:1007B00008BF434500F0068140F2BD30814200F29F
:1007C0000481B7EE000B9DED007BA14508BF984565
:1007D00034BF37EE000B30EE470B9DE76145C0F2AA
:1007E0000C81B6F5816F40F2A380002A73F10003FB
:1007F000C0F2FC801DB0BDEC068BBDE8F04F00F0F0
:100800005FBB04F000423346134300F05A81B7EE59
:10081000003B3A4A00231AEB03030E934BEB02030F
:100820000F93DDE90E0141EC150B26EE057B35EE4D
:10083000076BB0EEC64BB4EEC34BF1EE10FA79D4B1
:100840009FED290B26EE000B1DB0BDEC068BBDE81D
:10085000F04F00F063BBC7F30A0140F2FE30814263
:1008600040F3968040F23340814200F35881401AB1
:100870004FF0FF3CA0F120030CFA03F40CFA00FE49
:10088000C0F120024EEA040E2CFA02F40A940A9CEB
:100890004EEA040E069C0CFA00FC24EA0C040894B0
:1008A000079C24EA0E040994DDE908452C436FD126
:1008B000069C24FA00F0079C94402043079CDC40EF
:1008C000204300F00100012814BF00204FF48020D5
:1008D000DDE904341D4624F000440495C6F30A0CF7
:1008E000059457E7AFF300800000000000001000FF
:1008F000AB6A19C068230408F03404080000E03F24
:100900000000F03FBCF1000F7FF433AE9FEDAA7BF7
:1009100049EC168B26EE077B53EC172BAE4D0024CB
:1009200023F000461319049346EB0503059320E6D4
:100930006646A6E6B5EEC06BF1EE10FA35EE465B04
:10094000BFEE004B35EE077B58BFB0EE434B36EEA3
:10095000040B34EE405B35EE066B36EE076B36EE7D
:10096000006B36EE446BB5EE406BF1EE10FA04D13D
:10097000324601F0004343EC162B9FED915B8DED69
:10098000185B9DED187B27EE057B8DED1A7B57E7F5
:1009900049EC108B1DB0BDEC068BBDE8F04F00F0AC
:1009A000AFBADDE904010318129381F400235B411F
:1009B0001393DDE91201894B00228B4208BF82426A
:1009C000C0F0A680B7EE000BA6E6DDE90434A14531
:1009D00008BF98452CBF01230023AF428CBF0027DE
:1009E0000127BB424FF000007FF404AF1DB0BDEC07
:1009F000068BBDE8F04F00F053BA9DED027BB7EED9
:100A0000000B37EE000B00283FF486AEB1EE400B32
:100A100082E6DDE908342343C3D0DDE904347049BC
:100A200000208C4208BF834261D0DDE904124B18DC
:100A30001093134642EB03031193DDE91001694B58
:100A400000228B4208BF824262D3DDE908459D4205
:100A500008BF94425CD1644B0022994208BF904287
:100A6000B0D0624B8B42079B4FF0FF3208BF8242EF
:100A70006FEA030334BF01220022DB0F9A4200F029
:100A800095809FED510B47E6DDE9043449EC178B67
:100A9000002B74F1000327EE070B42DB0020DDE999
:100AA0000A342343DDE9063472D1002B74F10003CC
:100AB000BFF632AE1DB0BDEC068BBDE8F04F00F0C6
:100AC00007BA4B4A1AEB010308EE103A9FED400BB0
:100AD0004BEB020308EE903AA6EE088B28EE000BD3
:100AE0001DB0BDEC068BBDE8F04F00F01FBADDE98C
:100AF00006124B18149382F400235B411593DDE931
:100B00001401364B00228B4208BF8242BFF45AAF19
:100B10009DED006B49EC178B37EE060BFCE50020D2
:100B2000D6E6C7F30A03A3F2FF32342AB6D8C3F5D8
:100B300086634FF0FF32A3F11D07033302FA07F17A
:100B4000DDE9068902FA03F6C3F1200C0E4322FA0E
:100B50000CFE46EA0E069A4028EA020029EA06013F
:100B600050EA01029AD128FA03F309FA0CFC43EA8D
:100B70000C0329FA07F73B4303F001030222D31ABF
:100B8000012B4FF000008AD1B1EE400B184686E7EA
:100B9000002B74F10003BFF6BFADB7EE006B86EE1D
:100BA000007B8DED167B9DED160BB5E59DED007B75
:100BB00027EE070BB0E500BF000000000000304347
:100BC0000000000000001000000000000000000015
:100BD000000000000000007F0000C0FC0000F0FFEB
:100BE0000000F03F0000E0FF0000E07FFFFFDF7F3C
:100BF0000000F0C000000000F0B510EE104AC4F391
:100C00000A53B3F57D7FB7EEC06A83B01BD226EEE0
:100C1000065BB3F5667F70D326EE052B25EE021B2F
:100C2000774B93ED1A3B93ED187B93ED164BA5EEA6
:100C3000037BA2EE046BB0EE460BA7EE010BB7EE02
:100C4000C00B03B0F0BD40F22E42934260D86C4915
:100C500091ED087B26EE077BBDEEC77B91ED0A5B2D
:100C600017EE103A03F500031B1613F0020F07EE00
:100C7000903A01F1700208BF0A46D807B8EEE77B48
:100C8000A7EE456BB0EE460B26EE067B1BD403F0B9
:100C9000030301EBC30393ED006B92ED165B20EEB3
:100CA000060B20EE076B92ED1A4BA6EE050B27EE16
:100CB000066B92ED185BA7EE045BA5EE060BB7EE94
:100CC000C00B03B0F0BD92ED0E4B27EE076B27EE85
:100CD000063B92ED0C0B92ED105BA7EE040B92ED30
:100CE000144BA6EE050B92ED126BA7EE046BA6EE6D
:100CF000030BB7EEC00B03B0F0BD220D12F4FF6F73
:100D0000DFD1B7EEC55B00EE104A8DED015AD8E792
:100D1000B3F5FF6F50D23B4AC4F3836002EB80030C
:100D2000C4F3160152F820501E6A186941F40001FC
:100D3000C4F3C2539940A1FB066705FB01F33A4691
:100D4000E0FB0123111C43F100550020101A05F0AF
:100D5000404163EB010102F0B7FAAD0F2A4B9FED62
:100D6000267B05EBD47441EC160B14F0020FA3F1B3
:100D7000700208BF1346E90726EE077B27EE076BD4
:100D80001FD404F0030402EBC40494ED005B93ED64
:100D9000164B27EE057B27EE065B93ED1A3BA5EE7F
:100DA000047B26EE055B93ED184BA6EE034BA4EEF9
:100DB000057BB7EEC70B84E703B0BDE8F040FFF753
:100DC000A5BB93ED0E3B26EE065B26EE052B93EDC1
:100DD0000C0B93ED104BA6EE030B93ED127BA5EEDF
:100DE000040B93ED143BA6EE037BA7EE020BB7EECC
:100DF000C00B66E7AFF30080182D4454FB21193C6B
:100E000010340408B03304088034040808B52DED0C
:100E1000028BB0EE408A00F021F80E4B93F90030BF
:100E200001330BD0B4EE488AF1EE10FA06D6DFEDAE
:100E30000A8AB4EEE88AF1EE10FA02D4BDEC028B15
:100E400008BD00F085F888EEA80ABDEC028B2123CE
:100E5000036008BD0080002000000000B1EEC00A61
:100E6000704700BF0000000010B582B08DED000B90
:100E7000044600F06DF89DED000B046002B010BD5B
:100E800082B050B1B1EE407B8DED007B9DED007BDB
:100E9000222020EE070B02B0E6E7B0EE407BF3E73E
:100EA0009FED010BECE700BF000000000000001008
:100EB0009FED010BE4E700BF000000000000581E9A
:100EC0009FED010BDCE700BF000000000000007098
:100ED00082B00028B7EE006BBFEE007B06FE077BFA
:100EE0008DED007B9DED000B9FED037B222080EEBE
:100EF000070B02B0B8E700BF0000000000000000D0
:100F0000B4EE400BF1EE10FA30EE407B87EE076B4B
:100F1000B0EE460B01D62120A6E77047B5EE400B98
:100F2000F1EE10FA00D0704722209DE79FED066B8E
:100F3000B0EEC07BB4EE467BF1EE10FA00DC7047F9
:100F4000222091E7AFF30080FFFFFFFFFFFFEF7F5D
:100F5000014B1868704700BF04800020F0B486077A
:100F600046D0541E002A3CD0CAB2034601E0013CE0
:100F700037D303F8012B9D07F9D1032C2AD9CDB221
:100F800045EA05250F2C45EA054534D9A4F11002A0
:100F900022F00F0C03F120071609674403F1100239
:100FA00042E9045542E902551032BA42F8D1721CA6
:100FB00014F00C0F03EB021204F00F0613D0331FD2
:100FC00023F003030433134442F8045B9342FBD140
:100FD00006F003042CB1CAB21C4403F8012B9C4256
:100FE000FBD1F0BC704734461346002CF3D1F8E730
:100FF00014460346C1E71A462646E0E738B5124BC9
:101000001D68AA6B04461AB10023C2E9044338BD27
:10101000182027F061FF0246A86378B10B4B1360DC
:1010200001200021C2E904010B23094809499381E9
:101030000023C2E90101C2E9044338BD064B074859
:10104000422100F093F800BF048000200E33CDABA6
:1010500034126DE6ECDE0500803E0408983E04087C
:1010600038B51A4B1C68A26B92B1146918495369C0
:10107000184801FB04F100FB0313A4FB0045611CAD
:101080001D4445F10003C2E9041323F0004038BDBC
:10109000182027F021FF0246A06388B1012000211B
:1010A000C2E904010A480C4C0C4B0D490D4D14606B
:1010B00053600B240346C2E904139560948138BD44
:1010C000094B0A484E2100F051F800BF048000206F
:1010D0002DF451582D7F954C0E33CDAB34126DE667
:1010E0002E7F954CECDE0500803E0408983E0408F7
:1010F0000CB430B59DB020AB0A4D53F8042B0291CF
:101100006FF00044069102A90193CDE904450794CC
:1011100000F050F9029B00221A701DB0BDE830406B
:1011200002B070470802FFFF0EB430B59CB01FAB91
:101130000C4C0D4D53F8042B01930146029106917E
:10114000206802A96FF00044CDE90445079400F03F
:1011500031F9029B00221A701CB0BDE8304003B088
:10116000704700BF048000200802FFFF00B50A4C52
:101170002568144685B01A460346E86844B1074D11
:101180000091CDE90154064900F022F800F0BAFEC2
:10119000044D2C46F4E700BF04800020CC3E040838
:1011A000DC3E0408D83E040808B513460022FFF7C9
:1011B000DDFF00BF0CB400B583B004AB53F8042BC3
:1011C000019300F05BFA03B05DF804EB02B07047E6
:1011D0000EB410B583B005AB064C53F8042B019345
:1011E0000146206800F04AFA03B0BDE8104003B0A1
:1011F000704700BF048000202DE9F0478F689F42B0
:101200000C461D46164637D88046888910F4906FE4
:101210000ED108683D462A46314601F063FBA268BC
:101220002368D71B2B44A76023600020BDE8F0870C
:10123000D1E90417236807EB4707A3EB010907EB84
:10124000D7776B1C7F104B44BB423A4684BF1F4686
:101250003A46430513D51146404601F00DFC82463F
:1012600008B321694A4601F0A3FAA38923F49063E5
:1012700043F08003A38107E008681F46CBE74046A0
:1012800001F054FC824650B1A7EB09030AEB0900B8
:101290006761C4F810A02060A3602F46BBE72169F6
:1012A000404601F08BFB0C23C8F80030A38943F0C3
:1012B0004003A3814FF0FF30B8E700BF2DE9F04FA6
:1012C000936883B09146002B6ED017688D68804676
:1012D0000C460868083744E0A38913F4906F2ED0B9
:1012E000D4E9041505EB4505A0EB010A05EBD5751E
:1012F0000AEB06006D100130A8422A4684BF05465D
:101300002A465B0537D51146404601F0B5FB00285B
:101310003BD052462169019001F04AFAA289019B13
:1013200022F4906242F08002A281A5EB0A0203EB54
:101330000A00656123612060A2603546B2465946C5
:10134000524601F0CFFAA068D9F808102368451B6F
:101350008E1B03EB0A00A5602060C9F808601EB36D
:10136000083757E902B6002EFAD0B542AA46B3D9DB
:101370003546B246E3E7404601F0D8FB0346002875
:10138000D3D12169404601F019FB0C23C8F8003085
:10139000A389002243F040034FF0FF30A381C9E945
:1013A000012203B0BDE8F08F0020C9F8040003B0AB
:1013B000BDE8F08F2DE9F04F884689890D069DB074
:1013C00092461C46814604D5D8F81020002A00F029
:1013D000F48030238DF82A309AF80030804D039441
:1013E0000021202209918DF829200126002B76D09A
:1013F000544603E014F8013F002B7AD0252BF9D195
:10140000B4EB0A0B78D12278002A68D000234FF081
:10141000FF32CDE90633013404938DF853301A932B
:10142000059204E0049A06FA03F313430493A246D8
:10143000052214F8011B284601F06AF9431B002815
:10144000F0D1049BD80644BF20228DF85320190701
:101450009AF8001044BF2B228DF853202A2958D126
:10146000039A1168043200290392C0F28180079127
:101470009AF801102E290AF101045DD0DFF870A15D
:101480000322504601F044F948B1049BA0EB0A0046
:101490004FF0400A0AFA00F0034301340493A246D5
:1014A00050481AF8011B8DF82810062201F030F977
:1014B000002863D04C4B002B53D003AB0093424623
:1014C0004A4B04A94846AFF3008007467A1C06D071
:1014D000099B3B4409939AF80030002B88D1B8F857
:1014E0000C305B0654BF09984FF0FF301DB0BDE8CB
:1014F000F08FB4EB0A0BF2D052465B4641464846A9
:10150000FFF77AFE0130EAD0099B22785B44099309
:101510007AE7A1F13002092A0BD8079B1AF8011FBC
:1015200003EB830302EB4303A1F13002092AF5D94F
:1015300007932E295446A1D161782A2928D1039BEB
:101540001A680592002A03F104030393B8BF4FF011
:10155000FF3204F10203AEBFA178A17805921C46C8
:101560008CE7039B073323F0070308330393AFE7AC
:10157000494243F002030791049379E703AB0093D8
:1015800042461A4B04A9484600F05CFA07469DE71C
:10159000A1F130020023092A04F1010405933FF66A
:1015A0006DAF14F8011F03EB830302EB4303A1F1BA
:1015B0003002092AF5D9059360E7402101F05CFA71
:1015C000C8F80000C8F8100018B14022C8F814206C
:1015D000FFE60C23C9F800304FF0FF3086E700BF6C
:1015E0000C3F0408183F040800000000F91100082F
:1015F000143F04089368013B002B936011DA10B488
:101600009469A34209DB0A2907D01368581C1060AB
:10161000197008465DF8044B70475DF8044B00F004
:101620008FBB1368581C106019700846704700BFC4
:101630009BB1F8B5134406460F465D1E541E01E0EB
:10164000AC4208D014F8011F3A463046FFF7D2FFEB
:10165000431CF5D1F8BD0020F8BD0020704700BF45
:10166000936810B5144613B95360184610BD00F0C6
:101670001FFE0023C4E9013310BD00BF2DE9F04F68
:1016800088469DB092461C46814618B18369002B5E
:1016900000F0A780924B984500F0A980914B9845A7
:1016A00000F0B680904B984508BFD9F80C80B8F888
:1016B0000C301D0740F1A280D8F81030002B00F04C
:1016C0009D8030238DF82A309AF80030874D03949E
:1016D0000021202209918DF829200126002B78D0A5
:1016E000544604E014F8013F002B00F09480252BB1
:1016F000F8D1B4EB0A0B40F091802278002A68D030
:1017000000234FF0FF32CDE90633013404938DF806
:1017100053301A93059204E0049A06FA03F3134334
:101720000493A246052214F8011B284600F0F0FF9E
:10173000431B0028F0D1049BD80644BF20228DF81B
:10174000532019079AF8001044BF2B228DF853201C
:101750002A2970D1039A1168043200290392C0F239
:10176000998007919AF801102E290AF1010475D089
:10177000DFF888A10322504600F0CAFF48B1049B5D
:10178000A0EB0A004FF0400A0AFA00F003430134CC
:101790000493A24656481AF8011B8DF82810062219
:1017A00000F0B6FF00287BD0524B002B6BD003AB70
:1017B00000934246504B04A94846AFF300800746C9
:1017C0007A1C06D0099B3B4409939AF80030002B01
:1017D00086D1B8F80C305B0617D409981DB0BDE867
:1017E000F08F00F045FD3E4B98457FF457AFD9F898
:1017F0000480B8F80C301D073FF55EAF41464846FF
:1018000000F0FEFA00283FF45CAF4FF0FF30E5E750
:10181000D9F808804BE7B4EB0A0BDAD052465B46A6
:1018200041464846FFF704FF0130D2D0099B227899
:101830005B44099362E7A1F13002092A0BD8079BA8
:101840001AF8011F03EB830302EB4303A1F13002FB
:10185000092AF5D907932E29544689D161782A2976
:1018600028D1039B1A680592002A03F1040303930D
:10187000B8BF4FF0FF3204F10203AEBFA178A178E8
:1018800005921C4674E7039B073323F007030833D4
:10189000039397E7494243F002030791049361E7FA
:1018A00003AB00934246144B04A9484600F0CAF823
:1018B000074685E7A1F130020023092A04F101045B
:1018C00005933FF655AF14F8011F03EB830302EBBA
:1018D0004303A1F13002092AF5D9059348E700BF77
:1018E000A43D0408843D0408643D04080C3F04083A
:1018F000183F04080000000031160008143F0408D7
:1019000030B4044C0D46134601462A46206830BCCC
:10191000FFF7B4BE048000202DE9F84F0C4609699A
:10192000A568DDF82890A942B8BF2946116094F84F
:101930004350924606461F4615B14A1CCAF800207D
:10194000236899065DD5DAF800200232CAF8002033
:10195000236813F0060F19461ED1E1688A1A002A7F
:10196000D8BF194618DD04F1190B4FF0000805E047
:10197000E568DAF80030ED1A45450CDD01235A46DA
:1019800039463046C847013008F10108F0D14FF020
:10199000FF30BDE8F88F216894F84330003B18BF52
:1019A00001238A060AD5E1185A1C302081F8430029
:1019B000224494F8451082F84310023304F14302A4
:1019C00039463046C8470130E1D0236803F00603AA
:1019D000042B1FD0A3682269934227DD4FF0000833
:1019E0009B1A98441A34002501E045451EDA01236C
:1019F000224639463046C847013005F10105F4D189
:101A0000C5E713F0060F14D094F84330003B18BF1D
:101A10000123D3E7D4E90231DAF800002269091A78
:101A2000934221EAE178DBDC0029DBDC0020BDE821
:101A3000F88FE168DAF800208A1A002AD8BF194620
:101A400091DCA9E72DE9F04385B00D7EDDF830C0CB
:101A50000C4606461746984601F1430E002D37D036
:101A6000A5F15801CBB2202B00F29F80202900F273
:101A70009C80DFE811F0A4009A009A009A009A0076
:101A80009A009A009A009A009A009A00DE00EB00F1
:101A90009A009A009A009A00EB009A009A009A0025
:101AA0009A002100B600C7009A009A00CC009A0064
:101AB000B6009A009A00660023681A0640F1158164
:101AC000DCF800306269191DCCF800101B681A6040
:101AD000002375462361CDF800803B4603AA2146CA
:101AE0003046FFF719FF013020D023692A463946D6
:101AF0003046C047013019D02368E16803989B073E
:101B000019D50B1A002B16DD04F11909002504E084
:101B1000E16803980B1AAB420DDD01234A463946B2
:101B20003046C047013005F10105F1D14FF0FF30DB
:101B300005B0BDE8F0838842B8BF084605B0BDE8EF
:101B4000F0832368DFF8F091782284F845201906A5
:101B5000DCF800203DD5111DCCF800101168D80725
:101B600044BF43F020032360002940F0B78023687E
:101B700023F0200323601023002284F843206068B0
:101B8000A0600028C0F2A180226822F00402226036
:101B900000297CD1002840F09A807546082B00F07F
:101BA0008680AEEB0503236195E7012384F842505C
:101BB000236104F14205002384F843308BE7582366
:101BC00084F845302368DFF87491DCF800201906AA
:101BD000C1D45D0640F18480111DCCF8001011883D
:101BE000BDE72368180640F18E80DCF800301A1D2E
:101BF0001968CCF800206F2DDFF840910CBF082346
:101C00000A23B9E7236843F0200323609AE7DCF84E
:101C100000306268191DCCF800101D6800212846AC
:101C200000F076FD002800F08580401B6060206198
:101C3000C1E7DCF800301A68191D0123CCF8001048
:101C400004F1420584F842202361B4E723681A06B0
:101C500001D45D0665D4DCF800100A680431CCF8C4
:101C600000101146002A03DBDFF8D0900A2386E734
:101C70006268A2602D20002AC1F1000184F84300AF
:101C800002DB23F004032360DFF8B0900A237546DB
:101C9000B1FBF3F203FB121C0846984219F80C1032
:101CA00005F8011D1146F3D2082B7FF47AAF2368A3
:101CB000D9077FF576AF626823699A423FF771AF23
:101CC000302305F8013C013D6BE70029DFD199F88D
:101CD000002084F8422004F142055FE710234BE71F
:101CE000101D1168CCF8000039E713F0400FDCF844
:101CF0000030626903F10401CCF800101B6814BFC6
:101D00001A801A60E4E613F0400FDCF8003003F1AB
:101D100004020DBF19681988CCF80020CCF8002007
:101D200069E7DCF80020B2F900100432CCF800209A
:101D30000A4697E760687AE7343F0408203F0408C2
:101D4000F8B50D461446064608B1836943B3254BE2
:101D50009C422AD0244B9C4229D0244B9C4208BF51
:101D6000F468A389A269A2601A0722D5236903B384
:101D700022686169D31AEDB299422F4629DD0133F9
:101D8000A168501C0139A1602060157062699A42F7
:101D900016D0A389DB0701D50A2D11D03846F8BD2E
:101DA00000F066FA0F4B9C42D4D17468D9E7B4684E
:101DB000D7E72146304600F023F838B92369D7E742
:101DC0002146304600F030F90028E7D04FF0FF37C9
:101DD000E4E72146304600F027F90028F6D12268D2
:101DE0000123CDE7A43D0408843D0408643D0408B4
:101DF000024B0A4601461868FFF7A2BF0480002084
:101E00003C4B70B51D6806460C460DB1AB69E3B19D
:101E1000394B9C421FD0394B9C424DD0384B9C4291
:101E200008BFEC68B4F90C3018079AB219D52169CB
:101E300011B312F001002FD0606900254042A0616B
:101E4000A56000292ED0002070BD284600F010FAB1
:101E5000294B9C42DFD16C68B4F90C3018079AB258
:101E6000E5D4D1063ED5520728D4216943F00803B2
:101E7000A3819AB20029DCD102F42070B0F5007F72
:101E8000D7D03046214600F0F5FBB4F90C3021697B
:101E90009AB212F00100CFD1950758BF6069A060D7
:101EA0000029D0D1120658BF0846CDD543F04003D3
:101EB000A3814FF0FF3070BDAC68B3E7616B51B1E7
:101EC00004F14402914204D0304600F077FDB4F9A9
:101ED0000C3000226263216921600022626023F0DD
:101EE0002403C3E743F04003092232604FF0FF3080
:101EF000A38170BD04800020A43D0408843D040833
:101F0000643D040808B5062000F0D0FE012002F070
:101F100037F900BF8B891A072DE9F0410D4680463D
:101F20003FD44A68002A57DDEE6A002E51D00022C5
:101F3000D8F80040C8F8002013F4805250D1012393
:101F4000296A4046B047431C5ED0AB89EE6A5F0702
:101F500005D56A686B6B801A0BB12B6CC01A296AA5
:101F6000024600234046B047411C3BD1D8F8003020
:101F7000002B37D01D2B01D0162B4DD12B69002201
:101F8000C5E90032696BC8F8004011B305F144039C
:101F9000994202D0404600F011FD00206863BDE880
:101FA000F0810F69AFB10E680F609A070CBF4B69E3
:101FB0000023F61B8B600AE0AC6A296A33463A4676
:101FC0004046A047041EA6EB0406274414DD002E5D
:101FD000F2DC0020BDE8F0810A6C002AA4DCF8E7FE
:101FE000686DB4E7AB892A692A60DB044FF0000210
:101FF0006A60C7D56865C5E7AB8943F04003AB812C
:102000004FF0FF30BDE8F081D8F80030002B9CD0B5
:102010001D2B06D0162B04D0AB8943F04003AB81B7
:10202000D8E7C8F80040D4E738B50B69BBB10D4616
:10203000044608B18369B3B10D4B9D4211D00D4BDD
:102040009D4213D00C4B9D4208BFE568B5F90C309A
:102050002BB129462046BDE83840FFF75BBF002082
:1020600038BD6568F2E700F003F9E5E7A568EDE73C
:10207000A43D0408843D0408643D0408014618B1E9
:10208000044B1868FFF7D0BF034B0449186800F0F1
:102090009FBA00BF04800020603D0408292000088A
:1020A00000207047014900F093BA00BF29200008C2
:1020B0000020704770B54A1E682505FB02F50E46E4
:1020C00005F1740100F0D8FC044640B100210C3049
:1020D000666005F168022160A060FEF73FFF2046C0
:1020E00070BD00BFF8B51E4B1E68B36907463BB311
:1020F0004836D6E90134013B04D51DE05A1C04F1F1
:10210000680419D0B4F90C50013B002DF6D1154BE1
:102110006566C4E90055C4E90455A560A561E3609E
:102120000822294604F15C00FEF718FFC4E90D55AA
:10213000C4E912552046F8BD34682CB12646D8E7CC
:10214000304600F011F8D3E704213846FFF7B2FF1C
:10215000044630600028F1D10C233B60EAE700BF61
:10216000603D04080100FFFF2DE9F84F334B34496F
:102170001A68816290424FF00003C0E91233036590
:1021800004BF012383610546FFF7ACFF6860284662
:10219000FFF7A8FFA8602846FFF7A4FF6E68E86075
:1021A00000240423F360C6E90044C6E904447466CD
:1021B000B460B461214606F15C000822FEF7CEFE51
:1021C000DFF888B0AF68DFF888A0DFF88890DFF824
:1021D00088801C4BC6F83080C6E9086BC6E90AA99E
:1021E0002146FB600822C7E90044C7E904447C6635
:1021F000BC60BC6107F15C00FEF7B0FEEE68124BFC
:10220000C7F83080C7E9087BC7E90AA92146F3600F
:10221000C6E90044C6E904447466B460B46106F1DA
:102220005C000822FEF79AFE0123C6E9086BC6E9A6
:102230000AA9C6F83080AB61BDE8F88F603D04089C
:10224000A52000080900010012000200212D00084D
:10225000492D0008892D0008A92D0008024B0349CB
:10226000186800F0B5B900BF603D040829200008D7
:10227000836903B978E77047704700BF704700BFB4
:10228000704700BF704700BF024B0349186800F059
:102290007FB900BF04800020A1200008024B034941
:1022A000186800F075B900BF04800020B120000854
:1022B0009368002B00F08A802DE9F04F9046B1F929
:1022C0000C200C46110783B0814693B225D52269B4
:1022D0001AB313F00207D8F800502DD00026DFF80B
:1022E000ACB23746AA465F453B46324628BF5B46FE
:1022F0004846002F4FD0216AA56AA84700285BDD19
:10230000D8F808301B1A06443F1AC8F80830002BCA
:10231000E9D1002003B0BDE8F08F21464846FFF721
:102320006FFD002840F02F81B4F90C20D8F8005040
:1023300093B213F00207D1D113F0010A48D15646E7
:102340002EB39A05A76840F18C80B742BB4600F2D5
:10235000B78013F4906F40F0CB80206851465A4606
:1023600000F0C0FAA1682368C91B5B443746A1602E
:1023700023600026D8F80830DB1BBA44C8F80830C0
:10238000002BC6D0B4F90C309BB2002ED9D1D5E9C0
:1023900000A60835D4E7DAE900670AF1080AA2E7DF
:1023A00029465A4600F09EFA23685B442360214682
:1023B0004846FFF739FE58B3B4F90C3043F04003F8
:1023C0004FF0FF30A38103B0BDE8F08F00207047CD
:1023D0003E46AA4638463D4600976EB3002833D0A5
:1023E000009A2068D4E90413B24228BF32468842DA
:1023F00004D9A16803EB010B5A45D1DC93426ADC96
:10240000216AA76A2A464846B847B0F1000BD3DDD7
:10241000009BB3EB0B03009356D00120D8F8083093
:10242000A3EB0B035D44A6EB0B06C8F80830002BAA
:102430003FF46FAF002ED1D10AF1080353E90256E1
:102440009A460833002EF9D032460A21284600F079
:102450005FF9002800F08E800130431B00931A467C
:10246000BFE720682369984214D86169B14211D846
:102470006FF00043B34228BF3346A76A93FBF1F3E2
:10248000524601FB03F34846216AB847071E93DD15
:10249000F61B6FE7B74228BF37463A46514600F071
:1024A00021FAA3682268DB1B3A44A3602260002B58
:1024B000EED121464846FFF7B7FD0028E8D07BE77C
:1024C00020683746B34649E721464846FFF7ACFD4A
:1024D0000028A3D070E72946019200F003FA019A80
:1024E000A1682368891A1344A160236093468FE78B
:1024F000D4E90417226807EB4707A2EB010B07EBAF
:10250000D7770BF101007F103044B8423A4684BFC0
:1025100007463A465B051BD51146484600F0ACFA23
:1025200058B35A462169009000F042F9A289009BF5
:1025300022F4906242F08002A281A7EB0B0203EB2F
:102540000B00676123612060A2603746B34605E750
:10255000484600F0EBFA03460028EED121694846D0
:1025600000F02CFAB4F90C300C2223F08003C9F8E7
:10257000002023E7721C009233E70C23C9F80030D7
:10258000B4F90C301AE74FF0FF30C3E600FCFF7FD0
:102590002DE9F04100F1480788460026D7E90154AB
:1025A000013D0FD4A389012B05F1FF3506D9B4F9FC
:1025B0000E30013302D02046C04706436B1C04F1A5
:1025C0006804EFD13F68002FE8D13046BDE8F081C4
:1025D0002DE9F8430746884600F148064FF0000908
:1025E000D6E90154013D11D4A389012B05F1FF3532
:1025F00008D9B4F90E30013304D021463846C0471B
:1026000049EA00096B1C04F16804EDD13668002E1C
:10261000E6D14846BDE8F88370B50C46B1F90E1016
:10262000002996B016461D4613DB6A4600F0E8FB0B
:1026300000280EDB019901F47041A1F50051B1FAB7
:1026400081F149094FF4806300202960336016B09E
:1026500070BDA38900221B062A6004D540230020F8
:10266000336016B070BD4FF480630020336016B045
:1026700070BD00BF70B58B899D0782B00C4607D531
:1026800001F147030122C1E904320B6002B070BDC1
:1026900001AB6A460646FFF7BFFF00990546304684
:1026A00000F0EAF980B1B4F90C20174BB36201993C
:1026B000206042F08003009AA381C4E9040299B922
:1026C0002B43A38102B070BDB4F90C309A05DDD460
:1026D00023F0030304F1470243F002030121C4E99C
:1026E0000421A3812260D1E7B4F90E10304600F036
:1026F0009DFB10B9B4F90C30E2E7A28922F0030285
:1027000042F0010213B2DBE7A52000080000000040
:1027100001F0FF01102A2BDB10F0070F08D010F892
:10272000013B013A8B422DD010F0070F42B3F6D196
:10273000F0B441EA012141EA014122F007047FF0AF
:1027400000070023F0E80256083C85EA010586EA06
:10275000010685FA47F5A3FA87F586FA47F6A5FA42
:1027600087F68EB9EED1F0BC01F0FF0102F007024E
:1027700032B110F8013B013A83EA010313B1F8D1F9
:102780000020704701387047002D06BF35460338DA
:10279000073815F0010F07D1013015F4807F02BF13
:1027A000013015F4C03F0130F0BC0138704700BF64
:1027B000844641EA000313F003036DD1403A41D34C
:1027C00051F8043B40F8043B51F8043B40F8043B0B
:1027D00051F8043B40F8043B51F8043B40F8043BFB
:1027E00051F8043B40F8043B51F8043B40F8043BEB
:1027F00051F8043B40F8043B51F8043B40F8043BDB
:1028000051F8043B40F8043B51F8043B40F8043BCA
:1028100051F8043B40F8043B51F8043B40F8043BBA
:1028200051F8043B40F8043B51F8043B40F8043BAA
:1028300051F8043B40F8043B51F8043B40F8043B9A
:10284000403ABDD2303211D351F8043B40F8043B3A
:1028500051F8043B40F8043B51F8043B40F8043B7A
:1028600051F8043B40F8043B103AEDD20C3205D34A
:1028700051F8043B40F8043B043AF9D2043208D042
:10288000D2071CBF11F8013B00F8013B01D30B88B4
:1028900003806046704700BF082A13D38B078DD092
:1028A00010F003038AD0C3F10403D21ADB071CBF64
:1028B00011F8013B00F8013B80D331F8023B20F8CE
:1028C000023B7BE7043AD9D3013A11F8013B00F807
:1028D000013BF9D20B7803704B7843708B7883708F
:1028E000604670478842F0B40DD98B1883420AD9EC
:1028F000841832B1224613F8014D02F8014D994275
:10290000F9D1F0BC70470F2A0ED80346541E002A96
:10291000F7D001340C44013B11F8012B03F8012FCF
:10292000A142F9D1F0BC704740EA01039B073FD1B7
:10293000A2F1100323F00F0401F1200727441B0923
:1029400001F1100400F1100554F8106C45F8106CFA
:1029500054F80C6C45F80C6C54F8086C45F8086C8D
:1029600054F8046C45F8046C1034BC4205F11005B1
:10297000EAD1013312F00C0F01EB031102F00F0446
:1029800000EB031317D0043C24F0030CA5089C446F
:102990001C1F0E4656F8047B44F8047F6445F9D1A9
:1029A0006C1C03EB840301EB840102F00302ADE72E
:1029B000541E0346ADE72246A8E700BF002954D0C5
:1029C00030B551F8043C83B0002BA1F10404B8BF2A
:1029D000E418019000F052FA264A019813682BB1CE
:1029E000A3420CD921686518AB422CD063601460F7
:1029F00003B0BDE8304000F043BAA3420FD81A46F6
:102A00005B68002BF9D111685518AC4217D02DD353
:102A10006360546003B0BDE8304000F031BA116823
:102A20005518A54215D021D821686518AB42EFD1C1
:102A3000D3E900532944636021605460D8E72368D8
:102A400019441160D4E7D3E900532944636021603D
:102A5000CDE7246821445418A3421160C8D1D3E9BA
:102A60000043214453601160C2E770470C230360A8
:102A7000BEE700BF00000024F8B5CD1C25F003051B
:102A800008350C2D38BF0C25002D064623DBA94246
:102A900021D8254F00F0F2F93A6822B3144603E03A
:102AA00063682246FBB11C4623685B1BF8D40B2BE2
:102AB00015D8636894420CBF3B605360304600F009
:102AC000DFF904F10B0020F00700231DC21A01D02A
:102AD0001B1AA350F8BD0C2333600020F8BD2360FF
:102AE0001C442560EAE77968C9B12946304600F000
:102AF00045F8431C0CD0C41C24F00304A04205D0AC
:102B0000211A304600F03AF8013001D02560D5E7AF
:102B10000C233046336000F0B3F90020F8BD304696
:102B200000F02CF87860E0E700000024F8B51446C7
:102B3000F9B1CAB106460D4600F0A4F9A04202D38D
:102B40002F463846F8BD21463046FFF795FF074629
:102B50000028F6D022462946FFF72AFE30462946AD
:102B6000FFF72CFF3846F8BD2746FFF727FF38460A
:102B7000F8BDBDE8F8401146FFF77EBF38B5074DF8
:102B80000022044608462A6026F0CEF8431C00D0F6
:102B900038BD2B68002BFBD0236038BDC8610424EE
:102BA00010B580210446FFF767FF606448B1031F3A
:102BB00000F17C02002143F8041F9342FBD1002066
:102BC00010BD4FF0FF3010BD436C0BB100207047BB
:102BD000E6E700BF1F2970B5044608D8436C0D46D0
:102BE00016464BB153F8250043F8256070BD1623F7
:102BF00003604FF0FF3070BDFFF7D2FF08B9636C80
:102C0000F0E74FF0FF3070BD1F2938B5054620D8DA
:102C1000426C0C466AB152F8213053B1012B16D0E8
:102C2000591C10D00025204642F8245098472846C9
:102C300038BD284600F072F8224601462846BDE815
:102C4000384000F055B816230360012038BD00203D
:102C500038BD162303604FF0FF3038BD1F2921D83F
:102C600038B5436C0D46044683B153F8252003EB79
:102C700085034AB1511C10D0012A0CD000242846EB
:102C80001C609047204638BD012038BDFFF788FF03
:102C900028B9636CE9E7032038BD022038BD4FF046
:102CA000FF3038BD4FF0FF30704700BF024B014688
:102CB0001868FFF7A9BF00BF04800020024B0A4636
:102CC00001461868FFF786BF04800020034B186890
:102CD000436C0BB10020704762E700BF0480002006
:102CE000024B01461868FFF7B9BF00BF04800020FF
:102CF00038B50C46084D03461146204600221C46B6
:102D00002A6000F02FFB431C00D038BD2B68002B3D
:102D1000FBD0236038BD00BFC861042400F012BBA3
:102D200010B50C46B1F90E1000F0B6F8002803DB20
:102D3000636D0344636510BDA38923F48053A381AD
:102D400010BD00BF002070472DE9F041B1F90C50D3
:102D50009846EB050C46174606460BD425F48055DD
:102D6000B4F90E10A58143463A463046BDE8F0411D
:102D700000F01EB8B1F90E100223002200F068F82E
:102D8000B4F90C50EAE700BF10B50C46B1F90E10CB
:102D900000F05EF8A389421C0EBF23F4805343F475
:102DA00080536065A38110BDB1F90E1000F016B814
:102DB00070B50C46084D114600261A4603462046BB
:102DC0002E601C4600F0E6FA431C00D070BD2B6854
:102DD000002BFBD0236070BDC861042438B5074DBB
:102DE0000022044608462A6000F09CFA431C00D0EA
:102DF00038BD2B68002BFBD0236038BDC86104248C
:102E000038B50C46084D03461146204600221C46A4
:102E10002A6000F08FFA431C00D038BD2B68002BCD
:102E2000FBD0236038BD00BFC861042438B5074D0E
:102E30000022044608462A6000F08CFA431C00D0A9
:102E400038BD2B68002BFBD0236038BDC86104243B
:102E500070B50C46084D114600261A46034620461A
:102E60002E601C4600F086FA431C00D070BD2B6813
:102E7000002BFBD0236070BDC8610424704700BFE5
:102E8000704700BF51F8040C0028A0F10400BCBF3B
:102E90000B58C018704700BF70B50C46084D11465E
:102EA00000261A46034620462E601C4600F06AFAA9
:102EB000431C00D070BD2B68002BFBD0236070BD7D
:102EC000C861042438B50C460968054609B1FFF706
:102ED000F9FF21462846BDE83840FFF76FBD00BF27
:102EE000314B1B68834259D0426A70B50546002AAF
:102EF0004FD0D16891B100268C5944B12146246845
:102F00002846FFF75BFD002CF8D16B6AD9680436C0
:102F1000802EF1D12846FFF751FD6A6A1168002919
:102F20003DD02846FFF74AFD696911B12846FFF7F1
:102F300045FD6A6A1AB111462846FFF73FFDA96BA5
:102F400011B12846FFF73AFDE96B11B12846FFF7AA
:102F500035FD296C11B12846FFF730FDE96D11B13F
:102F60002846FFF72BFDA96D11B12846FFF726FD76
:102F7000696B11B12846FFF721FDAB696BB1AB6AF4
:102F800028469847A96C41B12846BDE87040FFF734
:102F900099BF41690029C9D1D1E770BD70476969FE
:102FA0000029C3D1C7E700BF0480002081F00041A1
:102FB00002E000BF83F0004330B54FEA41044FEA1E
:102FC000430594EA050F08BF90EA020F1FBF54EAB9
:102FD000000C55EA020C7FEA645C7FEA655C00F055
:102FE000E2804FEA5454D4EB5555B8BF6D420CDD26
:102FF0002C4480EA020281EA030382EA000083EAA9
:10300000010180EA020281EA0303362D88BF30BD48
:1030100011F0004F4FEA01314FF4801C4CEA11319E
:1030200002D0404261EB410113F0004F4FEA0333FD
:103030004CEA133302D0524263EB430394EA050F88
:1030400000F0A780A4F10104D5F1200E0DDB02FAF7
:103050000EFC22FA05F2801841F1000103FA0EF28B
:10306000801843FA05F359410EE0A5F120050EF151
:10307000200E012A03FA0EFC28BF4CF0020C43FA82
:1030800005F3C01851EBE37101F0004507D54FF08F
:10309000000EDCF1000C7EEB00006EEB0101B1F5DF
:1030A000801F1BD3B1F5001F0CD349085FEA300025
:1030B0004FEA3C0C04F101044FEA445212F5800F30
:1030C00080F09A80BCF1004F08BF5FEA500C50F1CD
:1030D000000041EB045141EA050130BD5FEA4C0CB0
:1030E000404141EB0101013C28BFB1F5801FE9D20D
:1030F00091F0000F04BF01460020B1FA81F308BF30
:103100002033A3F10B03B3F120020CDA0C3208DDFB
:1031100002F1140CC2F10C0201FA0CF021FA02F1D6
:103120000CE002F11402D8BFC2F1200C01FA02F146
:1031300020FA0CFCDCBF41EA0C019040E41AA2BF6B
:1031400001EB0451294330BD6FEA04041F3C1CDA33
:103150000C340EDC04F11404C4F1200220FA04F053
:1031600001FA02F340EA030021FA04F345EA0301FD
:1031700030BDC4F10C04C4F1200220FA02F001FABF
:1031800004F340EA0300294630BD21FA04F0294641
:1031900030BD94F0000F83F4801306BF81F48011DA
:1031A0000134013D4EE77FEA645C18BF7FEA655C4D
:1031B00029D094EA050F08BF90EA020F05D054EA1F
:1031C000000C04BF1946104630BD91EA030F1EBF24
:1031D0000021002030BD5FEA545C05D14000494128
:1031E00028BF41F0004130BD14F580043CBF01F51B
:1031F000801130BD01F0004545F0FE4141F4700101
:103200004FF0000030BD7FEA645C1ABF19461046DB
:103210007FEA655C1CBF0B46024650EA013406BFDC
:1032200052EA033591EA030F41F4002130BD00BF9B
:1032300090F0000F04BF0021704730B54FF4806458
:1032400004F132044FF000054FF0000150E700BFD9
:1032500090F0000F04BF0021704730B54FF4806438
:1032600004F1320410F0004548BF40424FF0000125
:103270003EE700BF42004FEAE2014FEA31014FEA68
:1032800002701FBF12F07F4393F07F4F81F06051B7
:10329000704732F07F4208BF704793F07F4F04BF02
:1032A00041F40021704730B54FF4607401F00045DF
:1032B00021F000411CE700BF50EA010208BF70473F
:1032C00030B54FF000050AE050EA010208BF704730
:1032D00030B511F0004502D5404261EB41014FF499
:1032E000806404F132045FEA915C3FF4D8AE4FF0A1
:1032F00003025FEADC0C18BF03325FEADC0C18BF84
:10330000033202EBDC02C2F1200300FA03FC20FAD4
:1033100002F001FA03FE40EA0E0021FA02F1144421
:10332000BDE600BF024B58221A604FF0FF307047D5
:10333000C8610424024B58221A604FF0FF307047D6
:10334000C8610424024B58221A604FF0FF307047C6
:10335000C8610424024B58221A600020704700BF45
:10336000C8610424024B58221A604FF0FF307047A6
:10337000C8610424024B58221A604FF0FF30704796
:10338000C8610424024B58221A604FF0FF30704786
:10339000C8610424024B58221A604FF0FF30704776
:1033A000C861042480B400AF00BFBD465DF8047B53
:1033B000704780B400AF00BFBD465DF8047B704726
:1033C00080B582B000AF174A174BD31A9B103B60F1
:1033D00000237B607A683B689A4208DA124A7B686D
:1033E00052F8233098477B6801337B60F2E7FFF7A0
:1033F000D9FF0E4A0E4BD31A9B103B6000237B6013
:103400007A683B689A4208DA094A7B6852F82330A6
:1034100098477B6801337B60F2E700BF0837BD4601
:1034200080BD00BF000000009C220408A422040804
:103430009C22040880B582B000AF0D4A0D4BD31A10
:103440009B103B603B687B607B68002B09DD7B68E1
:10345000013B084A52F8233098477B68013B7B6068
:10346000F2E7FFF7A6FF00BF0837BD4680BD00BFEB
:10347000A4220408A422040872B60B4C0B4D0C4B7A
:103480009D4204D023682B6004340435F7E7094CCF
:10349000094B9C4203D0002323600434F8E7FFF774
:1034A0008FFF00F079FE00BF453F04080080002038
:1034B000D881002000000024CC61042480B400AF37
:1034C000FEE780B400AFFEE780B483B000AF002316
:1034D0007B607B68034A9342F9DA7B6801337B6047
:1034E000F7E700BFC030460080B483B000AF0346AA
:1034F000FB80B7F90630002B0BDBFB8803F01F02C3
:103500000749B7F906305B09012000FA02F241F8D9
:10351000232000BF0C37BD465DF8047B704700BF19
:1035200000E100E080B582B000AF78600B46FB7030
:103530001346BB707B6800221A707B6800225A60B9
:10354000BA78FB781946786800F02AF8074B1B78A0
:103550005A1CD1B2054A11701946054A7B6842F8D7
:1035600021307B6818460837BD4680BD1400002412
:103570000800002480B483B000AF786039607B68B5
:1035800000225A607B685B683A689A4201D900BFA2
:10359000F8E700BF0C37BD465DF8047B70470000BC
:1035A00080B582B000AF78600B46FB701346BB70ED
:1035B000FB78042B75D0042B00F3AB80022B02D0D8
:1035C000032B3CD0A5E0554BD3F8E830534A43F0E9
:1035D0000103C2F8E830BB78002B0AD0012B1AD1C6
:1035E0004FF0804314229A624FF080430922DA623E
:1035F00011E04FF0804364229A624FF080436422CE
:103600009A624FF0804364229A624FF0804340F206
:10361000E732DA6200BF4FF08043DB684FF0804250
:1036200043F00103D3604FF080431B684FF08042AA
:1036300043F0010313601C20FFF756FF6AE0374B8D
:10364000D3F8E830354A43F00203C2F8E830BB78DB
:10365000002B08D0012B14D1314B14229A62304B2D
:103660000922DA620DE02E4B64229A622C4B64220E
:103670009A622B4B64229A62294B40F2E732DA625B
:1036800000BF274BDB68264A43F00103D360244B7D
:103690001B68234A43F0010313601D20FFF724FF3A
:1036A00038E01E4BD3F8E8301C4A43F00403C2F85C
:1036B000E830BB78002B0ED0012B1AD1194B122207
:1036C0009A62184B12229A62164B12229A62154B7A
:1036D0006322DA620DE0134B64229A62114B64227A
:1036E0009A62104B64229A620E4B40F2E732DA6221
:1036F00000BF0C4BDB680B4A43F00103D360094B5E
:103700001B68084A43F0010313601E20FFF7ECFE1C
:1037100000E000BF00BF0837BD4680BD004402582E
:10372000000400400008004080B400AF4FF0804328
:103730001B694FF0804223F001031361064B1B68A5
:1037400001221A70044B1B685A6801325A6000BF8C
:10375000BD465DF8047B70470800002480B400AFCC
:10376000094B1B69084A23F001031361074B5B688F
:1037700001221A70064B4AF6AA221A6000BFBD4603
:103780005DF8047B704700BF00040040080000247F
:103790000048005880B500AF0A4B1B69094A23F066
:1037A00001031361084B9B6801221A70074B1B68C9
:1037B000184600F067F8054B1B68184600F004F93E
:1037C00000BF80BD0008004008000024180000244D
:1037D00080B483B000AF0346FB80B7F90630002BFE
:1037E0000BDBFB8803F01F020749B7F906305B09C2
:1037F000012000FA02F241F8232000BF0C37BD4639
:103800005DF8047B704700BF00E100E080B582B046
:1038100000AF78607B6800221A707B6800225A70C3
:103820007B6800229A707B680022DA707B68002235
:103830001A717B6800225A717B680022DA807B68EB
:1038400000221A817B6800225A817B6800221A7349
:103850007B6800225A737B6800229A737B6800227F
:10386000DA73786800F0A8FA786800F069FA044A18
:103870007B6813607B6818460837BD4680BD00BF73
:103880001800002480B483B000AF78604C4B1B69F3
:10389000DB08DBB203F00103DAB24A4B1B699B0978
:1038A000DBB203F00203DBB21343DAB27B685A7374
:1038B0007B681B89642B02D17B6863221A817B6839
:1038C0001B7B032B15D17B685B7B012B06D17B68AF
:1038D0001B89013B9AB27B681A8157E07B685B7B4E
:1038E000022B53D17B681B8901339AB27B681A8102
:1038F0004CE07B681B7B022B15D17B685B7B032B29
:1039000006D17B681B89013B9AB27B681A813DE036
:103910007B685B7B002B39D17B681B8901339AB2B2
:103920007B681A8132E07B681B7B012B15D17B6899
:103930005B7B002B06D17B681B89013B9AB27B68BD
:103940001A8123E07B685B7B032B1FD17B681B897B
:1039500001339AB27B681A8118E07B681B7B002BCD
:1039600014D17B685B7B012B06D17B681B890133FB
:103970009AB27B681A8109E07B68DB7B022B05D158
:103980007B681B89013B9AB27B681A817B681B8923
:10399000652B02D17B6863221A817B681B894FF6F5
:1039A000FF72934202D17B6800221A817B685A7BA6
:1039B0007B681A7300BF0C37BD465DF8047B704707
:1039C000000002580004025880B483B000AF786051
:1039D0004C4B1B691B0ADBB203F00103DAB24A4B02
:1039E0001B691B09DBB203F00203DBB21343DAB23B
:1039F0007B68DA737B685B89642B02D17B68632206
:103A00005A817B689B7B032B15D17B68DB7B012B69
:103A100006D17B685B89013B9AB27B685A8157E08B
:103A20007B68DB7B022B53D17B685B8901339AB2C5
:103A30007B685A814CE07B689B7B022B15D17B68AD
:103A4000DB7B032B06D17B685B89013B9AB27B68E9
:103A50005A813DE07B68DB7B002B39D17B685B8939
:103A600001339AB27B685A8132E07B689B7B012BE1
:103A700015D17B68DB7B002B06D17B685B89013B22
:103A80009AB27B685A8123E07B68DB7B032B1FD1D2
:103A90007B685B8901339AB27B685A8118E07B6846
:103AA0009B7B002B14D17B68DB7B012B06D17B68D1
:103AB0005B8901339AB27B685A8109E07B68DB7BC2
:103AC000022B05D17B685B89013B9AB27B685A81E6
:103AD0007B685B89652B02D17B6863225A817B6896
:103AE0005B894FF6FF72934202D17B6800225A81B4
:103AF0007B68DA7B7B689A7300BF0C37BD465DF844
:103B0000047B7047000002580004025880B584B05E
:103B100000AF78600B467B800023FB607B88FA68EF
:103B20009A4206DA786800F01FF8FB680133FB6000
:103B3000F4E700BF1037BD4680BD80B584B000AF4C
:103B400078600B467B800023FB607B88FA689A4292
:103B500006DA786800F036F8FB680133FB60F4E7BA
:103B600000BF1037BD4680BD80B582B000AF786021
:103B7000786800F055F8124B1B680A211846FFF7C9
:103B8000F9FC786800F070F80D4B1B680A211846A4
:103B9000FFF7F0FC786800F08BF8094B1B680A21EE
:103BA0001846FFF7E7FC786800F0A6F8044B1B689E
:103BB0000A211846FFF7DEFC00BF0837BD4680BD6E
:103BC0000800002480B582B000AF7860786800F00B
:103BD00093F8124B1B680A211846FFF7CBFC786854
:103BE00000F066F80D4B1B680A211846FFF7C2FC6F
:103BF000786800F039F8094B1B680A211846FFF76E
:103C0000B9FC786800F00CF8044B1B680A211846D0
:103C1000FFF7B0FC00BF0837BD4680BD0800002498
:103C200080B483B000AF78600E4B9B690D4A43F0BF
:103C3000010393610B4B9B690A4A43F40033936180
:103C4000084B9B69074A43F480239361054B9B69AA
:103C5000044A43F48003936100BF0C37BD465DF80E
:103C6000047B70470004025880B483B000AF7860D2
:103C70000E4B9B690D4A43F4803393610B4B9B6958
:103C80000A4A43F002039361084B9B69074A43F4D5
:103C900080239361054B9B69044A43F4800393613D
:103CA00000BF0C37BD465DF8047B70470004025826
:103CB00080B483B000AF78600E4B9B690D4A43F42B
:103CC000803393610B4B9B690A4A43F40033936141
:103CD000084B9B69074A43F004039361054B9B69BA
:103CE000044A43F48003936100BF0C37BD465DF87E
:103CF000047B70470004025880B483B000AF786042
:103D00000E4B9B690D4A43F4803393610B4B9B69C7
:103D10000A4A43F400339361084B9B69074A43F412
:103D200080239361054B9B69044A43F040039361F0
:103D300000BF0C37BD465DF8047B70470004025895
:103D400080B483B000AF78601A4B1B68194A23F027
:103D500002031360174B1B68164A43F001031360FC
:103D6000144B1B68134A23F008031360114B1B68A4
:103D7000104A43F0040313600E4B1B680D4A23F0F6
:103D8000200313600B4B1B680A4A43F010031360B7
:103D9000084B1B68074A23F400531360054B1B684C
:103DA000044A43F48053136000BF0C37BD465DF8EE
:103DB000047B70470004025880B582B000AF786081
:103DC0007B4BD3F8E0307A4A43F00403C2F8E0308A
:103DD000784B1B68774A23F0C0031360754BDB6890
:103DE000744A23F0C003D360714BD3F8E030704ABB
:103DF00043F00103C2F8E0306F4B1B686E4A23F4B6
:103E0000403313606C4BDB686B4A23F44033D36060
:103E1000694B1B68684A23F0C0031360664BDB687C
:103E2000654A23F0C003D360614BD3F8E030604AA9
:103E300043F00203C2F8E030604B1B685F4A23F492
:103E4000406313605D4BDB685C4A23F44063D360DE
:103E50005A4B1B68594A23F440431360574BDB68A5
:103E6000564A23F44043D360524B1B68514A23F413
:103E7000402313604F4BDB684E4A23F44023D3604A
:103E80004B4BD3F8F4304A4A43F00203C2F8F43003
:103E90004B4B4B4A9B6893604FF0B0435B684FF0CD
:103EA000B04243F0080353604FF0B043D3F8803082
:103EB0004FF0B04243F00803C2F880304FF0B043F7
:103EC000D3F888304FF0B04243F00803C2F888308E
:103ED0000920FFF77DFC3A4BDB68394A43F48053F5
:103EE000D3604FF0B0435B684FF0B04243F08003C3
:103EF00053604FF0B043D3F880304FF0B04243F0FE
:103F00008003C2F880304FF0B043D3F888304FF0D0
:103F1000B04243F08003C2F88830294BDB68284A5E
:103F200043F01003D3604FF0B0435B684FF0B042F2
:103F300043F0200353604FF0B043D3F880304FF08C
:103F4000B04243F02003C2F880304FF0B043D3F8C2
:103F500088304FF0B04243F02003C2F88830184B4D
:103F60001B69174A43F0200313614FF0B0435B68AD
:103F70004FF0B04243F4007353604FF0B043D3F8B6
:103F800080304FF0B04243F40073C2F880304FF0FD
:103F9000B043D3F888304FF0B04243F40073C2F816
:103FA00088301720FFF714FC00BF0837BD4680BDDE
:103FB0000044025800080258000002580004025849
:103FC0000004005880B400AF4FF0B043D3F88830FD
:103FD0004FF0B04243F00803C2F88830044B1B682E
:103FE00001225A7000BFBD465DF8047B704700BFD8
:103FF0001800002480B400AF4FF0B043D3F88830ED
:1040000003F02003002B14BF01230023DBB2002B9D
:1040100008D0274B1B6801229A704FF0B043202232
:10402000C3F888204FF0B043D3F8883003F0800302
:10403000002B14BF01230023DBB2002B08D01C4B44
:104040001B680122DA704FF0B0438022C3F8882049
:104050004FF0B043D3F8883003F48073002B14BFC3
:1040600001230023DBB2002B05D04FF0B0434FF407
:104070008072C3F888204FF0B043D3F8883003F43F
:104080000073002B14BF01230023DBB2002B09D0E7
:10409000074B1B6801225A714FF0B0434FF4007276
:1040A000C3F8882000BFBD465DF8047B704700BFA1
:1040B0001800002480B582B000AF7860786800F006
:1040C00037F87B6818460837BD4680BD80B485B098
:1040D00000AF786042F21073FB600B4B5B690A4AD9
:1040E00083F400735361FB685A1EFA60002B14BFFF
:1040F00001230023DBB2002B00D0F4E700BF14370C
:10410000BD465DF8047B70470004025880B483B05C
:1041100000AF7860054B5B69044A23F40073536178
:1041200000BF0C37BD465DF8047B704700040258A1
:1041300080B483B000AF78600F4BD3F8E0300E4A04
:1041400043F00203C2F8E0300C4B1B680B4A43F407
:1041500080231360094B1B68084A23F40023136073
:10416000064B9B68054A43F44023936000BF0C371D
:10417000BD465DF8047B70470044025800040258B5
:1041800080B483B000AF7860FEE780B400AF00BFBA
:10419000BD465DF8047B704780B5ADF51D6D04AF7D
:1041A000D64BD3F8DC30D54A43F00053C2F8DC30AC
:1041B000052024F091FE0346C7F8AC390023C7F868
:1041C000BC39D7F8BC39042B0CDCD7F8BC39D7F88C
:1041D000AC29134411221A70D7F8BC390133C7F83F
:1041E000BC39EEE7C64BD3F88830C54A43F47003B8
:1041F000C2F888300023C7F8B839D7F8B809FCF7F7
:10420000FDFEC04B00221A7007F51A63184621F014
:10421000A5FA07F69C131846FFF74CFF07F6941310
:10422000002202211846FFF77DF907F68C130022C1
:1042300003211846FFF776F907F6841301220421BB
:104240001846FFF76FF907F674131846FFF7DEFA02
:1042500062B600BF25F01EF900F062FB07F512639D
:10426000184621F03DFD38F063F807F6F4031846D0
:1042700001F03CF907F6C803184602F0B7FE07F64E
:10428000C80040F2FF7301934FF4F07300934FF4B2
:1042900048730022002102F067FE07F6C8004FF6BF
:1042A000E073009332239FED980AF0224FF4C87117
:1042B00003F0D5F907F50763002240F2FF711846B5
:1042C00003F0A6FE07F50760904B0022642103F07F
:1042D00090FF07F618031F224FF6E071184603F00F
:1042E00097FE07F618034FF6100240F2FF711846CA
:1042F00003F0FCFE97F820391A4607F6180311461A
:10430000184600F0FBFF034607F618000122009252
:104310000022002104F082F8D7F8242907F61803B8
:104320001146184600F0EAFF034607F6180001227E
:1043300000922322002104F071F8D7F8282907F60B
:1043400018031146184600F0D9FF034607F6180077
:10435000012200924622002104F060F80023C7F8F1
:10436000B439D7F8B439002B13DCD7F8B419D7F81F
:10437000B4395B021A46664B1A4407F512604FF4D3
:10438000007322F059FDD7F8B4390133C7F8B439B6
:10439000E7E707F512604FF400735E4A032122F04D
:1043A0004BFD07F512604FF400735B4A042122F0C5
:1043B00043FD07F11003184623F0D6F83B1D574A7A
:1043C00007CA03C31A80564823F00AFA002240F2B3
:1043D000FF71534823F0B0FA524BF02200215048AD
:1043E00023F02BFB504B4FF4847200214C4823F0F8
:1043F00024FB002240F2FF71494823F09DFA7F23FD
:10440000002240F20231464823F0DAFA0023C7F8CE
:10441000A8393C4B1B78002B07D08F23002240F299
:1044200002313F4823F0CCFA06E07F23002240F21D
:1044300002313B4823F0C4FAD7F8B8390133C7F842
:10444000B83907F61803D7F8B819184600F056FF20
:10445000034607F61800072200924FF4DC72002191
:1044600003F0DCFFB7F87C391A4607F6180311464B
:10447000184600F043FF034607F618000322009297
:104480004FF4DC724FF4967103F0C8FFB7F87E3931
:104490001A4607F618031146184600F02FFF034688
:1044A00007F61800032200924FF4DC724FF4FA7101
:1044B00003F0B4FFB7F87A391A4607F61803114625
:1044C000184600F01BFF034607F61800032200926F
:1044D0004FF4DC724FF42F7103F0A0FF97F8753999
:1044E000002B50D0B7F87A39002B1FD0B7F87A39A3
:1044F000013B9BB2A7F87A391CE000BF0044025888
:1045000000ED00E0B0FC032400001643A8220408DC
:104510001C0000241C0200241C040024E4220408C3
:104520001C060024B4220408D02204084FF4B473FB
:10453000A7F87A39B7F87A3905339BB207F6C8007D
:104540004FF6E07203922822029205220192009314
:104550009623F0224FF4C87103F068FAB7F87A395D
:1045600007F6C8004FF478420392282202920522EF
:10457000019200939623F0224FF4C87103F056FA8B
:10458000002387F8753997F87639002B37D0B7F8BC
:104590007A39B3F5B47F06D0B7F87A3901339BB2D4
:1045A000A7F87A3902E00023A7F87A39B7F87A3900
:1045B00007F6C8004FF6E072039228220292052205
:1045C000019200939623F0224FF4C87103F02EFA63
:1045D000B7F87A3905339BB207F6C8004FF4784232
:1045E0000392282202920522019200939623F02240
:1045F0004FF4C87103F01AFA002387F8763997F858
:104600007939002B20D00523A7F8B239B7F8B23991
:10461000002B11D097F89439002BF7D007F69C1394
:104620001846FFF753FDB7F8B239013BA7F8B23986
:10463000002387F89439E9E707F69C131846FFF73B
:1046400065FD002387F8793907F51A63184621F0CC
:10465000D9F997F8A239B14AA2FB0323DB08DBB2F0
:104660001A4607F618031146184600F047FE03469F
:1046700007F618000122009200224FF4FA7103F0AD
:10468000CDFE97F8A229A54BA3FB0213D9080B4630
:104690009B000B445B00D31ADBB21A4607F61803E3
:1046A0001146184600F02AFE034607F618000122BC
:1046B000009200224FF4047103F0B0FE07F61800D8
:1046C0003A23002240F22A2103F056FD97F8A1393F
:1046D000924AA2FB0323DB08DBB21A4607F6180353
:1046E0001146184600F00AFE034607F6180001229C
:1046F0000092002240F2462103F090FE97F8A12993
:10470000864BA3FB0213D9080B469B000B445B00AE
:10471000D31ADBB21A4607F618031146184600F002
:10472000EDFD034607F6180001220092002240F238
:10473000622103F073FE07F618003A23002240F2CC
:104740007E2103F019FD97F8A039744AA2FB0323D8
:10475000DB08DBB21A4607F618031146184600F0CC
:10476000CDFD034607F6180001220092002240F218
:104770009A2103F053FE97F8A029684BA3FB02137C
:10478000D9080B469B000B445B00D31ADBB21A46D8
:1047900007F618031146184600F0B0FD034607F669
:1047A000180001220092002240F2B62103F036FEEA
:1047B00007F51A63184621F081F997F8A539574A89
:1047C000A2FB0323DB08DBB21A4607F618031146E7
:1047D000184600F093FD034607F6180001220092E8
:1047E00028224FF4FA7103F019FE97F8A5294B4BD4
:1047F000A3FB0213D9080B469B000B445B00D31AA2
:10480000DBB21A4607F618031146184600F076FD8B
:10481000034607F618000122009228224FF4047183
:1048200003F0FCFD07F618002E23282240F22A216F
:1048300003F0A2FC97F8A439384AA2FB0323DB0853
:10484000DBB21A4607F618031146184600F056FD6B
:10485000034607F6180001220092282240F2462162
:1048600003F0DCFD97F8A4292C4BA3FB0213D90815
:104870000B469B000B445B00D31ADBB21A4607F6CB
:1048800018031146184600F039FD034607F61800D4
:1048900001220092282240F2622103F0BFFD07F6B8
:1048A00018002E23282240F27E2103F065FC97F8A1
:1048B000A3391A4AA2FB0323DB08DBB21A4607F628
:1048C00018031146184600F019FD034607F61800B4
:1048D00001220092282240F29A2103F09FFD97F8CE
:1048E000A3290E4BA3FB0213D9080B469B000B44D4
:1048F0005B00D31ADBB21A4607F6180311461846B6
:1049000000F0FCFC034607F6180001220092282262
:1049100040F2B62103F082FD7BE500BFCDCCCCCCCC
:1049200080B5CCB000AF07F1E4034C22002118465B
:10493000FCF714FB07F1C403202200211846FCF702
:104940000DFB07F108031846BC231A460021FCF7AB
:1049500005FB022030F094FB3B1D00221A60694BDE
:10496000DB6A684A23F00103D362664BDB6A03F01B
:1049700001023B1D1A60644B9B69634A43F4404348
:104980009361614B9B6903F440423B1D1A603B1DE0
:104990001B685D4B9B6903F40053B3F5005F14BFC4
:1049A00001230023DBB2002B00D0F2E7574B9B6AB8
:1049B00023F00303554A43F0020393620123C7F82F
:1049C000E4304FF48033C7F8E8300223C7F80831E9
:1049D0000223C7F80C310423C7F810314FF4B47325
:1049E000C7F814310223C7F818310223C7F81C3165
:1049F0000223C7F820310423C7F824310023C7F865
:104A000028310023C7F82C3107F1E403184631F0B0
:104A10006DFA0346002B14BF01230023DBB2002BE9
:104A200001D0FFF7B2FB3F23C7F8C4300323C7F818
:104A3000C8300023C7F8CC300823C7F8D030402353
:104A4000C7F8D4304023C7F8D8304FF48063C7F894
:104A5000DC304023C7F8E03007F1C40302211846D8
:104A600031F008FF0346002B14BF01230023DBB203
:104A7000002B01D0FFF789FB07F108034FF4A022B8
:104A80001A6007F1080301225A6207F10803302275
:104A90009A6207F108030222DA6207F1080308228A
:104AA0001A6307F1080302225A6307F108034FF45F
:104AB00040629A6307F108030022DA6307F10803F2
:104AC00000221A6407F108030022DA6407F10803E0
:104AD0004FF40012C3F8842007F10803184632F09F
:104AE000DBFC0346002B14BF01230023DBB2002BA9
:104AF00001D0FFF74AFB30F0DBFE00BF07F59877E7
:104B0000BD4680BD000400580048025800440258C9
:104B100080B400AF104B1B68DB785A060E4B1B6845
:104B20001B795B051A430C4B1B685B791B041A430A
:104B3000094B1B689B78DB021A43074B1B685B78A9
:104B40005B011A43044B1B681B785B101343184628
:104B5000BD465DF8047B70479C58042480B582B044
:104B600000AF786039607B68012B07D13B684FF656
:104B7000FF72934202D1034822F0F8FD00BF0837CC
:104B8000BD4680BD1C06002480B500AF4FF6FF7106
:104B90000120FFF7E3FF80BD80B582B000AF7860F1
:104BA0000B467B807B881946786800F005F87B68A7
:104BB00018460837BD4680BD80B483B000AF78602A
:104BC0000B467B808F4BDB688E4A23F00203D36059
:104BD0008C4BDB688B4A23F00503D360894B9B69C0
:104BE000884A43F440439361864B9B6903F4005326
:104BF000B3F5005F14BF01230023DBB2002B00D00C
:104C0000F2E7814B1B68804A43F4803313607E4B8C
:104C10001B6803F40033002B0CBF01230023DBB21D
:104C2000002B00D0F3E7784B00221A61764B00226C
:104C30009A62754B02229A627B88B3F5F07F00F08E
:104C4000EB80B3F5F07F00F35D81402B03D0B3F52B
:104C5000C87F67D056E16C4B9B6A6B4A43F02003D8
:104C60009362694B00221A63674B00229A63664B7A
:104C700000221A64644B1A6B6349644B13430B6341
:104C8000614B0022DA62604BDB6A5F4A23F00C035F
:104C9000D3625D4BDB6A5C4A43F00403D3625A4B38
:104CA000DB6A594A43F00203D362574B9B69564A69
:104CB00043F400639361544B9B69534A23F00F0301
:104CC0009361514B9B69504A23F0400393614E4BD3
:104CD0009B694D4A23F0300393614B4BDB694A4A91
:104CE00023F04003D361484BDB69474A23F030038C
:104CF000D361454BDB69444A23F48063D361424B63
:104D0000DB69414A23F44073D3613F4B1B6A3E4A3F
:104D100023F0400313623C4B1B6A3B4A23F03003F1
:104D20001362FCE0384B9B6A374A43F040039362BE
:104D3000354B00221A63344B00229A63324B002217
:104D40001A64314B1A6B3049314B13430B632E4BB2
:104D50000022DA622C4BDB6A2B4A43F00803D36251
:104D6000294BDB6A284A23F00203D362264B002238
:104D70009A61254B9B69244A23F470639361224B0B
:104D80009B69214A43F0080393611F4B9B691E4AAC
:104D900043F0400393611C4B9B691B4A23F0300393
:104DA0009361194BDB69184A43F04003D361164BFA
:104DB000DB69154A23F03003D361134BDB69124AD8
:104DC00043F48063D361104BDB690F4A23F44073D3
:104DD000D3610D4B1B6A0C4A43F0400313620A4B2C
:104DE0001B6A094A23F0300313620A4B1B68094A05
:104DF00023F00F031360074B1B68064A43F00203BE
:104E000013608CE00048025800440258400201013F
:104E10006703010100200052674B9B6A664A43F01A
:104E200080039362644B00221A63634B00229A63EF
:104E3000614B00221A64604B1A6B5F495F4B13434E
:104E40000B635D4B0022DA625B4BDB6A5A4A43F02C
:104E50000C03D362584BDB6A574A23F00203D36238
:104E6000554B00229A61544B9B69534A23F470635B
:104E70009361514B9B69504A43F0080393614E4B39
:104E80009B694D4A43F0400393614B4B9B694A4AEF
:104E900023F030039361484BDB69474A43F04003FA
:104EA000D361454BDB69444A23F03003D361424B65
:104EB000DB69414A43F48063D3613F4BDB693E4A7F
:104EC00023F44073D3613C4B1B6A3B4A43F04003DD
:104ED0001362394B1B6A384A23F030031362384B94
:104EE0001B68374A23F00F031360354B1B68344AA5
:104EF00043F003031360304B9B6A2F4A43F00203D5
:104F000093620CE02C4B1B682B4A23F48033136014
:104F1000294B1B68284A43F00103136047E0264BE6
:104F20004FF4D0525A63244BDB6A234A43F4E02304
:104F3000D362214B1B68204A43F0807313601E4BE1
:104F40001B6803F00073002B0CBF01230023DBB2AE
:104F5000002B00D0F3E7184BD3F8F430164A43F097
:104F60000203C2F8F430174B1B6A164A43F00103E0
:104F70001362114B1B69104A23F0070313610E4B98
:104F80001B690D4A43F0030313610B4B1B6903F0CC
:104F90003803182B14BF01230023DBB2002B00D0F1
:104FA000F3E7054B1B68044A23F0010313600C3739
:104FB000BD465DF8047B7047004402589003010130
:104FC000002000520004005880B582B000AF786025
:104FD000786800F005F87B6818460837BD4680BD44
:104FE00080B483B000AF7860104BD3F8E0300F4A44
:104FF00043F01003C2F8E0300D4B1A680C4941F23F
:10500000555313430B600A4B1A680949094B134067
:105010000B60074B9A68064943F6FF7313438B6096
:1050200000BF0C37BD465DF8047B70470044025852
:105030000010025855D5FFFF80B582B000AF87ED54
:10504000010A97ED010AFBF727F9F0EE407AB0EE7E
:10505000670A0837BD4680BD80B582B000AF87EDD6
:10506000010A97ED010AFBF7C7FDF0EE407AB0EEBA
:10507000670A0837BD4680BD80B483B000AF786052
:105080007B681A460023136053609360D3601361FA
:105090007B68143300221A605A609A60DA601A61E1
:1050A0007B68002283F828207B6818460C37BD46B1
:1050B0005DF8047B7047000080B483B000AF786077
:1050C000054B9B69044A43F40043936100BF0C37CE
:1050D000BD465DF8047B70470000025880B483B081
:1050E00000AF7860054B9B69044A43F0004393612D
:1050F00000BF0C37BD465DF8047B704700000258C6
:1051000080B582B000AF78607B681846FFF7B4FFC7
:105110007B6818460837BD4680BD80B582B000AFB9
:1051200078607B681846FFF7EBFF7B681846083706
:10513000BD4680BD80B483B000AF78600B467B80F5
:105140007B881A12064BD2B25A70054B7A88D2B2BB
:105150005A7000BF0C37BD465DF8047B704700BF36
:10516000FFFF006080B483B000AF78600B467B80A7
:105170007B881A12064BD2B21A70054B7A88D2B2CB
:105180001A7000BF0C37BD465DF8047B704700BF46
:10519000FFFF006080B483B000AF78600B467B8077
:1051A00013463B807B881A120A4BD2B21A70094B05
:1051B0007A88D2B21A703B881A12064BD2B25A7051
:1051C000044B3A88D2B25A7000BF0C37BD465DF826
:1051D000047B7047FFFF006080B582B000AF78604D
:1051E0000B467B807B881B0A9BB21A464FF42851E2
:1051F0007868FFF7CFFF7B88DBB29BB21A4642F696
:1052000001217868FFF7C6FF00BF0837BD4680BDA3
:1052100080B582B000AF78600B467B807B881B0A2C
:105220009BB21A464FF42C517868FFF7B3FF7B8886
:10523000DBB29BB21A4642F601317868FFF7AAFF4B
:1052400000BF0837BD4680BD80B584B000AFF860B0
:10525000084611461A4603467B810B463B8113469E
:10526000FB807B891B129BB21A464FF42851F868C9
:10527000FFF790FF7B89DBB29BB21A4642F6012111
:10528000F868FFF787FFFB881B129BB21A4642F6AD
:105290000221F868FFF77EFFFB88DBB29BB21A465B
:1052A00042F60321F868FFF775FF3B891B129BB29A
:1052B0001A464FF42C51F868FFF76CFF3B89DBB2BC
:1052C0009BB21A4642F60131F868FFF763FF3B8B49
:1052D0001B129BB21A4642F60231F868FFF75AFFDA
:1052E0003B8BDBB29BB21A4642F60331F868FFF7FC
:1052F00051FF00BF1037BD4680BD000080B487B0AD
:1053000000AF786039603B687B610023FB747B6988
:10531000002B09D07B69674AA2FB0323DB087B6172
:10532000FB7C0133FB74F2E73B687B617B68FA7CB2
:1053300083F828203B68002B13D17B68012283F877
:1053400028207B6893F82830013B7A683021D154BB
:105350007B6893F828301A467B68002199547B6853
:10536000A2E00023BB747B6893F82830BA7C9A4291
:1053700080F08D8079694F4BA3FB0123DA08134637
:105380009B0013445B00CA1AFA60FB68002B08D12B
:105390007B6893F828305A1EBB7CD31A7A68302178
:1053A000D154FB68012B08D17B6893F828305A1E32
:1053B000BB7CD31A7A683121D154FB68022B08D107
:1053C0007B6893F828305A1EBB7CD31A7A68322146
:1053D000D154FB68032B08D17B6893F828305A1E00
:1053E000BB7CD31A7A683321D154FB68042B08D1D3
:1053F0007B6893F828305A1EBB7CD31A7A68342114
:10540000D154FB68052B08D17B6893F828305A1ECD
:10541000BB7CD31A7A683521D154FB68062B08D19E
:105420007B6893F828305A1EBB7CD31A7A683621E1
:10543000D154FB68072B08D17B6893F828305A1E9B
:10544000BB7CD31A7A683721D154FB68082B08D16A
:105450007B6893F828305A1EBB7CD31A7A683821AF
:10546000D154FB68092B08D17B6893F828305A1E69
:10547000BB7CD31A7A683921D1547B690D4AA2FBCF
:105480000323DB087B61BB7C0133BB746BE77B6868
:1054900093F82830082B06D87B6893F828301A46F2
:1054A0007B68002199547B6818461C37BD465DF81F
:1054B000047B7047CDCCCCCC80B582B000AF786097
:1054C00087ED000A7B6803F11400D7ED007AB7EE90
:1054D000E77A53EC172B0449FBF726FE7B6814335D
:1054E00018460837BD4680BDF022040880B582B05A
:1054F00000AF78607B681846FFF7BEFD786800F063
:1055000011F87868FFF7EAFD786800F0D3F9044AEB
:105510007B6813607B6818460837BD4680BD00BFB6
:10552000B4FC032480B483B000AF78609B4BD3F805
:10553000E0309A4A43F00803C2F8E030984B1A680A
:105540009749984B13430B60954B1A689449964BB7
:1055500013400B60924B9A689149944B13438B60B4
:105560008F4B5A6A8E49924B13434B628C4B1A688D
:105570008B4948F60A2313430B60894B1A68884904
:105580008C4B13400B60864B9A6885494CF60F7321
:1055900013438B60824B1A6A8149874B13430B621A
:1055A0007F4B1B687E4A43F0500313607C4B1B68A3
:1055B0007B4A23F0A0031360794B9B68784A43F041
:1055C000F0039360754BD3F8E030744A43F0100356
:1055D000C2F8E030794B1B68784A43F42A13136011
:1055E000764B1B68754A23F4AA131360734B9B68B0
:1055F000724A43F47F139360704B1B6A6F4A43F007
:10560000404313626D4B5A6A6C4940F6CC431343D6
:105610004B62624BD3F8E030604A43F00103C2F8BA
:10562000E030674B1B68664A43F080431360644B6D
:105630001B68634A23F000431360614B9B68604A18
:1056400043F040439360BFF35F8F00BF5D4B5B6AE5
:105650005C4A23F4803353625B4B00225A605A4BFE
:1056600000229A60584B4FF0C042DA60564B00223D
:105670001A61554B1B69544A43F001031361524BA5
:105680001B69514A43F0360313614F4B4E4A1B6965
:1056900013614D4B1B694C4A43F4803313614A4BF1
:1056A000494A1B691361484B474A1B691361464BC2
:1056B000454A1B691361444B1B69434A43F04073DD
:1056C0001361414B404A1B6913613F4B05225A60ED
:1056D0003C4B5B6A3B4A43F480335362BFF34F8FCA
:1056E00000BFBFF36F8F00BF2C4BDB6C2B4A23F046
:1056F0000303D364294BD3F8D430284A43F48053AE
:10570000C2F8D430314B1B68304A23F40043136095
:105710002E4B1B682D4A23F4807313602B4B1B68A0
:105720002A4A23F400231360284B1B68274A23F4DA
:10573000E0231360254B1B68244A23F48043136045
:10574000224B1B68214A43F0400313601F4B1B6828
:105750001E4A43F0010313601C4B1B681B4A23F0D5
:105760000C031360194B1B68184A43F008031360BD
:10577000164B1B68154A23F004031360134B1B6878
:10578000124A23F002031360104B1B680F4A23F0E8
:10579000300313600D4B1B681AE000BF0044025831
:1057A000000C0258000080A0FFFFBFAF0000C0F057
:1057B00000C000CCFABAFFFFCC00CCC000100258E9
:1057C0000000025800ED00E090ED00E000400052C3
:1057D000374A23F400631360354B1B68344A23F4C3
:1057E00000531360324B1B68314A23F4007313607B
:1057F0002F4B1B682E4A43F4805313602C4B1B68BD
:105800002B4A23F480131360294B1B68284A43F06A
:1058100000431360264B5B68254A23F040535360D6
:10582000234B5B68224A43F080535360204B5B68F4
:105830001F4A23F0F00353601D4B5B681C4A43F082
:10584000F00353601A4B5B68194A23F00F0353604F
:10585000174B5B68164A43F008035360144B5B68B0
:10586000134A23F470235360114B5B68104A23F4EE
:10587000700353600E4B5B680D4A23F47F43536003
:105880000B4B5B680A4A43F400635360084B5B6848
:10589000074A23F070635360054B5B68044A43F08A
:1058A0007063536000BF0C37BD465DF8047B7047E2
:1058B0000040005280B586B002AF7860DB4B1B68B9
:1058C00032211846FDF756FE7868FFF707FCD74BE4
:1058D0001B6864211846FDF74DFE7868FFF7ECFB66
:1058E000D24B1B6832211846FDF744FE7B685522D7
:1058F0004FF470411846FFF74DFC7B68AA224FF227
:1059000001011846FFF746FC7B6852224FF2020164
:105910001846FFF73FFC7B6808224FF20301184648
:10592000FFF738FC7B6801224FF204011846FFF7AD
:1059300031FC7B6834224FF436411846FFF72AFCCD
:105940007B6834224BF201611846FFF723FC7B6829
:1059500034224BF202611846FFF71CFC7B680D22D3
:105960004FF430411846FFF715FC7B680D224BF2CF
:1059700001011846FFF70EFC7B680D224BF2020175
:105980001846FFF707FC7B6824224FF4374118467E
:10599000FFF700FC7B6824224BF201711846FFF7E9
:1059A000F9FB7B6824224BF202711846FFF7F2FBE9
:1059B0007B680D224FF431411846FFF7EBFB7B6803
:1059C0000D224BF201111846FFF7E4FB7B680D2214
:1059D0004BF202111846FFF7DDFB7B6824224FF4DF
:1059E00038411846FFF7D6FB7B6824224BF60101AD
:1059F0001846FFF7CFFB7B6824224BF602011846BE
:105A0000FFF7C8FB7B6800224FF432411846FFF7CE
:105A1000C1FB7B6824224FF439411846FFF7BAFBDB
:105A20007B6824224BF601111846FFF7B3FB7B6815
:105A300024224BF602111846FFF7ACFB7B680522C7
:105A40004FF433411846FFF7A5FB7B6805224BF264
:105A500001311846FFF79EFB7B6805224BF20231AD
:105A60001846FFF797FB7B6834224FF43A411846FB
:105A7000FFF790FB7B6834224BF601211846FFF7B5
:105A800089FB7B6834224BF602211846FFF782FB24
:105A90007B680B224FF435411846FFF77BFB7B6890
:105AA0000B224BF201511846FFF774FB7B680B2267
:105AB0004BF202511846FFF76DFB7B6800224FF452
:105AC0003C411846FFF766FB7B68A3224BF6014179
:105AD0001846FFF75FFB7B6800224BF60241184631
